{
	"contracts/_X.sol": {
		"X": {
			"abi": [
				{
					"inputs": [
						{
							"internalType": "address",
							"name": "_ownerAddr",
							"type": "address"
						}
					],
					"stateMutability": "nonpayable",
					"type": "constructor"
				},
				{
					"inputs": [
						{
							"internalType": "address",
							"name": "owner",
							"type": "address"
						}
					],
					"name": "OwnableInvalidOwner",
					"type": "error"
				},
				{
					"inputs": [
						{
							"internalType": "address",
							"name": "account",
							"type": "address"
						}
					],
					"name": "OwnableUnauthorizedAccount",
					"type": "error"
				},
				{
					"anonymous": false,
					"inputs": [
						{
							"indexed": true,
							"internalType": "address",
							"name": "previousOwner",
							"type": "address"
						},
						{
							"indexed": true,
							"internalType": "address",
							"name": "newOwner",
							"type": "address"
						}
					],
					"name": "OwnershipTransferred",
					"type": "event"
				},
				{
					"anonymous": false,
					"inputs": [
						{
							"indexed": true,
							"internalType": "uint256",
							"name": "id",
							"type": "uint256"
						},
						{
							"indexed": true,
							"internalType": "address",
							"name": "author",
							"type": "address"
						},
						{
							"indexed": false,
							"internalType": "string",
							"name": "content",
							"type": "string"
						},
						{
							"indexed": true,
							"internalType": "uint256",
							"name": "timestamp",
							"type": "uint256"
						}
					],
					"name": "TweetCreated",
					"type": "event"
				},
				{
					"anonymous": false,
					"inputs": [
						{
							"indexed": true,
							"internalType": "uint256",
							"name": "id",
							"type": "uint256"
						},
						{
							"indexed": true,
							"internalType": "address",
							"name": "post",
							"type": "address"
						},
						{
							"indexed": true,
							"internalType": "address",
							"name": "liker",
							"type": "address"
						},
						{
							"indexed": false,
							"internalType": "uint256",
							"name": "likescount",
							"type": "uint256"
						}
					],
					"name": "TweetDisLikes",
					"type": "event"
				},
				{
					"anonymous": false,
					"inputs": [
						{
							"indexed": true,
							"internalType": "uint256",
							"name": "id",
							"type": "uint256"
						},
						{
							"indexed": true,
							"internalType": "address",
							"name": "post",
							"type": "address"
						},
						{
							"indexed": true,
							"internalType": "address",
							"name": "liker",
							"type": "address"
						},
						{
							"indexed": false,
							"internalType": "uint256",
							"name": "likescount",
							"type": "uint256"
						}
					],
					"name": "TweetLikes",
					"type": "event"
				},
				{
					"inputs": [
						{
							"internalType": "string",
							"name": "text",
							"type": "string"
						}
					],
					"name": "Post",
					"outputs": [],
					"stateMutability": "nonpayable",
					"type": "function"
				},
				{
					"inputs": [
						{
							"internalType": "address",
							"name": "addr",
							"type": "address"
						},
						{
							"internalType": "uint256",
							"name": "i",
							"type": "uint256"
						}
					],
					"name": "deletePost",
					"outputs": [],
					"stateMutability": "nonpayable",
					"type": "function"
				},
				{
					"inputs": [
						{
							"internalType": "address",
							"name": "post",
							"type": "address"
						},
						{
							"internalType": "uint256",
							"name": "i",
							"type": "uint256"
						}
					],
					"name": "dislikepost",
					"outputs": [],
					"stateMutability": "nonpayable",
					"type": "function"
				},
				{
					"inputs": [
						{
							"internalType": "address",
							"name": "addr",
							"type": "address"
						}
					],
					"name": "getAllPost",
					"outputs": [
						{
							"components": [
								{
									"internalType": "uint256",
									"name": "id",
									"type": "uint256"
								},
								{
									"internalType": "address",
									"name": "author",
									"type": "address"
								},
								{
									"internalType": "string",
									"name": "content",
									"type": "string"
								},
								{
									"internalType": "uint256",
									"name": "likes",
									"type": "uint256"
								},
								{
									"internalType": "uint256",
									"name": "dislikes",
									"type": "uint256"
								},
								{
									"internalType": "uint256",
									"name": "timestamp",
									"type": "uint256"
								}
							],
							"internalType": "struct X.tweet[]",
							"name": "",
							"type": "tuple[]"
						}
					],
					"stateMutability": "view",
					"type": "function"
				},
				{
					"inputs": [
						{
							"internalType": "address",
							"name": "addr",
							"type": "address"
						},
						{
							"internalType": "uint256",
							"name": "i",
							"type": "uint256"
						}
					],
					"name": "getPost",
					"outputs": [
						{
							"components": [
								{
									"internalType": "uint256",
									"name": "id",
									"type": "uint256"
								},
								{
									"internalType": "address",
									"name": "author",
									"type": "address"
								},
								{
									"internalType": "string",
									"name": "content",
									"type": "string"
								},
								{
									"internalType": "uint256",
									"name": "likes",
									"type": "uint256"
								},
								{
									"internalType": "uint256",
									"name": "dislikes",
									"type": "uint256"
								},
								{
									"internalType": "uint256",
									"name": "timestamp",
									"type": "uint256"
								}
							],
							"internalType": "struct X.tweet",
							"name": "",
							"type": "tuple"
						}
					],
					"stateMutability": "view",
					"type": "function"
				},
				{
					"inputs": [
						{
							"internalType": "address",
							"name": "post",
							"type": "address"
						}
					],
					"name": "getalllikes",
					"outputs": [
						{
							"internalType": "uint256",
							"name": "",
							"type": "uint256"
						}
					],
					"stateMutability": "view",
					"type": "function"
				},
				{
					"inputs": [
						{
							"internalType": "uint256",
							"name": "ilength",
							"type": "uint256"
						}
					],
					"name": "increaseTweetLengthfx",
					"outputs": [],
					"stateMutability": "nonpayable",
					"type": "function"
				},
				{
					"inputs": [
						{
							"internalType": "address",
							"name": "post",
							"type": "address"
						},
						{
							"internalType": "uint256",
							"name": "i",
							"type": "uint256"
						}
					],
					"name": "likepost",
					"outputs": [],
					"stateMutability": "nonpayable",
					"type": "function"
				},
				{
					"inputs": [],
					"name": "owner",
					"outputs": [
						{
							"internalType": "address",
							"name": "",
							"type": "address"
						}
					],
					"stateMutability": "view",
					"type": "function"
				},
				{
					"inputs": [],
					"name": "renounceOwnership",
					"outputs": [],
					"stateMutability": "nonpayable",
					"type": "function"
				},
				{
					"inputs": [
						{
							"internalType": "address",
							"name": "newOwner",
							"type": "address"
						}
					],
					"name": "transferOwnership",
					"outputs": [],
					"stateMutability": "nonpayable",
					"type": "function"
				},
				{
					"inputs": [
						{
							"internalType": "address",
							"name": "",
							"type": "address"
						},
						{
							"internalType": "uint256",
							"name": "",
							"type": "uint256"
						}
					],
					"name": "tweets",
					"outputs": [
						{
							"internalType": "uint256",
							"name": "id",
							"type": "uint256"
						},
						{
							"internalType": "address",
							"name": "author",
							"type": "address"
						},
						{
							"internalType": "string",
							"name": "content",
							"type": "string"
						},
						{
							"internalType": "uint256",
							"name": "likes",
							"type": "uint256"
						},
						{
							"internalType": "uint256",
							"name": "dislikes",
							"type": "uint256"
						},
						{
							"internalType": "uint256",
							"name": "timestamp",
							"type": "uint256"
						}
					],
					"stateMutability": "view",
					"type": "function"
				}
			],
			"devdoc": {
				"errors": {
					"OwnableInvalidOwner(address)": [
						{
							"details": "The owner is not a valid owner account. (eg. `address(0)`)"
						}
					],
					"OwnableUnauthorizedAccount(address)": [
						{
							"details": "The caller account is not authorized to perform an operation."
						}
					]
				},
				"kind": "dev",
				"methods": {
					"owner()": {
						"details": "Returns the address of the current owner."
					},
					"renounceOwnership()": {
						"details": "Leaves the contract without owner. It will not be possible to call `onlyOwner` functions. Can only be called by the current owner. NOTE: Renouncing ownership will leave the contract without an owner, thereby disabling any functionality that is only available to the owner."
					},
					"transferOwnership(address)": {
						"details": "Transfers ownership of the contract to a new account (`newOwner`). Can only be called by the current owner."
					}
				},
				"version": 1
			},
			"evm": {
				"assembly": "    /* \"contracts/_X.sol\":111:2987  contract X is Ownable {... */\n  mstore(0x40, 0x80)\n    /* \"contracts/_X.sol\":883:886  256 */\n  0x0100\n    /* \"contracts/_X.sol\":856:886  uint256 MAX_TWEET_LENGTH = 256 */\n  0x03\n  sstore\n    /* \"contracts/_X.sol\":173:265  constructor(address _ownerAddr) Ownable(_ownerAddr) {... */\n  callvalue\n  dup1\n  iszero\n  tag_1\n  jumpi\n  revert(0x00, 0x00)\ntag_1:\n  pop\n  mload(0x40)\n  sub(codesize, bytecodeSize)\n  dup1\n  bytecodeSize\n  dup4\n  codecopy\n  dup2\n  dup2\n  add\n  0x40\n  mstore\n  dup2\n  add\n  swap1\n  tag_2\n  swap2\n  swap1\n  tag_3\n  jump\t// in\ntag_2:\n    /* \"contracts/_X.sol\":213:223  _ownerAddr */\n  dup1\n    /* \"@openzeppelin/contracts/access/Ownable.sol\":1297:1298  0 */\n  0x00\n    /* \"@openzeppelin/contracts/access/Ownable.sol\":1273:1299  initialOwner == address(0) */\n  0xffffffffffffffffffffffffffffffffffffffff\n  and\n    /* \"@openzeppelin/contracts/access/Ownable.sol\":1273:1285  initialOwner */\n  dup2\n    /* \"@openzeppelin/contracts/access/Ownable.sol\":1273:1299  initialOwner == address(0) */\n  0xffffffffffffffffffffffffffffffffffffffff\n  and\n  sub\n    /* \"@openzeppelin/contracts/access/Ownable.sol\":1269:1364  if (initialOwner == address(0)) {... */\n  tag_7\n  jumpi\n    /* \"@openzeppelin/contracts/access/Ownable.sol\":1350:1351  0 */\n  0x00\n    /* \"@openzeppelin/contracts/access/Ownable.sol\":1322:1353  OwnableInvalidOwner(address(0)) */\n  mload(0x40)\n  0x1e4fbdf700000000000000000000000000000000000000000000000000000000\n  dup2\n  mstore\n  0x04\n  add\n  tag_8\n  swap2\n  swap1\n  tag_9\n  jump\t// in\ntag_8:\n  mload(0x40)\n  dup1\n  swap2\n  sub\n  swap1\n  revert\n    /* \"@openzeppelin/contracts/access/Ownable.sol\":1269:1364  if (initialOwner == address(0)) {... */\ntag_7:\n    /* \"@openzeppelin/contracts/access/Ownable.sol\":1373:1405  _transferOwnership(initialOwner) */\n  tag_10\n    /* \"@openzeppelin/contracts/access/Ownable.sol\":1392:1404  initialOwner */\n  dup2\n    /* \"@openzeppelin/contracts/access/Ownable.sol\":1373:1391  _transferOwnership */\n  shl(0x20, tag_11)\n    /* \"@openzeppelin/contracts/access/Ownable.sol\":1373:1405  _transferOwnership(initialOwner) */\n  0x20\n  shr\n  jump\t// in\ntag_10:\n    /* \"@openzeppelin/contracts/access/Ownable.sol\":1225:1412  constructor(address initialOwner) {... */\n  pop\n    /* \"contracts/_X.sol\":248:258  _ownerAddr */\n  dup1\n    /* \"contracts/_X.sol\":235:245  tweetowner */\n  0x01\n  0x00\n    /* \"contracts/_X.sol\":235:258  tweetowner = _ownerAddr */\n  0x0100\n  exp\n  dup2\n  sload\n  dup2\n  0xffffffffffffffffffffffffffffffffffffffff\n  mul\n  not\n  and\n  swap1\n  dup4\n  0xffffffffffffffffffffffffffffffffffffffff\n  and\n  mul\n  or\n  swap1\n  sstore\n  pop\n    /* \"contracts/_X.sol\":173:265  constructor(address _ownerAddr) Ownable(_ownerAddr) {... */\n  pop\n    /* \"contracts/_X.sol\":111:2987  contract X is Ownable {... */\n  jump(tag_13)\n    /* \"@openzeppelin/contracts/access/Ownable.sol\":2912:3099  function _transferOwnership(address newOwner) internal virtual {... */\ntag_11:\n    /* \"@openzeppelin/contracts/access/Ownable.sol\":2985:3001  address oldOwner */\n  0x00\n    /* \"@openzeppelin/contracts/access/Ownable.sol\":3004:3010  _owner */\n  0x00\n  0x00\n  swap1\n  sload\n  swap1\n  0x0100\n  exp\n  swap1\n  div\n  0xffffffffffffffffffffffffffffffffffffffff\n  and\n    /* \"@openzeppelin/contracts/access/Ownable.sol\":2985:3010  address oldOwner = _owner */\n  swap1\n  pop\n    /* \"@openzeppelin/contracts/access/Ownable.sol\":3029:3037  newOwner */\n  dup2\n    /* \"@openzeppelin/contracts/access/Ownable.sol\":3020:3026  _owner */\n  0x00\n  0x00\n    /* \"@openzeppelin/contracts/access/Ownable.sol\":3020:3037  _owner = newOwner */\n  0x0100\n  exp\n  dup2\n  sload\n  dup2\n  0xffffffffffffffffffffffffffffffffffffffff\n  mul\n  not\n  and\n  swap1\n  dup4\n  0xffffffffffffffffffffffffffffffffffffffff\n  and\n  mul\n  or\n  swap1\n  sstore\n  pop\n    /* \"@openzeppelin/contracts/access/Ownable.sol\":3083:3091  newOwner */\n  dup2\n    /* \"@openzeppelin/contracts/access/Ownable.sol\":3052:3092  OwnershipTransferred(oldOwner, newOwner) */\n  0xffffffffffffffffffffffffffffffffffffffff\n  and\n    /* \"@openzeppelin/contracts/access/Ownable.sol\":3073:3081  oldOwner */\n  dup2\n    /* \"@openzeppelin/contracts/access/Ownable.sol\":3052:3092  OwnershipTransferred(oldOwner, newOwner) */\n  0xffffffffffffffffffffffffffffffffffffffff\n  and\n  0x8be0079c531659141344cd1fd0a4f28419497f9722a3daafe3b4186f6b6457e0\n  mload(0x40)\n  mload(0x40)\n  dup1\n  swap2\n  sub\n  swap1\n  log3\n    /* \"@openzeppelin/contracts/access/Ownable.sol\":2975:3099  {... */\n  pop\n    /* \"@openzeppelin/contracts/access/Ownable.sol\":2912:3099  function _transferOwnership(address newOwner) internal virtual {... */\n  pop\n  jump\t// out\n    /* \"#utility.yul\":88:205   */\ntag_16:\n    /* \"#utility.yul\":197:198   */\n  0x00\n    /* \"#utility.yul\":194:195   */\n  0x00\n    /* \"#utility.yul\":187:199   */\n  revert\n    /* \"#utility.yul\":334:460   */\ntag_18:\n    /* \"#utility.yul\":371:378   */\n  0x00\n    /* \"#utility.yul\":411:453   */\n  0xffffffffffffffffffffffffffffffffffffffff\n    /* \"#utility.yul\":404:409   */\n  dup3\n    /* \"#utility.yul\":400:454   */\n  and\n    /* \"#utility.yul\":389:454   */\n  swap1\n  pop\n    /* \"#utility.yul\":334:460   */\n  swap2\n  swap1\n  pop\n  jump\t// out\n    /* \"#utility.yul\":466:562   */\ntag_19:\n    /* \"#utility.yul\":503:510   */\n  0x00\n    /* \"#utility.yul\":532:556   */\n  tag_29\n    /* \"#utility.yul\":550:555   */\n  dup3\n    /* \"#utility.yul\":532:556   */\n  tag_18\n  jump\t// in\ntag_29:\n    /* \"#utility.yul\":521:556   */\n  swap1\n  pop\n    /* \"#utility.yul\":466:562   */\n  swap2\n  swap1\n  pop\n  jump\t// out\n    /* \"#utility.yul\":568:690   */\ntag_20:\n    /* \"#utility.yul\":641:665   */\n  tag_31\n    /* \"#utility.yul\":659:664   */\n  dup2\n    /* \"#utility.yul\":641:665   */\n  tag_19\n  jump\t// in\ntag_31:\n    /* \"#utility.yul\":634:639   */\n  dup2\n    /* \"#utility.yul\":631:666   */\n  eq\n    /* \"#utility.yul\":621:684   */\n  tag_32\n  jumpi\n    /* \"#utility.yul\":680:681   */\n  0x00\n    /* \"#utility.yul\":677:678   */\n  0x00\n    /* \"#utility.yul\":670:682   */\n  revert\n    /* \"#utility.yul\":621:684   */\ntag_32:\n    /* \"#utility.yul\":568:690   */\n  pop\n  jump\t// out\n    /* \"#utility.yul\":696:839   */\ntag_21:\n    /* \"#utility.yul\":753:758   */\n  0x00\n    /* \"#utility.yul\":784:790   */\n  dup2\n    /* \"#utility.yul\":778:791   */\n  mload\n    /* \"#utility.yul\":769:791   */\n  swap1\n  pop\n    /* \"#utility.yul\":800:833   */\n  tag_34\n    /* \"#utility.yul\":827:832   */\n  dup2\n    /* \"#utility.yul\":800:833   */\n  tag_20\n  jump\t// in\ntag_34:\n    /* \"#utility.yul\":696:839   */\n  swap3\n  swap2\n  pop\n  pop\n  jump\t// out\n    /* \"#utility.yul\":845:1196   */\ntag_3:\n    /* \"#utility.yul\":915:921   */\n  0x00\n    /* \"#utility.yul\":964:966   */\n  0x20\n    /* \"#utility.yul\":952:961   */\n  dup3\n    /* \"#utility.yul\":943:950   */\n  dup5\n    /* \"#utility.yul\":939:962   */\n  sub\n    /* \"#utility.yul\":935:967   */\n  slt\n    /* \"#utility.yul\":932:1051   */\n  iszero\n  tag_36\n  jumpi\n    /* \"#utility.yul\":970:1049   */\n  tag_37\n  tag_16\n  jump\t// in\ntag_37:\n    /* \"#utility.yul\":932:1051   */\ntag_36:\n    /* \"#utility.yul\":1090:1091   */\n  0x00\n    /* \"#utility.yul\":1115:1179   */\n  tag_38\n    /* \"#utility.yul\":1171:1178   */\n  dup5\n    /* \"#utility.yul\":1162:1168   */\n  dup3\n    /* \"#utility.yul\":1151:1160   */\n  dup6\n    /* \"#utility.yul\":1147:1169   */\n  add\n    /* \"#utility.yul\":1115:1179   */\n  tag_21\n  jump\t// in\ntag_38:\n    /* \"#utility.yul\":1105:1179   */\n  swap2\n  pop\n    /* \"#utility.yul\":1061:1189   */\n  pop\n    /* \"#utility.yul\":845:1196   */\n  swap3\n  swap2\n  pop\n  pop\n  jump\t// out\n    /* \"#utility.yul\":1202:1320   */\ntag_22:\n    /* \"#utility.yul\":1289:1313   */\n  tag_40\n    /* \"#utility.yul\":1307:1312   */\n  dup2\n    /* \"#utility.yul\":1289:1313   */\n  tag_19\n  jump\t// in\ntag_40:\n    /* \"#utility.yul\":1284:1287   */\n  dup3\n    /* \"#utility.yul\":1277:1314   */\n  mstore\n    /* \"#utility.yul\":1202:1320   */\n  pop\n  pop\n  jump\t// out\n    /* \"#utility.yul\":1326:1548   */\ntag_9:\n    /* \"#utility.yul\":1419:1423   */\n  0x00\n    /* \"#utility.yul\":1457:1459   */\n  0x20\n    /* \"#utility.yul\":1446:1455   */\n  dup3\n    /* \"#utility.yul\":1442:1460   */\n  add\n    /* \"#utility.yul\":1434:1460   */\n  swap1\n  pop\n    /* \"#utility.yul\":1470:1541   */\n  tag_42\n    /* \"#utility.yul\":1538:1539   */\n  0x00\n    /* \"#utility.yul\":1527:1536   */\n  dup4\n    /* \"#utility.yul\":1523:1540   */\n  add\n    /* \"#utility.yul\":1514:1520   */\n  dup5\n    /* \"#utility.yul\":1470:1541   */\n  tag_22\n  jump\t// in\ntag_42:\n    /* \"#utility.yul\":1326:1548   */\n  swap3\n  swap2\n  pop\n  pop\n  jump\t// out\n    /* \"contracts/_X.sol\":111:2987  contract X is Ownable {... */\ntag_13:\n  dataSize(sub_0)\n  dup1\n  dataOffset(sub_0)\n  0x00\n  codecopy\n  0x00\n  return\nstop\n\nsub_0: assembly {\n        /* \"contracts/_X.sol\":111:2987  contract X is Ownable {... */\n      mstore(0x40, 0x80)\n      callvalue\n      dup1\n      iszero\n      tag_1\n      jumpi\n      revert(0x00, 0x00)\n    tag_1:\n      pop\n      jumpi(tag_2, lt(calldatasize, 0x04))\n      shr(0xe0, calldataload(0x00))\n      dup1\n      0x93f72685\n      gt\n      tag_15\n      jumpi\n      dup1\n      0x93f72685\n      eq\n      tag_9\n      jumpi\n      dup1\n      0xb8f35cd7\n      eq\n      tag_10\n      jumpi\n      dup1\n      0xbb44480e\n      eq\n      tag_11\n      jumpi\n      dup1\n      0xd29557fe\n      eq\n      tag_12\n      jumpi\n      dup1\n      0xf060380f\n      eq\n      tag_13\n      jumpi\n      dup1\n      0xf2fde38b\n      eq\n      tag_14\n      jumpi\n      jump(tag_2)\n    tag_15:\n      dup1\n      0x05a1b4a9\n      eq\n      tag_3\n      jumpi\n      dup1\n      0x0956848d\n      eq\n      tag_4\n      jumpi\n      dup1\n      0x3b6893a0\n      eq\n      tag_5\n      jumpi\n      dup1\n      0x715018a6\n      eq\n      tag_6\n      jumpi\n      dup1\n      0x7ecff119\n      eq\n      tag_7\n      jumpi\n      dup1\n      0x8da5cb5b\n      eq\n      tag_8\n      jumpi\n    tag_2:\n      revert(0x00, 0x00)\n        /* \"contracts/_X.sol\":440:481  mapping(address => tweet[]) public tweets */\n    tag_3:\n      tag_16\n      0x04\n      dup1\n      calldatasize\n      sub\n      dup2\n      add\n      swap1\n      tag_17\n      swap2\n      swap1\n      tag_18\n      jump\t// in\n    tag_17:\n      tag_19\n      jump\t// in\n    tag_16:\n      mload(0x40)\n      tag_20\n      swap7\n      swap6\n      swap5\n      swap4\n      swap3\n      swap2\n      swap1\n      tag_21\n      jump\t// in\n    tag_20:\n      mload(0x40)\n      dup1\n      swap2\n      sub\n      swap1\n      return\n        /* \"contracts/_X.sol\":2046:2137  function deletePost(address addr, uint256 i) public {... */\n    tag_4:\n      tag_22\n      0x04\n      dup1\n      calldatasize\n      sub\n      dup2\n      add\n      swap1\n      tag_23\n      swap2\n      swap1\n      tag_18\n      jump\t// in\n    tag_23:\n      tag_24\n      jump\t// in\n    tag_22:\n      stop\n        /* \"contracts/_X.sol\":1028:1163  function increaseTweetLengthfx(uint256 ilength)... */\n    tag_5:\n      tag_25\n      0x04\n      dup1\n      calldatasize\n      sub\n      dup2\n      add\n      swap1\n      tag_26\n      swap2\n      swap1\n      tag_27\n      jump\t// in\n    tag_26:\n      tag_28\n      jump\t// in\n    tag_25:\n      stop\n        /* \"@openzeppelin/contracts/access/Ownable.sol\":2293:2394  function renounceOwnership() public virtual onlyOwner {... */\n    tag_6:\n      tag_29\n      tag_30\n      jump\t// in\n    tag_29:\n      stop\n        /* \"contracts/_X.sol\":1788:1927  function getPost(address addr, uint256 i)... */\n    tag_7:\n      tag_31\n      0x04\n      dup1\n      calldatasize\n      sub\n      dup2\n      add\n      swap1\n      tag_32\n      swap2\n      swap1\n      tag_18\n      jump\t// in\n    tag_32:\n      tag_33\n      jump\t// in\n    tag_31:\n      mload(0x40)\n      tag_34\n      swap2\n      swap1\n      tag_35\n      jump\t// in\n    tag_34:\n      mload(0x40)\n      dup1\n      swap2\n      sub\n      swap1\n      return\n        /* \"@openzeppelin/contracts/access/Ownable.sol\":1638:1723  function owner() public view virtual returns (address) {... */\n    tag_8:\n      tag_36\n      tag_37\n      jump\t// in\n    tag_36:\n      mload(0x40)\n      tag_38\n      swap2\n      swap1\n      tag_39\n      jump\t// in\n    tag_38:\n      mload(0x40)\n      dup1\n      swap2\n      sub\n      swap1\n      return\n        /* \"contracts/_X.sol\":1933:2040  function getAllPost(address addr) public view returns (tweet[] memory) {... */\n    tag_9:\n      tag_40\n      0x04\n      dup1\n      calldatasize\n      sub\n      dup2\n      add\n      swap1\n      tag_41\n      swap2\n      swap1\n      tag_42\n      jump\t// in\n    tag_41:\n      tag_43\n      jump\t// in\n    tag_40:\n      mload(0x40)\n      tag_44\n      swap2\n      swap1\n      tag_45\n      jump\t// in\n    tag_44:\n      mload(0x40)\n      dup1\n      swap2\n      sub\n      swap1\n      return\n        /* \"contracts/_X.sol\":2677:2985  function getalllikes(address post) public view returns (uint256) {... */\n    tag_10:\n      tag_46\n      0x04\n      dup1\n      calldatasize\n      sub\n      dup2\n      add\n      swap1\n      tag_47\n      swap2\n      swap1\n      tag_42\n      jump\t// in\n    tag_47:\n      tag_48\n      jump\t// in\n    tag_46:\n      mload(0x40)\n      tag_49\n      swap2\n      swap1\n      tag_50\n      jump\t// in\n    tag_49:\n      mload(0x40)\n      dup1\n      swap2\n      sub\n      swap1\n      return\n        /* \"contracts/_X.sol\":2143:2367  function likepost(address post, uint256 i) public {... */\n    tag_11:\n      tag_51\n      0x04\n      dup1\n      calldatasize\n      sub\n      dup2\n      add\n      swap1\n      tag_52\n      swap2\n      swap1\n      tag_18\n      jump\t// in\n    tag_52:\n      tag_53\n      jump\t// in\n    tag_51:\n      stop\n        /* \"contracts/_X.sol\":1169:1782  function Post(string memory text) public {... */\n    tag_12:\n      tag_54\n      0x04\n      dup1\n      calldatasize\n      sub\n      dup2\n      add\n      swap1\n      tag_55\n      swap2\n      swap1\n      tag_56\n      jump\t// in\n    tag_55:\n      tag_57\n      jump\t// in\n    tag_54:\n      stop\n        /* \"contracts/_X.sol\":2373:2671  function dislikepost(address post, uint256 i) public {... */\n    tag_13:\n      tag_58\n      0x04\n      dup1\n      calldatasize\n      sub\n      dup2\n      add\n      swap1\n      tag_59\n      swap2\n      swap1\n      tag_18\n      jump\t// in\n    tag_59:\n      tag_60\n      jump\t// in\n    tag_58:\n      stop\n        /* \"@openzeppelin/contracts/access/Ownable.sol\":2543:2758  function transferOwnership(address newOwner) public virtual onlyOwner {... */\n    tag_14:\n      tag_61\n      0x04\n      dup1\n      calldatasize\n      sub\n      dup2\n      add\n      swap1\n      tag_62\n      swap2\n      swap1\n      tag_42\n      jump\t// in\n    tag_62:\n      tag_63\n      jump\t// in\n    tag_61:\n      stop\n        /* \"contracts/_X.sol\":440:481  mapping(address => tweet[]) public tweets */\n    tag_19:\n      mstore(0x20, 0x02)\n      dup2\n      0x00\n      mstore\n      keccak256(0x00, 0x40)\n      dup2\n      dup2\n      sload\n      dup2\n      lt\n      tag_64\n      jumpi\n      0x00\n      dup1\n      revert\n    tag_64:\n      swap1\n      0x00\n      mstore\n      keccak256(0x00, 0x20)\n      swap1\n      0x06\n      mul\n      add\n      0x00\n      swap2\n      pop\n      swap2\n      pop\n      pop\n      dup1\n      0x00\n      add\n      sload\n      swap1\n      dup1\n      0x01\n      add\n      0x00\n      swap1\n      sload\n      swap1\n      0x0100\n      exp\n      swap1\n      div\n      0xffffffffffffffffffffffffffffffffffffffff\n      and\n      swap1\n      dup1\n      0x02\n      add\n      dup1\n      sload\n      tag_66\n      swap1\n      tag_67\n      jump\t// in\n    tag_66:\n      dup1\n      0x1f\n      add\n      0x20\n      dup1\n      swap2\n      div\n      mul\n      0x20\n      add\n      mload(0x40)\n      swap1\n      dup2\n      add\n      0x40\n      mstore\n      dup1\n      swap3\n      swap2\n      swap1\n      dup2\n      dup2\n      mstore\n      0x20\n      add\n      dup3\n      dup1\n      sload\n      tag_68\n      swap1\n      tag_67\n      jump\t// in\n    tag_68:\n      dup1\n      iszero\n      tag_69\n      jumpi\n      dup1\n      0x1f\n      lt\n      tag_70\n      jumpi\n      0x0100\n      dup1\n      dup4\n      sload\n      div\n      mul\n      dup4\n      mstore\n      swap2\n      0x20\n      add\n      swap2\n      jump(tag_69)\n    tag_70:\n      dup3\n      add\n      swap2\n      swap1\n      0x00\n      mstore\n      keccak256(0x00, 0x20)\n      swap1\n    tag_71:\n      dup2\n      sload\n      dup2\n      mstore\n      swap1\n      0x01\n      add\n      swap1\n      0x20\n      add\n      dup1\n      dup4\n      gt\n      tag_71\n      jumpi\n      dup3\n      swap1\n      sub\n      0x1f\n      and\n      dup3\n      add\n      swap2\n    tag_69:\n      pop\n      pop\n      pop\n      pop\n      pop\n      swap1\n      dup1\n      0x03\n      add\n      sload\n      swap1\n      dup1\n      0x04\n      add\n      sload\n      swap1\n      dup1\n      0x05\n      add\n      sload\n      swap1\n      pop\n      dup7\n      jump\t// out\n        /* \"contracts/_X.sol\":2046:2137  function deletePost(address addr, uint256 i) public {... */\n    tag_24:\n        /* \"contracts/_X.sol\":2115:2121  tweets */\n      0x02\n        /* \"contracts/_X.sol\":2115:2127  tweets[addr] */\n      0x00\n        /* \"contracts/_X.sol\":2122:2126  addr */\n      dup4\n        /* \"contracts/_X.sol\":2115:2127  tweets[addr] */\n      0xffffffffffffffffffffffffffffffffffffffff\n      and\n      0xffffffffffffffffffffffffffffffffffffffff\n      and\n      dup2\n      mstore\n      0x20\n      add\n      swap1\n      dup2\n      mstore\n      0x20\n      add\n      0x00\n      keccak256\n        /* \"contracts/_X.sol\":2128:2129  i */\n      dup2\n        /* \"contracts/_X.sol\":2115:2130  tweets[addr][i] */\n      dup2\n      sload\n      dup2\n      lt\n      tag_73\n      jumpi\n      tag_74\n      tag_75\n      jump\t// in\n    tag_74:\n    tag_73:\n      swap1\n      0x00\n      mstore\n      keccak256(0x00, 0x20)\n      swap1\n      0x06\n      mul\n      add\n      0x00\n        /* \"contracts/_X.sol\":2108:2130  delete tweets[addr][i] */\n      0x00\n      dup3\n      add\n      0x00\n      swap1\n      sstore\n      0x01\n      dup3\n      add\n      exp(0x0100, 0x00)\n      dup2\n      sload\n      swap1\n      0xffffffffffffffffffffffffffffffffffffffff\n      mul\n      not\n      and\n      swap1\n      sstore\n      0x02\n      dup3\n      add\n      0x00\n      tag_77\n      swap2\n      swap1\n      tag_78\n      jump\t// in\n    tag_77:\n      0x03\n      dup3\n      add\n      0x00\n      swap1\n      sstore\n      0x04\n      dup3\n      add\n      0x00\n      swap1\n      sstore\n      0x05\n      dup3\n      add\n      0x00\n      swap1\n      sstore\n      pop\n      pop\n        /* \"contracts/_X.sol\":2046:2137  function deletePost(address addr, uint256 i) public {... */\n      pop\n      pop\n      jump\t// out\n        /* \"contracts/_X.sol\":1028:1163  function increaseTweetLengthfx(uint256 ilength)... */\n    tag_28:\n        /* \"contracts/_X.sol\":934:947  _checkOwner() */\n      tag_80\n        /* \"contracts/_X.sol\":934:945  _checkOwner */\n      tag_81\n        /* \"contracts/_X.sol\":934:947  _checkOwner() */\n      jump\t// in\n    tag_80:\n        /* \"contracts/_X.sol\":1149:1156  ilength */\n      dup1\n        /* \"contracts/_X.sol\":1130:1146  MAX_TWEET_LENGTH */\n      0x03\n        /* \"contracts/_X.sol\":1130:1156  MAX_TWEET_LENGTH = ilength */\n      dup2\n      swap1\n      sstore\n      pop\n        /* \"contracts/_X.sol\":1028:1163  function increaseTweetLengthfx(uint256 ilength)... */\n      pop\n      jump\t// out\n        /* \"@openzeppelin/contracts/access/Ownable.sol\":2293:2394  function renounceOwnership() public virtual onlyOwner {... */\n    tag_30:\n        /* \"@openzeppelin/contracts/access/Ownable.sol\":1531:1544  _checkOwner() */\n      tag_84\n        /* \"@openzeppelin/contracts/access/Ownable.sol\":1531:1542  _checkOwner */\n      tag_81\n        /* \"@openzeppelin/contracts/access/Ownable.sol\":1531:1544  _checkOwner() */\n      jump\t// in\n    tag_84:\n        /* \"@openzeppelin/contracts/access/Ownable.sol\":2357:2387  _transferOwnership(address(0)) */\n      tag_86\n        /* \"@openzeppelin/contracts/access/Ownable.sol\":2384:2385  0 */\n      0x00\n        /* \"@openzeppelin/contracts/access/Ownable.sol\":2357:2375  _transferOwnership */\n      tag_87\n        /* \"@openzeppelin/contracts/access/Ownable.sol\":2357:2387  _transferOwnership(address(0)) */\n      jump\t// in\n    tag_86:\n        /* \"@openzeppelin/contracts/access/Ownable.sol\":2293:2394  function renounceOwnership() public virtual onlyOwner {... */\n      jump\t// out\n        /* \"contracts/_X.sol\":1788:1927  function getPost(address addr, uint256 i)... */\n    tag_33:\n        /* \"contracts/_X.sol\":1875:1887  tweet memory */\n      tag_88\n      tag_89\n      jump\t// in\n    tag_88:\n        /* \"contracts/_X.sol\":1905:1911  tweets */\n      0x02\n        /* \"contracts/_X.sol\":1905:1917  tweets[addr] */\n      0x00\n        /* \"contracts/_X.sol\":1912:1916  addr */\n      dup5\n        /* \"contracts/_X.sol\":1905:1917  tweets[addr] */\n      0xffffffffffffffffffffffffffffffffffffffff\n      and\n      0xffffffffffffffffffffffffffffffffffffffff\n      and\n      dup2\n      mstore\n      0x20\n      add\n      swap1\n      dup2\n      mstore\n      0x20\n      add\n      0x00\n      keccak256\n        /* \"contracts/_X.sol\":1918:1919  i */\n      dup3\n        /* \"contracts/_X.sol\":1905:1920  tweets[addr][i] */\n      dup2\n      sload\n      dup2\n      lt\n      tag_91\n      jumpi\n      tag_92\n      tag_75\n      jump\t// in\n    tag_92:\n    tag_91:\n      swap1\n      0x00\n      mstore\n      keccak256(0x00, 0x20)\n      swap1\n      0x06\n      mul\n      add\n        /* \"contracts/_X.sol\":1898:1920  return tweets[addr][i] */\n      mload(0x40)\n      dup1\n      0xc0\n      add\n      0x40\n      mstore\n      swap1\n      dup2\n      0x00\n      dup3\n      add\n      sload\n      dup2\n      mstore\n      0x20\n      add\n      0x01\n      dup3\n      add\n      0x00\n      swap1\n      sload\n      swap1\n      0x0100\n      exp\n      swap1\n      div\n      0xffffffffffffffffffffffffffffffffffffffff\n      and\n      0xffffffffffffffffffffffffffffffffffffffff\n      and\n      0xffffffffffffffffffffffffffffffffffffffff\n      and\n      dup2\n      mstore\n      0x20\n      add\n      0x02\n      dup3\n      add\n      dup1\n      sload\n      tag_94\n      swap1\n      tag_67\n      jump\t// in\n    tag_94:\n      dup1\n      0x1f\n      add\n      0x20\n      dup1\n      swap2\n      div\n      mul\n      0x20\n      add\n      mload(0x40)\n      swap1\n      dup2\n      add\n      0x40\n      mstore\n      dup1\n      swap3\n      swap2\n      swap1\n      dup2\n      dup2\n      mstore\n      0x20\n      add\n      dup3\n      dup1\n      sload\n      tag_95\n      swap1\n      tag_67\n      jump\t// in\n    tag_95:\n      dup1\n      iszero\n      tag_96\n      jumpi\n      dup1\n      0x1f\n      lt\n      tag_97\n      jumpi\n      0x0100\n      dup1\n      dup4\n      sload\n      div\n      mul\n      dup4\n      mstore\n      swap2\n      0x20\n      add\n      swap2\n      jump(tag_96)\n    tag_97:\n      dup3\n      add\n      swap2\n      swap1\n      0x00\n      mstore\n      keccak256(0x00, 0x20)\n      swap1\n    tag_98:\n      dup2\n      sload\n      dup2\n      mstore\n      swap1\n      0x01\n      add\n      swap1\n      0x20\n      add\n      dup1\n      dup4\n      gt\n      tag_98\n      jumpi\n      dup3\n      swap1\n      sub\n      0x1f\n      and\n      dup3\n      add\n      swap2\n    tag_96:\n      pop\n      pop\n      pop\n      pop\n      pop\n      dup2\n      mstore\n      0x20\n      add\n      0x03\n      dup3\n      add\n      sload\n      dup2\n      mstore\n      0x20\n      add\n      0x04\n      dup3\n      add\n      sload\n      dup2\n      mstore\n      0x20\n      add\n      0x05\n      dup3\n      add\n      sload\n      dup2\n      mstore\n      pop\n      pop\n      swap1\n      pop\n        /* \"contracts/_X.sol\":1788:1927  function getPost(address addr, uint256 i)... */\n      swap3\n      swap2\n      pop\n      pop\n      jump\t// out\n        /* \"@openzeppelin/contracts/access/Ownable.sol\":1638:1723  function owner() public view virtual returns (address) {... */\n    tag_37:\n        /* \"@openzeppelin/contracts/access/Ownable.sol\":1684:1691  address */\n      0x00\n        /* \"@openzeppelin/contracts/access/Ownable.sol\":1710:1716  _owner */\n      0x00\n      0x00\n      swap1\n      sload\n      swap1\n      0x0100\n      exp\n      swap1\n      div\n      0xffffffffffffffffffffffffffffffffffffffff\n      and\n        /* \"@openzeppelin/contracts/access/Ownable.sol\":1703:1716  return _owner */\n      swap1\n      pop\n        /* \"@openzeppelin/contracts/access/Ownable.sol\":1638:1723  function owner() public view virtual returns (address) {... */\n      swap1\n      jump\t// out\n        /* \"contracts/_X.sol\":1933:2040  function getAllPost(address addr) public view returns (tweet[] memory) {... */\n    tag_43:\n        /* \"contracts/_X.sol\":1988:2002  tweet[] memory */\n      0x60\n        /* \"contracts/_X.sol\":2021:2027  tweets */\n      0x02\n        /* \"contracts/_X.sol\":2021:2033  tweets[addr] */\n      0x00\n        /* \"contracts/_X.sol\":2028:2032  addr */\n      dup4\n        /* \"contracts/_X.sol\":2021:2033  tweets[addr] */\n      0xffffffffffffffffffffffffffffffffffffffff\n      and\n      0xffffffffffffffffffffffffffffffffffffffff\n      and\n      dup2\n      mstore\n      0x20\n      add\n      swap1\n      dup2\n      mstore\n      0x20\n      add\n      0x00\n      keccak256\n        /* \"contracts/_X.sol\":2014:2033  return tweets[addr] */\n      dup1\n      sload\n      dup1\n      0x20\n      mul\n      0x20\n      add\n      mload(0x40)\n      swap1\n      dup2\n      add\n      0x40\n      mstore\n      dup1\n      swap3\n      swap2\n      swap1\n      dup2\n      dup2\n      mstore\n      0x20\n      add\n      0x00\n      swap1\n    tag_101:\n      dup3\n      dup3\n      lt\n      iszero\n      tag_102\n      jumpi\n      dup4\n      dup3\n      swap1\n      0x00\n      mstore\n      keccak256(0x00, 0x20)\n      swap1\n      0x06\n      mul\n      add\n      mload(0x40)\n      dup1\n      0xc0\n      add\n      0x40\n      mstore\n      swap1\n      dup2\n      0x00\n      dup3\n      add\n      sload\n      dup2\n      mstore\n      0x20\n      add\n      0x01\n      dup3\n      add\n      0x00\n      swap1\n      sload\n      swap1\n      0x0100\n      exp\n      swap1\n      div\n      0xffffffffffffffffffffffffffffffffffffffff\n      and\n      0xffffffffffffffffffffffffffffffffffffffff\n      and\n      0xffffffffffffffffffffffffffffffffffffffff\n      and\n      dup2\n      mstore\n      0x20\n      add\n      0x02\n      dup3\n      add\n      dup1\n      sload\n      tag_104\n      swap1\n      tag_67\n      jump\t// in\n    tag_104:\n      dup1\n      0x1f\n      add\n      0x20\n      dup1\n      swap2\n      div\n      mul\n      0x20\n      add\n      mload(0x40)\n      swap1\n      dup2\n      add\n      0x40\n      mstore\n      dup1\n      swap3\n      swap2\n      swap1\n      dup2\n      dup2\n      mstore\n      0x20\n      add\n      dup3\n      dup1\n      sload\n      tag_105\n      swap1\n      tag_67\n      jump\t// in\n    tag_105:\n      dup1\n      iszero\n      tag_106\n      jumpi\n      dup1\n      0x1f\n      lt\n      tag_107\n      jumpi\n      0x0100\n      dup1\n      dup4\n      sload\n      div\n      mul\n      dup4\n      mstore\n      swap2\n      0x20\n      add\n      swap2\n      jump(tag_106)\n    tag_107:\n      dup3\n      add\n      swap2\n      swap1\n      0x00\n      mstore\n      keccak256(0x00, 0x20)\n      swap1\n    tag_108:\n      dup2\n      sload\n      dup2\n      mstore\n      swap1\n      0x01\n      add\n      swap1\n      0x20\n      add\n      dup1\n      dup4\n      gt\n      tag_108\n      jumpi\n      dup3\n      swap1\n      sub\n      0x1f\n      and\n      dup3\n      add\n      swap2\n    tag_106:\n      pop\n      pop\n      pop\n      pop\n      pop\n      dup2\n      mstore\n      0x20\n      add\n      0x03\n      dup3\n      add\n      sload\n      dup2\n      mstore\n      0x20\n      add\n      0x04\n      dup3\n      add\n      sload\n      dup2\n      mstore\n      0x20\n      add\n      0x05\n      dup3\n      add\n      sload\n      dup2\n      mstore\n      pop\n      pop\n      dup2\n      mstore\n      0x20\n      add\n      swap1\n      0x01\n      add\n      swap1\n      jump(tag_101)\n    tag_102:\n      pop\n      pop\n      pop\n      pop\n      swap1\n      pop\n        /* \"contracts/_X.sol\":1933:2040  function getAllPost(address addr) public view returns (tweet[] memory) {... */\n      swap2\n      swap1\n      pop\n      jump\t// out\n        /* \"contracts/_X.sol\":2677:2985  function getalllikes(address post) public view returns (uint256) {... */\n    tag_48:\n        /* \"contracts/_X.sol\":2733:2740  uint256 */\n      0x00\n        /* \"contracts/_X.sol\":2752:2768  uint256 alllikes */\n      0x00\n        /* \"contracts/_X.sol\":2771:2772  0 */\n      0x00\n        /* \"contracts/_X.sol\":2752:2772  uint256 alllikes = 0 */\n      swap1\n      pop\n        /* \"contracts/_X.sol\":2787:2796  uint256 i */\n      0x00\n        /* \"contracts/_X.sol\":2782:2954  for (uint256 i; i < tweets[post].length; i++) {... */\n    tag_110:\n        /* \"contracts/_X.sol\":2802:2808  tweets */\n      0x02\n        /* \"contracts/_X.sol\":2802:2814  tweets[post] */\n      0x00\n        /* \"contracts/_X.sol\":2809:2813  post */\n      dup6\n        /* \"contracts/_X.sol\":2802:2814  tweets[post] */\n      0xffffffffffffffffffffffffffffffffffffffff\n      and\n      0xffffffffffffffffffffffffffffffffffffffff\n      and\n      dup2\n      mstore\n      0x20\n      add\n      swap1\n      dup2\n      mstore\n      0x20\n      add\n      0x00\n      keccak256\n        /* \"contracts/_X.sol\":2802:2821  tweets[post].length */\n      dup1\n      sload\n      swap1\n      pop\n        /* \"contracts/_X.sol\":2798:2799  i */\n      dup2\n        /* \"contracts/_X.sol\":2798:2821  i < tweets[post].length */\n      lt\n        /* \"contracts/_X.sol\":2782:2954  for (uint256 i; i < tweets[post].length; i++) {... */\n      iszero\n      tag_111\n      jumpi\n        /* \"contracts/_X.sol\":2872:2876  post */\n      dup4\n        /* \"contracts/_X.sol\":2846:2876  tweets[post][i].author == post */\n      0xffffffffffffffffffffffffffffffffffffffff\n      and\n        /* \"contracts/_X.sol\":2846:2852  tweets */\n      0x02\n        /* \"contracts/_X.sol\":2846:2858  tweets[post] */\n      0x00\n        /* \"contracts/_X.sol\":2853:2857  post */\n      dup7\n        /* \"contracts/_X.sol\":2846:2858  tweets[post] */\n      0xffffffffffffffffffffffffffffffffffffffff\n      and\n      0xffffffffffffffffffffffffffffffffffffffff\n      and\n      dup2\n      mstore\n      0x20\n      add\n      swap1\n      dup2\n      mstore\n      0x20\n      add\n      0x00\n      keccak256\n        /* \"contracts/_X.sol\":2859:2860  i */\n      dup3\n        /* \"contracts/_X.sol\":2846:2861  tweets[post][i] */\n      dup2\n      sload\n      dup2\n      lt\n      tag_113\n      jumpi\n      tag_114\n      tag_75\n      jump\t// in\n    tag_114:\n    tag_113:\n      swap1\n      0x00\n      mstore\n      keccak256(0x00, 0x20)\n      swap1\n      0x06\n      mul\n      add\n        /* \"contracts/_X.sol\":2846:2868  tweets[post][i].author */\n      0x01\n      add\n      0x00\n      swap1\n      sload\n      swap1\n      0x0100\n      exp\n      swap1\n      div\n      0xffffffffffffffffffffffffffffffffffffffff\n      and\n        /* \"contracts/_X.sol\":2846:2876  tweets[post][i].author == post */\n      0xffffffffffffffffffffffffffffffffffffffff\n      and\n      sub\n        /* \"contracts/_X.sol\":2842:2944  if (tweets[post][i].author == post) {... */\n      tag_116\n      jumpi\n        /* \"contracts/_X.sol\":2908:2914  tweets */\n      0x02\n        /* \"contracts/_X.sol\":2908:2920  tweets[post] */\n      0x00\n        /* \"contracts/_X.sol\":2915:2919  post */\n      dup6\n        /* \"contracts/_X.sol\":2908:2920  tweets[post] */\n      0xffffffffffffffffffffffffffffffffffffffff\n      and\n      0xffffffffffffffffffffffffffffffffffffffff\n      and\n      dup2\n      mstore\n      0x20\n      add\n      swap1\n      dup2\n      mstore\n      0x20\n      add\n      0x00\n      keccak256\n        /* \"contracts/_X.sol\":2921:2922  i */\n      dup2\n        /* \"contracts/_X.sol\":2908:2923  tweets[post][i] */\n      dup2\n      sload\n      dup2\n      lt\n      tag_117\n      jumpi\n      tag_118\n      tag_75\n      jump\t// in\n    tag_118:\n    tag_117:\n      swap1\n      0x00\n      mstore\n      keccak256(0x00, 0x20)\n      swap1\n      0x06\n      mul\n      add\n        /* \"contracts/_X.sol\":2908:2929  tweets[post][i].likes */\n      0x03\n      add\n      sload\n        /* \"contracts/_X.sol\":2896:2929  alllikes += tweets[post][i].likes */\n      dup3\n      tag_120\n      swap2\n      swap1\n      tag_121\n      jump\t// in\n    tag_120:\n      swap2\n      pop\n        /* \"contracts/_X.sol\":2842:2944  if (tweets[post][i].author == post) {... */\n    tag_116:\n        /* \"contracts/_X.sol\":2823:2826  i++ */\n      dup1\n      dup1\n      0x01\n      add\n      swap2\n      pop\n      pop\n        /* \"contracts/_X.sol\":2782:2954  for (uint256 i; i < tweets[post].length; i++) {... */\n      jump(tag_110)\n    tag_111:\n      pop\n        /* \"contracts/_X.sol\":2970:2978  alllikes */\n      dup1\n        /* \"contracts/_X.sol\":2963:2978  return alllikes */\n      swap2\n      pop\n      pop\n        /* \"contracts/_X.sol\":2677:2985  function getalllikes(address post) public view returns (uint256) {... */\n      swap2\n      swap1\n      pop\n      jump\t// out\n        /* \"contracts/_X.sol\":2143:2367  function likepost(address post, uint256 i) public {... */\n    tag_53:\n        /* \"contracts/_X.sol\":2233:2234  i */\n      dup1\n        /* \"contracts/_X.sol\":2211:2217  tweets */\n      0x02\n        /* \"contracts/_X.sol\":2211:2223  tweets[post] */\n      0x00\n        /* \"contracts/_X.sol\":2218:2222  post */\n      dup5\n        /* \"contracts/_X.sol\":2211:2223  tweets[post] */\n      0xffffffffffffffffffffffffffffffffffffffff\n      and\n      0xffffffffffffffffffffffffffffffffffffffff\n      and\n      dup2\n      mstore\n      0x20\n      add\n      swap1\n      dup2\n      mstore\n      0x20\n      add\n      0x00\n      keccak256\n        /* \"contracts/_X.sol\":2224:2225  i */\n      dup3\n        /* \"contracts/_X.sol\":2211:2226  tweets[post][i] */\n      dup2\n      sload\n      dup2\n      lt\n      tag_123\n      jumpi\n      tag_124\n      tag_75\n      jump\t// in\n    tag_124:\n    tag_123:\n      swap1\n      0x00\n      mstore\n      keccak256(0x00, 0x20)\n      swap1\n      0x06\n      mul\n      add\n        /* \"contracts/_X.sol\":2211:2229  tweets[post][i].id */\n      0x00\n      add\n      sload\n        /* \"contracts/_X.sol\":2211:2234  tweets[post][i].id == i */\n      eq\n        /* \"contracts/_X.sol\":2203:2257  require(tweets[post][i].id == i, \"post doesnot found\") */\n      tag_126\n      jumpi\n      mload(0x40)\n      0x08c379a000000000000000000000000000000000000000000000000000000000\n      dup2\n      mstore\n      0x04\n      add\n      tag_127\n      swap1\n      tag_128\n      jump\t// in\n    tag_127:\n      mload(0x40)\n      dup1\n      swap2\n      sub\n      swap1\n      revert\n    tag_126:\n        /* \"contracts/_X.sol\":2267:2273  tweets */\n      0x02\n        /* \"contracts/_X.sol\":2267:2279  tweets[post] */\n      0x00\n        /* \"contracts/_X.sol\":2274:2278  post */\n      dup4\n        /* \"contracts/_X.sol\":2267:2279  tweets[post] */\n      0xffffffffffffffffffffffffffffffffffffffff\n      and\n      0xffffffffffffffffffffffffffffffffffffffff\n      and\n      dup2\n      mstore\n      0x20\n      add\n      swap1\n      dup2\n      mstore\n      0x20\n      add\n      0x00\n      keccak256\n        /* \"contracts/_X.sol\":2280:2281  i */\n      dup2\n        /* \"contracts/_X.sol\":2267:2282  tweets[post][i] */\n      dup2\n      sload\n      dup2\n      lt\n      tag_129\n      jumpi\n      tag_130\n      tag_75\n      jump\t// in\n    tag_130:\n    tag_129:\n      swap1\n      0x00\n      mstore\n      keccak256(0x00, 0x20)\n      swap1\n      0x06\n      mul\n      add\n        /* \"contracts/_X.sol\":2267:2288  tweets[post][i].likes */\n      0x03\n      add\n      0x00\n        /* \"contracts/_X.sol\":2267:2290  tweets[post][i].likes++ */\n      dup2\n      sload\n      dup1\n      swap3\n      swap2\n      swap1\n      tag_132\n      swap1\n      tag_133\n      jump\t// in\n    tag_132:\n      swap2\n      swap1\n      pop\n      sstore\n      pop\n        /* \"contracts/_X.sol\":2326:2336  msg.sender */\n      caller\n        /* \"contracts/_X.sol\":2306:2360  TweetLikes(i, post, msg.sender, tweets[post][i].likes) */\n      0xffffffffffffffffffffffffffffffffffffffff\n      and\n        /* \"contracts/_X.sol\":2320:2324  post */\n      dup3\n        /* \"contracts/_X.sol\":2306:2360  TweetLikes(i, post, msg.sender, tweets[post][i].likes) */\n      0xffffffffffffffffffffffffffffffffffffffff\n      and\n        /* \"contracts/_X.sol\":2317:2318  i */\n      dup3\n        /* \"contracts/_X.sol\":2306:2360  TweetLikes(i, post, msg.sender, tweets[post][i].likes) */\n      0xcca9faa0aac4013472c2978cdba3c8cb68cb71da4cb35324dc984c8f02abf65a\n        /* \"contracts/_X.sol\":2338:2344  tweets */\n      0x02\n        /* \"contracts/_X.sol\":2338:2350  tweets[post] */\n      0x00\n        /* \"contracts/_X.sol\":2345:2349  post */\n      dup8\n        /* \"contracts/_X.sol\":2338:2350  tweets[post] */\n      0xffffffffffffffffffffffffffffffffffffffff\n      and\n      0xffffffffffffffffffffffffffffffffffffffff\n      and\n      dup2\n      mstore\n      0x20\n      add\n      swap1\n      dup2\n      mstore\n      0x20\n      add\n      0x00\n      keccak256\n        /* \"contracts/_X.sol\":2351:2352  i */\n      dup6\n        /* \"contracts/_X.sol\":2338:2353  tweets[post][i] */\n      dup2\n      sload\n      dup2\n      lt\n      tag_134\n      jumpi\n      tag_135\n      tag_75\n      jump\t// in\n    tag_135:\n    tag_134:\n      swap1\n      0x00\n      mstore\n      keccak256(0x00, 0x20)\n      swap1\n      0x06\n      mul\n      add\n        /* \"contracts/_X.sol\":2338:2359  tweets[post][i].likes */\n      0x03\n      add\n      sload\n        /* \"contracts/_X.sol\":2306:2360  TweetLikes(i, post, msg.sender, tweets[post][i].likes) */\n      mload(0x40)\n      tag_137\n      swap2\n      swap1\n      tag_50\n      jump\t// in\n    tag_137:\n      mload(0x40)\n      dup1\n      swap2\n      sub\n      swap1\n      log4\n        /* \"contracts/_X.sol\":2143:2367  function likepost(address post, uint256 i) public {... */\n      pop\n      pop\n      jump\t// out\n        /* \"contracts/_X.sol\":1169:1782  function Post(string memory text) public {... */\n    tag_57:\n        /* \"contracts/_X.sol\":1262:1265  256 */\n      0x0100\n        /* \"contracts/_X.sol\":1247:1251  text */\n      dup2\n        /* \"contracts/_X.sol\":1241:1259  bytes(text).length */\n      mload\n        /* \"contracts/_X.sol\":1241:1265  bytes(text).length < 256 */\n      lt\n        /* \"contracts/_X.sol\":1220:1333  require(... */\n      tag_139\n      jumpi\n      mload(0x40)\n      0x08c379a000000000000000000000000000000000000000000000000000000000\n      dup2\n      mstore\n      0x04\n      add\n      tag_140\n      swap1\n      tag_141\n      jump\t// in\n    tag_140:\n      mload(0x40)\n      dup1\n      swap2\n      sub\n      swap1\n      revert\n    tag_139:\n        /* \"contracts/_X.sol\":1343:1365  tweet memory newtweets */\n      0x00\n        /* \"contracts/_X.sol\":1368:1574  tweet({... */\n      mload(0x40)\n      dup1\n      0xc0\n      add\n      0x40\n      mstore\n      dup1\n        /* \"contracts/_X.sol\":1392:1398  tweets */\n      0x02\n        /* \"contracts/_X.sol\":1392:1410  tweets[msg.sender] */\n      0x00\n        /* \"contracts/_X.sol\":1399:1409  msg.sender */\n      caller\n        /* \"contracts/_X.sol\":1392:1410  tweets[msg.sender] */\n      0xffffffffffffffffffffffffffffffffffffffff\n      and\n      0xffffffffffffffffffffffffffffffffffffffff\n      and\n      dup2\n      mstore\n      0x20\n      add\n      swap1\n      dup2\n      mstore\n      0x20\n      add\n      0x00\n      keccak256\n        /* \"contracts/_X.sol\":1392:1417  tweets[msg.sender].length */\n      dup1\n      sload\n      swap1\n      pop\n        /* \"contracts/_X.sol\":1368:1574  tweet({... */\n      dup2\n      mstore\n      0x20\n      add\n        /* \"contracts/_X.sol\":1439:1449  msg.sender */\n      caller\n        /* \"contracts/_X.sol\":1368:1574  tweet({... */\n      0xffffffffffffffffffffffffffffffffffffffff\n      and\n      dup2\n      mstore\n      0x20\n      add\n        /* \"contracts/_X.sol\":1472:1476  text */\n      dup4\n        /* \"contracts/_X.sol\":1368:1574  tweet({... */\n      dup2\n      mstore\n      0x20\n      add\n        /* \"contracts/_X.sol\":1497:1498  0 */\n      0x00\n        /* \"contracts/_X.sol\":1368:1574  tweet({... */\n      dup2\n      mstore\n      0x20\n      add\n        /* \"contracts/_X.sol\":1522:1523  0 */\n      0x00\n        /* \"contracts/_X.sol\":1368:1574  tweet({... */\n      dup2\n      mstore\n      0x20\n      add\n        /* \"contracts/_X.sol\":1548:1563  block.timestamp */\n      timestamp\n        /* \"contracts/_X.sol\":1368:1574  tweet({... */\n      dup2\n      mstore\n      pop\n        /* \"contracts/_X.sol\":1343:1574  tweet memory newtweets = tweet({... */\n      swap1\n      pop\n        /* \"contracts/_X.sol\":1584:1590  tweets */\n      0x02\n        /* \"contracts/_X.sol\":1584:1602  tweets[msg.sender] */\n      0x00\n        /* \"contracts/_X.sol\":1591:1601  msg.sender */\n      caller\n        /* \"contracts/_X.sol\":1584:1602  tweets[msg.sender] */\n      0xffffffffffffffffffffffffffffffffffffffff\n      and\n      0xffffffffffffffffffffffffffffffffffffffff\n      and\n      dup2\n      mstore\n      0x20\n      add\n      swap1\n      dup2\n      mstore\n      0x20\n      add\n      0x00\n      keccak256\n        /* \"contracts/_X.sol\":1608:1617  newtweets */\n      dup2\n        /* \"contracts/_X.sol\":1584:1618  tweets[msg.sender].push(newtweets) */\n      swap1\n      dup1\n      0x01\n      dup2\n      sload\n      add\n      dup1\n      dup3\n      sstore\n      dup1\n      swap2\n      pop\n      pop\n      0x01\n      swap1\n      sub\n      swap1\n      0x00\n      mstore\n      keccak256(0x00, 0x20)\n      swap1\n      0x06\n      mul\n      add\n      0x00\n      swap1\n      swap2\n      swap1\n      swap2\n      swap1\n      swap2\n      pop\n      0x00\n      dup3\n      add\n      mload\n      dup2\n      0x00\n      add\n      sstore\n      0x20\n      dup3\n      add\n      mload\n      dup2\n      0x01\n      add\n      exp(0x0100, 0x00)\n      dup2\n      sload\n      dup2\n      0xffffffffffffffffffffffffffffffffffffffff\n      mul\n      not\n      and\n      swap1\n      dup4\n      0xffffffffffffffffffffffffffffffffffffffff\n      and\n      mul\n      or\n      swap1\n      sstore\n      pop\n      0x40\n      dup3\n      add\n      mload\n      dup2\n      0x02\n      add\n      swap1\n      dup2\n      tag_143\n      swap2\n      swap1\n      tag_144\n      jump\t// in\n    tag_143:\n      pop\n      0x60\n      dup3\n      add\n      mload\n      dup2\n      0x03\n      add\n      sstore\n      0x80\n      dup3\n      add\n      mload\n      dup2\n      0x04\n      add\n      sstore\n      0xa0\n      dup3\n      add\n      mload\n      dup2\n      0x05\n      add\n      sstore\n      pop\n      pop\n        /* \"contracts/_X.sol\":1746:1755  newtweets */\n      dup1\n        /* \"contracts/_X.sol\":1746:1765  newtweets.timestamp */\n      0xa0\n      add\n      mload\n        /* \"contracts/_X.sol\":1685:1694  newtweets */\n      dup2\n        /* \"contracts/_X.sol\":1685:1701  newtweets.author */\n      0x20\n      add\n      mload\n        /* \"contracts/_X.sol\":1633:1775  TweetCreated(... */\n      0xffffffffffffffffffffffffffffffffffffffff\n      and\n        /* \"contracts/_X.sol\":1659:1668  newtweets */\n      dup3\n        /* \"contracts/_X.sol\":1659:1671  newtweets.id */\n      0x00\n      add\n      mload\n        /* \"contracts/_X.sol\":1633:1775  TweetCreated(... */\n      0x16fd3c13e9d46923e0a8bce11c7b473ec508a72e6c96cd2404b29ce972afc29e\n        /* \"contracts/_X.sol\":1715:1724  newtweets */\n      dup5\n        /* \"contracts/_X.sol\":1715:1732  newtweets.content */\n      0x40\n      add\n      mload\n        /* \"contracts/_X.sol\":1633:1775  TweetCreated(... */\n      mload(0x40)\n      tag_145\n      swap2\n      swap1\n      tag_146\n      jump\t// in\n    tag_145:\n      mload(0x40)\n      dup1\n      swap2\n      sub\n      swap1\n      log4\n        /* \"contracts/_X.sol\":1210:1782  {... */\n      pop\n        /* \"contracts/_X.sol\":1169:1782  function Post(string memory text) public {... */\n      pop\n      jump\t// out\n        /* \"contracts/_X.sol\":2373:2671  function dislikepost(address post, uint256 i) public {... */\n    tag_60:\n        /* \"contracts/_X.sol\":2466:2467  i */\n      dup1\n        /* \"contracts/_X.sol\":2444:2450  tweets */\n      0x02\n        /* \"contracts/_X.sol\":2444:2456  tweets[post] */\n      0x00\n        /* \"contracts/_X.sol\":2451:2455  post */\n      dup5\n        /* \"contracts/_X.sol\":2444:2456  tweets[post] */\n      0xffffffffffffffffffffffffffffffffffffffff\n      and\n      0xffffffffffffffffffffffffffffffffffffffff\n      and\n      dup2\n      mstore\n      0x20\n      add\n      swap1\n      dup2\n      mstore\n      0x20\n      add\n      0x00\n      keccak256\n        /* \"contracts/_X.sol\":2457:2458  i */\n      dup3\n        /* \"contracts/_X.sol\":2444:2459  tweets[post][i] */\n      dup2\n      sload\n      dup2\n      lt\n      tag_148\n      jumpi\n      tag_149\n      tag_75\n      jump\t// in\n    tag_149:\n    tag_148:\n      swap1\n      0x00\n      mstore\n      keccak256(0x00, 0x20)\n      swap1\n      0x06\n      mul\n      add\n        /* \"contracts/_X.sol\":2444:2462  tweets[post][i].id */\n      0x00\n      add\n      sload\n        /* \"contracts/_X.sol\":2444:2467  tweets[post][i].id == i */\n      eq\n        /* \"contracts/_X.sol\":2436:2490  require(tweets[post][i].id == i, \"post doesnot exist\") */\n      tag_151\n      jumpi\n      mload(0x40)\n      0x08c379a000000000000000000000000000000000000000000000000000000000\n      dup2\n      mstore\n      0x04\n      add\n      tag_152\n      swap1\n      tag_153\n      jump\t// in\n    tag_152:\n      mload(0x40)\n      dup1\n      swap2\n      sub\n      swap1\n      revert\n    tag_151:\n        /* \"contracts/_X.sol\":2532:2533  0 */\n      0x00\n        /* \"contracts/_X.sol\":2508:2514  tweets */\n      0x02\n        /* \"contracts/_X.sol\":2508:2520  tweets[post] */\n      0x00\n        /* \"contracts/_X.sol\":2515:2519  post */\n      dup5\n        /* \"contracts/_X.sol\":2508:2520  tweets[post] */\n      0xffffffffffffffffffffffffffffffffffffffff\n      and\n      0xffffffffffffffffffffffffffffffffffffffff\n      and\n      dup2\n      mstore\n      0x20\n      add\n      swap1\n      dup2\n      mstore\n      0x20\n      add\n      0x00\n      keccak256\n        /* \"contracts/_X.sol\":2521:2522  i */\n      dup3\n        /* \"contracts/_X.sol\":2508:2523  tweets[post][i] */\n      dup2\n      sload\n      dup2\n      lt\n      tag_154\n      jumpi\n      tag_155\n      tag_75\n      jump\t// in\n    tag_155:\n    tag_154:\n      swap1\n      0x00\n      mstore\n      keccak256(0x00, 0x20)\n      swap1\n      0x06\n      mul\n      add\n        /* \"contracts/_X.sol\":2508:2529  tweets[post][i].likes */\n      0x03\n      add\n      sload\n        /* \"contracts/_X.sol\":2508:2533  tweets[post][i].likes > 0 */\n      gt\n        /* \"contracts/_X.sol\":2500:2559  require(tweets[post][i].likes > 0, \"likes count is just 0\") */\n      tag_157\n      jumpi\n      mload(0x40)\n      0x08c379a000000000000000000000000000000000000000000000000000000000\n      dup2\n      mstore\n      0x04\n      add\n      tag_158\n      swap1\n      tag_159\n      jump\t// in\n    tag_158:\n      mload(0x40)\n      dup1\n      swap2\n      sub\n      swap1\n      revert\n    tag_157:\n        /* \"contracts/_X.sol\":2569:2575  tweets */\n      0x02\n        /* \"contracts/_X.sol\":2569:2581  tweets[post] */\n      0x00\n        /* \"contracts/_X.sol\":2576:2580  post */\n      dup4\n        /* \"contracts/_X.sol\":2569:2581  tweets[post] */\n      0xffffffffffffffffffffffffffffffffffffffff\n      and\n      0xffffffffffffffffffffffffffffffffffffffff\n      and\n      dup2\n      mstore\n      0x20\n      add\n      swap1\n      dup2\n      mstore\n      0x20\n      add\n      0x00\n      keccak256\n        /* \"contracts/_X.sol\":2582:2583  i */\n      dup2\n        /* \"contracts/_X.sol\":2569:2584  tweets[post][i] */\n      dup2\n      sload\n      dup2\n      lt\n      tag_160\n      jumpi\n      tag_161\n      tag_75\n      jump\t// in\n    tag_161:\n    tag_160:\n      swap1\n      0x00\n      mstore\n      keccak256(0x00, 0x20)\n      swap1\n      0x06\n      mul\n      add\n        /* \"contracts/_X.sol\":2569:2590  tweets[post][i].likes */\n      0x03\n      add\n      0x00\n        /* \"contracts/_X.sol\":2569:2592  tweets[post][i].likes-- */\n      dup2\n      sload\n      dup1\n      swap3\n      swap2\n      swap1\n      tag_163\n      swap1\n      tag_164\n      jump\t// in\n    tag_163:\n      swap2\n      swap1\n      pop\n      sstore\n      pop\n        /* \"contracts/_X.sol\":2630:2640  msg.sender */\n      caller\n        /* \"contracts/_X.sol\":2607:2664  TweetDisLikes(i, post, msg.sender, tweets[post][i].likes) */\n      0xffffffffffffffffffffffffffffffffffffffff\n      and\n        /* \"contracts/_X.sol\":2624:2628  post */\n      dup3\n        /* \"contracts/_X.sol\":2607:2664  TweetDisLikes(i, post, msg.sender, tweets[post][i].likes) */\n      0xffffffffffffffffffffffffffffffffffffffff\n      and\n        /* \"contracts/_X.sol\":2621:2622  i */\n      dup3\n        /* \"contracts/_X.sol\":2607:2664  TweetDisLikes(i, post, msg.sender, tweets[post][i].likes) */\n      0xef73a432a91b235ba7b844392a00d62c6e9916ca8ce0df7bfea3b3454a2b5a91\n        /* \"contracts/_X.sol\":2642:2648  tweets */\n      0x02\n        /* \"contracts/_X.sol\":2642:2654  tweets[post] */\n      0x00\n        /* \"contracts/_X.sol\":2649:2653  post */\n      dup8\n        /* \"contracts/_X.sol\":2642:2654  tweets[post] */\n      0xffffffffffffffffffffffffffffffffffffffff\n      and\n      0xffffffffffffffffffffffffffffffffffffffff\n      and\n      dup2\n      mstore\n      0x20\n      add\n      swap1\n      dup2\n      mstore\n      0x20\n      add\n      0x00\n      keccak256\n        /* \"contracts/_X.sol\":2655:2656  i */\n      dup6\n        /* \"contracts/_X.sol\":2642:2657  tweets[post][i] */\n      dup2\n      sload\n      dup2\n      lt\n      tag_165\n      jumpi\n      tag_166\n      tag_75\n      jump\t// in\n    tag_166:\n    tag_165:\n      swap1\n      0x00\n      mstore\n      keccak256(0x00, 0x20)\n      swap1\n      0x06\n      mul\n      add\n        /* \"contracts/_X.sol\":2642:2663  tweets[post][i].likes */\n      0x03\n      add\n      sload\n        /* \"contracts/_X.sol\":2607:2664  TweetDisLikes(i, post, msg.sender, tweets[post][i].likes) */\n      mload(0x40)\n      tag_168\n      swap2\n      swap1\n      tag_50\n      jump\t// in\n    tag_168:\n      mload(0x40)\n      dup1\n      swap2\n      sub\n      swap1\n      log4\n        /* \"contracts/_X.sol\":2373:2671  function dislikepost(address post, uint256 i) public {... */\n      pop\n      pop\n      jump\t// out\n        /* \"@openzeppelin/contracts/access/Ownable.sol\":2543:2758  function transferOwnership(address newOwner) public virtual onlyOwner {... */\n    tag_63:\n        /* \"@openzeppelin/contracts/access/Ownable.sol\":1531:1544  _checkOwner() */\n      tag_170\n        /* \"@openzeppelin/contracts/access/Ownable.sol\":1531:1542  _checkOwner */\n      tag_81\n        /* \"@openzeppelin/contracts/access/Ownable.sol\":1531:1544  _checkOwner() */\n      jump\t// in\n    tag_170:\n        /* \"@openzeppelin/contracts/access/Ownable.sol\":2647:2648  0 */\n      0x00\n        /* \"@openzeppelin/contracts/access/Ownable.sol\":2627:2649  newOwner == address(0) */\n      0xffffffffffffffffffffffffffffffffffffffff\n      and\n        /* \"@openzeppelin/contracts/access/Ownable.sol\":2627:2635  newOwner */\n      dup2\n        /* \"@openzeppelin/contracts/access/Ownable.sol\":2627:2649  newOwner == address(0) */\n      0xffffffffffffffffffffffffffffffffffffffff\n      and\n      sub\n        /* \"@openzeppelin/contracts/access/Ownable.sol\":2623:2714  if (newOwner == address(0)) {... */\n      tag_172\n      jumpi\n        /* \"@openzeppelin/contracts/access/Ownable.sol\":2700:2701  0 */\n      0x00\n        /* \"@openzeppelin/contracts/access/Ownable.sol\":2672:2703  OwnableInvalidOwner(address(0)) */\n      mload(0x40)\n      0x1e4fbdf700000000000000000000000000000000000000000000000000000000\n      dup2\n      mstore\n      0x04\n      add\n      tag_173\n      swap2\n      swap1\n      tag_39\n      jump\t// in\n    tag_173:\n      mload(0x40)\n      dup1\n      swap2\n      sub\n      swap1\n      revert\n        /* \"@openzeppelin/contracts/access/Ownable.sol\":2623:2714  if (newOwner == address(0)) {... */\n    tag_172:\n        /* \"@openzeppelin/contracts/access/Ownable.sol\":2723:2751  _transferOwnership(newOwner) */\n      tag_174\n        /* \"@openzeppelin/contracts/access/Ownable.sol\":2742:2750  newOwner */\n      dup2\n        /* \"@openzeppelin/contracts/access/Ownable.sol\":2723:2741  _transferOwnership */\n      tag_87\n        /* \"@openzeppelin/contracts/access/Ownable.sol\":2723:2751  _transferOwnership(newOwner) */\n      jump\t// in\n    tag_174:\n        /* \"@openzeppelin/contracts/access/Ownable.sol\":2543:2758  function transferOwnership(address newOwner) public virtual onlyOwner {... */\n      pop\n      jump\t// out\n        /* \"@openzeppelin/contracts/access/Ownable.sol\":1796:1958  function _checkOwner() internal view virtual {... */\n    tag_81:\n        /* \"@openzeppelin/contracts/access/Ownable.sol\":1866:1878  _msgSender() */\n      tag_176\n        /* \"@openzeppelin/contracts/access/Ownable.sol\":1866:1876  _msgSender */\n      tag_177\n        /* \"@openzeppelin/contracts/access/Ownable.sol\":1866:1878  _msgSender() */\n      jump\t// in\n    tag_176:\n        /* \"@openzeppelin/contracts/access/Ownable.sol\":1855:1878  owner() != _msgSender() */\n      0xffffffffffffffffffffffffffffffffffffffff\n      and\n        /* \"@openzeppelin/contracts/access/Ownable.sol\":1855:1862  owner() */\n      tag_178\n        /* \"@openzeppelin/contracts/access/Ownable.sol\":1855:1860  owner */\n      tag_37\n        /* \"@openzeppelin/contracts/access/Ownable.sol\":1855:1862  owner() */\n      jump\t// in\n    tag_178:\n        /* \"@openzeppelin/contracts/access/Ownable.sol\":1855:1878  owner() != _msgSender() */\n      0xffffffffffffffffffffffffffffffffffffffff\n      and\n      eq\n        /* \"@openzeppelin/contracts/access/Ownable.sol\":1851:1952  if (owner() != _msgSender()) {... */\n      tag_179\n      jumpi\n        /* \"@openzeppelin/contracts/access/Ownable.sol\":1928:1940  _msgSender() */\n      tag_180\n        /* \"@openzeppelin/contracts/access/Ownable.sol\":1928:1938  _msgSender */\n      tag_177\n        /* \"@openzeppelin/contracts/access/Ownable.sol\":1928:1940  _msgSender() */\n      jump\t// in\n    tag_180:\n        /* \"@openzeppelin/contracts/access/Ownable.sol\":1901:1941  OwnableUnauthorizedAccount(_msgSender()) */\n      mload(0x40)\n      0x118cdaa700000000000000000000000000000000000000000000000000000000\n      dup2\n      mstore\n      0x04\n      add\n      tag_181\n      swap2\n      swap1\n      tag_39\n      jump\t// in\n    tag_181:\n      mload(0x40)\n      dup1\n      swap2\n      sub\n      swap1\n      revert\n        /* \"@openzeppelin/contracts/access/Ownable.sol\":1851:1952  if (owner() != _msgSender()) {... */\n    tag_179:\n        /* \"@openzeppelin/contracts/access/Ownable.sol\":1796:1958  function _checkOwner() internal view virtual {... */\n      jump\t// out\n        /* \"@openzeppelin/contracts/access/Ownable.sol\":2912:3099  function _transferOwnership(address newOwner) internal virtual {... */\n    tag_87:\n        /* \"@openzeppelin/contracts/access/Ownable.sol\":2985:3001  address oldOwner */\n      0x00\n        /* \"@openzeppelin/contracts/access/Ownable.sol\":3004:3010  _owner */\n      0x00\n      0x00\n      swap1\n      sload\n      swap1\n      0x0100\n      exp\n      swap1\n      div\n      0xffffffffffffffffffffffffffffffffffffffff\n      and\n        /* \"@openzeppelin/contracts/access/Ownable.sol\":2985:3010  address oldOwner = _owner */\n      swap1\n      pop\n        /* \"@openzeppelin/contracts/access/Ownable.sol\":3029:3037  newOwner */\n      dup2\n        /* \"@openzeppelin/contracts/access/Ownable.sol\":3020:3026  _owner */\n      0x00\n      0x00\n        /* \"@openzeppelin/contracts/access/Ownable.sol\":3020:3037  _owner = newOwner */\n      0x0100\n      exp\n      dup2\n      sload\n      dup2\n      0xffffffffffffffffffffffffffffffffffffffff\n      mul\n      not\n      and\n      swap1\n      dup4\n      0xffffffffffffffffffffffffffffffffffffffff\n      and\n      mul\n      or\n      swap1\n      sstore\n      pop\n        /* \"@openzeppelin/contracts/access/Ownable.sol\":3083:3091  newOwner */\n      dup2\n        /* \"@openzeppelin/contracts/access/Ownable.sol\":3052:3092  OwnershipTransferred(oldOwner, newOwner) */\n      0xffffffffffffffffffffffffffffffffffffffff\n      and\n        /* \"@openzeppelin/contracts/access/Ownable.sol\":3073:3081  oldOwner */\n      dup2\n        /* \"@openzeppelin/contracts/access/Ownable.sol\":3052:3092  OwnershipTransferred(oldOwner, newOwner) */\n      0xffffffffffffffffffffffffffffffffffffffff\n      and\n      0x8be0079c531659141344cd1fd0a4f28419497f9722a3daafe3b4186f6b6457e0\n      mload(0x40)\n      mload(0x40)\n      dup1\n      swap2\n      sub\n      swap1\n      log3\n        /* \"@openzeppelin/contracts/access/Ownable.sol\":2975:3099  {... */\n      pop\n        /* \"@openzeppelin/contracts/access/Ownable.sol\":2912:3099  function _transferOwnership(address newOwner) internal virtual {... */\n      pop\n      jump\t// out\n        /* \"@openzeppelin/contracts/utils/Context.sol\":656:752  function _msgSender() internal view virtual returns (address) {... */\n    tag_177:\n        /* \"@openzeppelin/contracts/utils/Context.sol\":709:716  address */\n      0x00\n        /* \"@openzeppelin/contracts/utils/Context.sol\":735:745  msg.sender */\n      caller\n        /* \"@openzeppelin/contracts/utils/Context.sol\":728:745  return msg.sender */\n      swap1\n      pop\n        /* \"@openzeppelin/contracts/utils/Context.sol\":656:752  function _msgSender() internal view virtual returns (address) {... */\n      swap1\n      jump\t// out\n    tag_78:\n      pop\n      dup1\n      sload\n      tag_184\n      swap1\n      tag_67\n      jump\t// in\n    tag_184:\n      0x00\n      dup3\n      sstore\n      dup1\n      0x1f\n      lt\n      tag_186\n      jumpi\n      pop\n      jump(tag_185)\n    tag_186:\n      0x1f\n      add\n      0x20\n      swap1\n      div\n      swap1\n      0x00\n      mstore\n      keccak256(0x00, 0x20)\n      swap1\n      dup2\n      add\n      swap1\n      tag_187\n      swap2\n      swap1\n      tag_188\n      jump\t// in\n    tag_187:\n    tag_185:\n      pop\n      jump\t// out\n    tag_89:\n      mload(0x40)\n      dup1\n      0xc0\n      add\n      0x40\n      mstore\n      dup1\n      0x00\n      dup2\n      mstore\n      0x20\n      add\n      and(0xffffffffffffffffffffffffffffffffffffffff, 0x00)\n      dup2\n      mstore\n      0x20\n      add\n      0x60\n      dup2\n      mstore\n      0x20\n      add\n      0x00\n      dup2\n      mstore\n      0x20\n      add\n      0x00\n      dup2\n      mstore\n      0x20\n      add\n      0x00\n      dup2\n      mstore\n      pop\n      swap1\n      jump\t// out\n    tag_188:\n    tag_189:\n      dup1\n      dup3\n      gt\n      iszero\n      tag_190\n      jumpi\n      0x00\n      dup2\n      0x00\n      swap1\n      sstore\n      pop\n      0x01\n      add\n      jump(tag_189)\n    tag_190:\n      pop\n      swap1\n      jump\t// out\n        /* \"#utility.yul\":7:82   */\n    tag_191:\n        /* \"#utility.yul\":40:46   */\n      0x00\n        /* \"#utility.yul\":73:75   */\n      0x40\n        /* \"#utility.yul\":67:76   */\n      mload\n        /* \"#utility.yul\":57:76   */\n      swap1\n      pop\n        /* \"#utility.yul\":7:82   */\n      swap1\n      jump\t// out\n        /* \"#utility.yul\":88:205   */\n    tag_192:\n        /* \"#utility.yul\":197:198   */\n      0x00\n        /* \"#utility.yul\":194:195   */\n      0x00\n        /* \"#utility.yul\":187:199   */\n      revert\n        /* \"#utility.yul\":211:328   */\n    tag_193:\n        /* \"#utility.yul\":320:321   */\n      0x00\n        /* \"#utility.yul\":317:318   */\n      0x00\n        /* \"#utility.yul\":310:322   */\n      revert\n        /* \"#utility.yul\":334:460   */\n    tag_194:\n        /* \"#utility.yul\":371:378   */\n      0x00\n        /* \"#utility.yul\":411:453   */\n      0xffffffffffffffffffffffffffffffffffffffff\n        /* \"#utility.yul\":404:409   */\n      dup3\n        /* \"#utility.yul\":400:454   */\n      and\n        /* \"#utility.yul\":389:454   */\n      swap1\n      pop\n        /* \"#utility.yul\":334:460   */\n      swap2\n      swap1\n      pop\n      jump\t// out\n        /* \"#utility.yul\":466:562   */\n    tag_195:\n        /* \"#utility.yul\":503:510   */\n      0x00\n        /* \"#utility.yul\":532:556   */\n      tag_260\n        /* \"#utility.yul\":550:555   */\n      dup3\n        /* \"#utility.yul\":532:556   */\n      tag_194\n      jump\t// in\n    tag_260:\n        /* \"#utility.yul\":521:556   */\n      swap1\n      pop\n        /* \"#utility.yul\":466:562   */\n      swap2\n      swap1\n      pop\n      jump\t// out\n        /* \"#utility.yul\":568:690   */\n    tag_196:\n        /* \"#utility.yul\":641:665   */\n      tag_262\n        /* \"#utility.yul\":659:664   */\n      dup2\n        /* \"#utility.yul\":641:665   */\n      tag_195\n      jump\t// in\n    tag_262:\n        /* \"#utility.yul\":634:639   */\n      dup2\n        /* \"#utility.yul\":631:666   */\n      eq\n        /* \"#utility.yul\":621:684   */\n      tag_263\n      jumpi\n        /* \"#utility.yul\":680:681   */\n      0x00\n        /* \"#utility.yul\":677:678   */\n      0x00\n        /* \"#utility.yul\":670:682   */\n      revert\n        /* \"#utility.yul\":621:684   */\n    tag_263:\n        /* \"#utility.yul\":568:690   */\n      pop\n      jump\t// out\n        /* \"#utility.yul\":696:835   */\n    tag_197:\n        /* \"#utility.yul\":742:747   */\n      0x00\n        /* \"#utility.yul\":780:786   */\n      dup2\n        /* \"#utility.yul\":767:787   */\n      calldataload\n        /* \"#utility.yul\":758:787   */\n      swap1\n      pop\n        /* \"#utility.yul\":796:829   */\n      tag_265\n        /* \"#utility.yul\":823:828   */\n      dup2\n        /* \"#utility.yul\":796:829   */\n      tag_196\n      jump\t// in\n    tag_265:\n        /* \"#utility.yul\":696:835   */\n      swap3\n      swap2\n      pop\n      pop\n      jump\t// out\n        /* \"#utility.yul\":841:918   */\n    tag_198:\n        /* \"#utility.yul\":878:885   */\n      0x00\n        /* \"#utility.yul\":907:912   */\n      dup2\n        /* \"#utility.yul\":896:912   */\n      swap1\n      pop\n        /* \"#utility.yul\":841:918   */\n      swap2\n      swap1\n      pop\n      jump\t// out\n        /* \"#utility.yul\":924:1046   */\n    tag_199:\n        /* \"#utility.yul\":997:1021   */\n      tag_268\n        /* \"#utility.yul\":1015:1020   */\n      dup2\n        /* \"#utility.yul\":997:1021   */\n      tag_198\n      jump\t// in\n    tag_268:\n        /* \"#utility.yul\":990:995   */\n      dup2\n        /* \"#utility.yul\":987:1022   */\n      eq\n        /* \"#utility.yul\":977:1040   */\n      tag_269\n      jumpi\n        /* \"#utility.yul\":1036:1037   */\n      0x00\n        /* \"#utility.yul\":1033:1034   */\n      0x00\n        /* \"#utility.yul\":1026:1038   */\n      revert\n        /* \"#utility.yul\":977:1040   */\n    tag_269:\n        /* \"#utility.yul\":924:1046   */\n      pop\n      jump\t// out\n        /* \"#utility.yul\":1052:1191   */\n    tag_200:\n        /* \"#utility.yul\":1098:1103   */\n      0x00\n        /* \"#utility.yul\":1136:1142   */\n      dup2\n        /* \"#utility.yul\":1123:1143   */\n      calldataload\n        /* \"#utility.yul\":1114:1143   */\n      swap1\n      pop\n        /* \"#utility.yul\":1152:1185   */\n      tag_271\n        /* \"#utility.yul\":1179:1184   */\n      dup2\n        /* \"#utility.yul\":1152:1185   */\n      tag_199\n      jump\t// in\n    tag_271:\n        /* \"#utility.yul\":1052:1191   */\n      swap3\n      swap2\n      pop\n      pop\n      jump\t// out\n        /* \"#utility.yul\":1197:1671   */\n    tag_18:\n        /* \"#utility.yul\":1265:1271   */\n      0x00\n        /* \"#utility.yul\":1273:1279   */\n      0x00\n        /* \"#utility.yul\":1322:1324   */\n      0x40\n        /* \"#utility.yul\":1310:1319   */\n      dup4\n        /* \"#utility.yul\":1301:1308   */\n      dup6\n        /* \"#utility.yul\":1297:1320   */\n      sub\n        /* \"#utility.yul\":1293:1325   */\n      slt\n        /* \"#utility.yul\":1290:1409   */\n      iszero\n      tag_273\n      jumpi\n        /* \"#utility.yul\":1328:1407   */\n      tag_274\n      tag_192\n      jump\t// in\n    tag_274:\n        /* \"#utility.yul\":1290:1409   */\n    tag_273:\n        /* \"#utility.yul\":1448:1449   */\n      0x00\n        /* \"#utility.yul\":1473:1526   */\n      tag_275\n        /* \"#utility.yul\":1518:1525   */\n      dup6\n        /* \"#utility.yul\":1509:1515   */\n      dup3\n        /* \"#utility.yul\":1498:1507   */\n      dup7\n        /* \"#utility.yul\":1494:1516   */\n      add\n        /* \"#utility.yul\":1473:1526   */\n      tag_197\n      jump\t// in\n    tag_275:\n        /* \"#utility.yul\":1463:1526   */\n      swap3\n      pop\n        /* \"#utility.yul\":1419:1536   */\n      pop\n        /* \"#utility.yul\":1575:1577   */\n      0x20\n        /* \"#utility.yul\":1601:1654   */\n      tag_276\n        /* \"#utility.yul\":1646:1653   */\n      dup6\n        /* \"#utility.yul\":1637:1643   */\n      dup3\n        /* \"#utility.yul\":1626:1635   */\n      dup7\n        /* \"#utility.yul\":1622:1644   */\n      add\n        /* \"#utility.yul\":1601:1654   */\n      tag_200\n      jump\t// in\n    tag_276:\n        /* \"#utility.yul\":1591:1654   */\n      swap2\n      pop\n        /* \"#utility.yul\":1546:1664   */\n      pop\n        /* \"#utility.yul\":1197:1671   */\n      swap3\n      pop\n      swap3\n      swap1\n      pop\n      jump\t// out\n        /* \"#utility.yul\":1677:1795   */\n    tag_201:\n        /* \"#utility.yul\":1764:1788   */\n      tag_278\n        /* \"#utility.yul\":1782:1787   */\n      dup2\n        /* \"#utility.yul\":1764:1788   */\n      tag_198\n      jump\t// in\n    tag_278:\n        /* \"#utility.yul\":1759:1762   */\n      dup3\n        /* \"#utility.yul\":1752:1789   */\n      mstore\n        /* \"#utility.yul\":1677:1795   */\n      pop\n      pop\n      jump\t// out\n        /* \"#utility.yul\":1801:1919   */\n    tag_202:\n        /* \"#utility.yul\":1888:1912   */\n      tag_280\n        /* \"#utility.yul\":1906:1911   */\n      dup2\n        /* \"#utility.yul\":1888:1912   */\n      tag_195\n      jump\t// in\n    tag_280:\n        /* \"#utility.yul\":1883:1886   */\n      dup3\n        /* \"#utility.yul\":1876:1913   */\n      mstore\n        /* \"#utility.yul\":1801:1919   */\n      pop\n      pop\n      jump\t// out\n        /* \"#utility.yul\":1925:2024   */\n    tag_203:\n        /* \"#utility.yul\":1977:1983   */\n      0x00\n        /* \"#utility.yul\":2011:2016   */\n      dup2\n        /* \"#utility.yul\":2005:2017   */\n      mload\n        /* \"#utility.yul\":1995:2017   */\n      swap1\n      pop\n        /* \"#utility.yul\":1925:2024   */\n      swap2\n      swap1\n      pop\n      jump\t// out\n        /* \"#utility.yul\":2030:2199   */\n    tag_204:\n        /* \"#utility.yul\":2114:2125   */\n      0x00\n        /* \"#utility.yul\":2148:2154   */\n      dup3\n        /* \"#utility.yul\":2143:2146   */\n      dup3\n        /* \"#utility.yul\":2136:2155   */\n      mstore\n        /* \"#utility.yul\":2188:2192   */\n      0x20\n        /* \"#utility.yul\":2183:2186   */\n      dup3\n        /* \"#utility.yul\":2179:2193   */\n      add\n        /* \"#utility.yul\":2164:2193   */\n      swap1\n      pop\n        /* \"#utility.yul\":2030:2199   */\n      swap3\n      swap2\n      pop\n      pop\n      jump\t// out\n        /* \"#utility.yul\":2205:2344   */\n    tag_205:\n        /* \"#utility.yul\":2294:2300   */\n      dup3\n        /* \"#utility.yul\":2289:2292   */\n      dup2\n        /* \"#utility.yul\":2284:2287   */\n      dup4\n        /* \"#utility.yul\":2278:2301   */\n      mcopy\n        /* \"#utility.yul\":2335:2336   */\n      0x00\n        /* \"#utility.yul\":2326:2332   */\n      dup4\n        /* \"#utility.yul\":2321:2324   */\n      dup4\n        /* \"#utility.yul\":2317:2333   */\n      add\n        /* \"#utility.yul\":2310:2337   */\n      mstore\n        /* \"#utility.yul\":2205:2344   */\n      pop\n      pop\n      pop\n      jump\t// out\n        /* \"#utility.yul\":2350:2452   */\n    tag_206:\n        /* \"#utility.yul\":2391:2397   */\n      0x00\n        /* \"#utility.yul\":2442:2444   */\n      0x1f\n        /* \"#utility.yul\":2438:2445   */\n      not\n        /* \"#utility.yul\":2433:2435   */\n      0x1f\n        /* \"#utility.yul\":2426:2431   */\n      dup4\n        /* \"#utility.yul\":2422:2436   */\n      add\n        /* \"#utility.yul\":2418:2446   */\n      and\n        /* \"#utility.yul\":2408:2446   */\n      swap1\n      pop\n        /* \"#utility.yul\":2350:2452   */\n      swap2\n      swap1\n      pop\n      jump\t// out\n        /* \"#utility.yul\":2458:2835   */\n    tag_207:\n        /* \"#utility.yul\":2546:2549   */\n      0x00\n        /* \"#utility.yul\":2574:2613   */\n      tag_286\n        /* \"#utility.yul\":2607:2612   */\n      dup3\n        /* \"#utility.yul\":2574:2613   */\n      tag_203\n      jump\t// in\n    tag_286:\n        /* \"#utility.yul\":2629:2700   */\n      tag_287\n        /* \"#utility.yul\":2693:2699   */\n      dup2\n        /* \"#utility.yul\":2688:2691   */\n      dup6\n        /* \"#utility.yul\":2629:2700   */\n      tag_204\n      jump\t// in\n    tag_287:\n        /* \"#utility.yul\":2622:2700   */\n      swap4\n      pop\n        /* \"#utility.yul\":2709:2774   */\n      tag_288\n        /* \"#utility.yul\":2767:2773   */\n      dup2\n        /* \"#utility.yul\":2762:2765   */\n      dup6\n        /* \"#utility.yul\":2755:2759   */\n      0x20\n        /* \"#utility.yul\":2748:2753   */\n      dup7\n        /* \"#utility.yul\":2744:2760   */\n      add\n        /* \"#utility.yul\":2709:2774   */\n      tag_205\n      jump\t// in\n    tag_288:\n        /* \"#utility.yul\":2799:2828   */\n      tag_289\n        /* \"#utility.yul\":2821:2827   */\n      dup2\n        /* \"#utility.yul\":2799:2828   */\n      tag_206\n      jump\t// in\n    tag_289:\n        /* \"#utility.yul\":2794:2797   */\n      dup5\n        /* \"#utility.yul\":2790:2829   */\n      add\n        /* \"#utility.yul\":2783:2829   */\n      swap2\n      pop\n        /* \"#utility.yul\":2550:2835   */\n      pop\n        /* \"#utility.yul\":2458:2835   */\n      swap3\n      swap2\n      pop\n      pop\n      jump\t// out\n        /* \"#utility.yul\":2841:3707   */\n    tag_21:\n        /* \"#utility.yul\":3094:3098   */\n      0x00\n        /* \"#utility.yul\":3132:3135   */\n      0xc0\n        /* \"#utility.yul\":3121:3130   */\n      dup3\n        /* \"#utility.yul\":3117:3136   */\n      add\n        /* \"#utility.yul\":3109:3136   */\n      swap1\n      pop\n        /* \"#utility.yul\":3146:3217   */\n      tag_291\n        /* \"#utility.yul\":3214:3215   */\n      0x00\n        /* \"#utility.yul\":3203:3212   */\n      dup4\n        /* \"#utility.yul\":3199:3216   */\n      add\n        /* \"#utility.yul\":3190:3196   */\n      dup10\n        /* \"#utility.yul\":3146:3217   */\n      tag_201\n      jump\t// in\n    tag_291:\n        /* \"#utility.yul\":3227:3299   */\n      tag_292\n        /* \"#utility.yul\":3295:3297   */\n      0x20\n        /* \"#utility.yul\":3284:3293   */\n      dup4\n        /* \"#utility.yul\":3280:3298   */\n      add\n        /* \"#utility.yul\":3271:3277   */\n      dup9\n        /* \"#utility.yul\":3227:3299   */\n      tag_202\n      jump\t// in\n    tag_292:\n        /* \"#utility.yul\":3346:3355   */\n      dup2\n        /* \"#utility.yul\":3340:3344   */\n      dup2\n        /* \"#utility.yul\":3336:3356   */\n      sub\n        /* \"#utility.yul\":3331:3333   */\n      0x40\n        /* \"#utility.yul\":3320:3329   */\n      dup4\n        /* \"#utility.yul\":3316:3334   */\n      add\n        /* \"#utility.yul\":3309:3357   */\n      mstore\n        /* \"#utility.yul\":3374:3452   */\n      tag_293\n        /* \"#utility.yul\":3447:3451   */\n      dup2\n        /* \"#utility.yul\":3438:3444   */\n      dup8\n        /* \"#utility.yul\":3374:3452   */\n      tag_207\n      jump\t// in\n    tag_293:\n        /* \"#utility.yul\":3366:3452   */\n      swap1\n      pop\n        /* \"#utility.yul\":3462:3534   */\n      tag_294\n        /* \"#utility.yul\":3530:3532   */\n      0x60\n        /* \"#utility.yul\":3519:3528   */\n      dup4\n        /* \"#utility.yul\":3515:3533   */\n      add\n        /* \"#utility.yul\":3506:3512   */\n      dup7\n        /* \"#utility.yul\":3462:3534   */\n      tag_201\n      jump\t// in\n    tag_294:\n        /* \"#utility.yul\":3544:3617   */\n      tag_295\n        /* \"#utility.yul\":3612:3615   */\n      0x80\n        /* \"#utility.yul\":3601:3610   */\n      dup4\n        /* \"#utility.yul\":3597:3616   */\n      add\n        /* \"#utility.yul\":3588:3594   */\n      dup6\n        /* \"#utility.yul\":3544:3617   */\n      tag_201\n      jump\t// in\n    tag_295:\n        /* \"#utility.yul\":3627:3700   */\n      tag_296\n        /* \"#utility.yul\":3695:3698   */\n      0xa0\n        /* \"#utility.yul\":3684:3693   */\n      dup4\n        /* \"#utility.yul\":3680:3699   */\n      add\n        /* \"#utility.yul\":3671:3677   */\n      dup5\n        /* \"#utility.yul\":3627:3700   */\n      tag_201\n      jump\t// in\n    tag_296:\n        /* \"#utility.yul\":2841:3707   */\n      swap8\n      swap7\n      pop\n      pop\n      pop\n      pop\n      pop\n      pop\n      pop\n      jump\t// out\n        /* \"#utility.yul\":3713:4042   */\n    tag_27:\n        /* \"#utility.yul\":3772:3778   */\n      0x00\n        /* \"#utility.yul\":3821:3823   */\n      0x20\n        /* \"#utility.yul\":3809:3818   */\n      dup3\n        /* \"#utility.yul\":3800:3807   */\n      dup5\n        /* \"#utility.yul\":3796:3819   */\n      sub\n        /* \"#utility.yul\":3792:3824   */\n      slt\n        /* \"#utility.yul\":3789:3908   */\n      iszero\n      tag_298\n      jumpi\n        /* \"#utility.yul\":3827:3906   */\n      tag_299\n      tag_192\n      jump\t// in\n    tag_299:\n        /* \"#utility.yul\":3789:3908   */\n    tag_298:\n        /* \"#utility.yul\":3947:3948   */\n      0x00\n        /* \"#utility.yul\":3972:4025   */\n      tag_300\n        /* \"#utility.yul\":4017:4024   */\n      dup5\n        /* \"#utility.yul\":4008:4014   */\n      dup3\n        /* \"#utility.yul\":3997:4006   */\n      dup6\n        /* \"#utility.yul\":3993:4015   */\n      add\n        /* \"#utility.yul\":3972:4025   */\n      tag_200\n      jump\t// in\n    tag_300:\n        /* \"#utility.yul\":3962:4025   */\n      swap2\n      pop\n        /* \"#utility.yul\":3918:4035   */\n      pop\n        /* \"#utility.yul\":3713:4042   */\n      swap3\n      swap2\n      pop\n      pop\n      jump\t// out\n        /* \"#utility.yul\":4048:4156   */\n    tag_208:\n        /* \"#utility.yul\":4125:4149   */\n      tag_302\n        /* \"#utility.yul\":4143:4148   */\n      dup2\n        /* \"#utility.yul\":4125:4149   */\n      tag_198\n      jump\t// in\n    tag_302:\n        /* \"#utility.yul\":4120:4123   */\n      dup3\n        /* \"#utility.yul\":4113:4150   */\n      mstore\n        /* \"#utility.yul\":4048:4156   */\n      pop\n      pop\n      jump\t// out\n        /* \"#utility.yul\":4162:4270   */\n    tag_209:\n        /* \"#utility.yul\":4239:4263   */\n      tag_304\n        /* \"#utility.yul\":4257:4262   */\n      dup2\n        /* \"#utility.yul\":4239:4263   */\n      tag_195\n      jump\t// in\n    tag_304:\n        /* \"#utility.yul\":4234:4237   */\n      dup3\n        /* \"#utility.yul\":4227:4264   */\n      mstore\n        /* \"#utility.yul\":4162:4270   */\n      pop\n      pop\n      jump\t// out\n        /* \"#utility.yul\":4276:4435   */\n    tag_210:\n        /* \"#utility.yul\":4350:4361   */\n      0x00\n        /* \"#utility.yul\":4384:4390   */\n      dup3\n        /* \"#utility.yul\":4379:4382   */\n      dup3\n        /* \"#utility.yul\":4372:4391   */\n      mstore\n        /* \"#utility.yul\":4424:4428   */\n      0x20\n        /* \"#utility.yul\":4419:4422   */\n      dup3\n        /* \"#utility.yul\":4415:4429   */\n      add\n        /* \"#utility.yul\":4400:4429   */\n      swap1\n      pop\n        /* \"#utility.yul\":4276:4435   */\n      swap3\n      swap2\n      pop\n      pop\n      jump\t// out\n        /* \"#utility.yul\":4441:4798   */\n    tag_211:\n        /* \"#utility.yul\":4519:4522   */\n      0x00\n        /* \"#utility.yul\":4547:4586   */\n      tag_307\n        /* \"#utility.yul\":4580:4585   */\n      dup3\n        /* \"#utility.yul\":4547:4586   */\n      tag_203\n      jump\t// in\n    tag_307:\n        /* \"#utility.yul\":4602:4663   */\n      tag_308\n        /* \"#utility.yul\":4656:4662   */\n      dup2\n        /* \"#utility.yul\":4651:4654   */\n      dup6\n        /* \"#utility.yul\":4602:4663   */\n      tag_210\n      jump\t// in\n    tag_308:\n        /* \"#utility.yul\":4595:4663   */\n      swap4\n      pop\n        /* \"#utility.yul\":4672:4737   */\n      tag_309\n        /* \"#utility.yul\":4730:4736   */\n      dup2\n        /* \"#utility.yul\":4725:4728   */\n      dup6\n        /* \"#utility.yul\":4718:4722   */\n      0x20\n        /* \"#utility.yul\":4711:4716   */\n      dup7\n        /* \"#utility.yul\":4707:4723   */\n      add\n        /* \"#utility.yul\":4672:4737   */\n      tag_205\n      jump\t// in\n    tag_309:\n        /* \"#utility.yul\":4762:4791   */\n      tag_310\n        /* \"#utility.yul\":4784:4790   */\n      dup2\n        /* \"#utility.yul\":4762:4791   */\n      tag_206\n      jump\t// in\n    tag_310:\n        /* \"#utility.yul\":4757:4760   */\n      dup5\n        /* \"#utility.yul\":4753:4792   */\n      add\n        /* \"#utility.yul\":4746:4792   */\n      swap2\n      pop\n        /* \"#utility.yul\":4523:4798   */\n      pop\n        /* \"#utility.yul\":4441:4798   */\n      swap3\n      swap2\n      pop\n      pop\n      jump\t// out\n        /* \"#utility.yul\":4844:6153   */\n    tag_212:\n        /* \"#utility.yul\":4957:4960   */\n      0x00\n        /* \"#utility.yul\":4993:4997   */\n      0xc0\n        /* \"#utility.yul\":4988:4991   */\n      dup4\n        /* \"#utility.yul\":4984:4998   */\n      add\n        /* \"#utility.yul\":5078:5082   */\n      0x00\n        /* \"#utility.yul\":5071:5076   */\n      dup4\n        /* \"#utility.yul\":5067:5083   */\n      add\n        /* \"#utility.yul\":5061:5084   */\n      mload\n        /* \"#utility.yul\":5097:5160   */\n      tag_312\n        /* \"#utility.yul\":5154:5158   */\n      0x00\n        /* \"#utility.yul\":5149:5152   */\n      dup7\n        /* \"#utility.yul\":5145:5159   */\n      add\n        /* \"#utility.yul\":5131:5143   */\n      dup3\n        /* \"#utility.yul\":5097:5160   */\n      tag_208\n      jump\t// in\n    tag_312:\n        /* \"#utility.yul\":5008:5170   */\n      pop\n        /* \"#utility.yul\":5254:5258   */\n      0x20\n        /* \"#utility.yul\":5247:5252   */\n      dup4\n        /* \"#utility.yul\":5243:5259   */\n      add\n        /* \"#utility.yul\":5237:5260   */\n      mload\n        /* \"#utility.yul\":5273:5336   */\n      tag_313\n        /* \"#utility.yul\":5330:5334   */\n      0x20\n        /* \"#utility.yul\":5325:5328   */\n      dup7\n        /* \"#utility.yul\":5321:5335   */\n      add\n        /* \"#utility.yul\":5307:5319   */\n      dup3\n        /* \"#utility.yul\":5273:5336   */\n      tag_209\n      jump\t// in\n    tag_313:\n        /* \"#utility.yul\":5180:5346   */\n      pop\n        /* \"#utility.yul\":5431:5435   */\n      0x40\n        /* \"#utility.yul\":5424:5429   */\n      dup4\n        /* \"#utility.yul\":5420:5436   */\n      add\n        /* \"#utility.yul\":5414:5437   */\n      mload\n        /* \"#utility.yul\":5484:5487   */\n      dup5\n        /* \"#utility.yul\":5478:5482   */\n      dup3\n        /* \"#utility.yul\":5474:5488   */\n      sub\n        /* \"#utility.yul\":5467:5471   */\n      0x40\n        /* \"#utility.yul\":5462:5465   */\n      dup7\n        /* \"#utility.yul\":5458:5472   */\n      add\n        /* \"#utility.yul\":5451:5489   */\n      mstore\n        /* \"#utility.yul\":5510:5583   */\n      tag_314\n        /* \"#utility.yul\":5578:5582   */\n      dup3\n        /* \"#utility.yul\":5564:5576   */\n      dup3\n        /* \"#utility.yul\":5510:5583   */\n      tag_211\n      jump\t// in\n    tag_314:\n        /* \"#utility.yul\":5502:5583   */\n      swap2\n      pop\n        /* \"#utility.yul\":5356:5594   */\n      pop\n        /* \"#utility.yul\":5677:5681   */\n      0x60\n        /* \"#utility.yul\":5670:5675   */\n      dup4\n        /* \"#utility.yul\":5666:5682   */\n      add\n        /* \"#utility.yul\":5660:5683   */\n      mload\n        /* \"#utility.yul\":5696:5759   */\n      tag_315\n        /* \"#utility.yul\":5753:5757   */\n      0x60\n        /* \"#utility.yul\":5748:5751   */\n      dup7\n        /* \"#utility.yul\":5744:5758   */\n      add\n        /* \"#utility.yul\":5730:5742   */\n      dup3\n        /* \"#utility.yul\":5696:5759   */\n      tag_208\n      jump\t// in\n    tag_315:\n        /* \"#utility.yul\":5604:5769   */\n      pop\n        /* \"#utility.yul\":5855:5859   */\n      0x80\n        /* \"#utility.yul\":5848:5853   */\n      dup4\n        /* \"#utility.yul\":5844:5860   */\n      add\n        /* \"#utility.yul\":5838:5861   */\n      mload\n        /* \"#utility.yul\":5874:5937   */\n      tag_316\n        /* \"#utility.yul\":5931:5935   */\n      0x80\n        /* \"#utility.yul\":5926:5929   */\n      dup7\n        /* \"#utility.yul\":5922:5936   */\n      add\n        /* \"#utility.yul\":5908:5920   */\n      dup3\n        /* \"#utility.yul\":5874:5937   */\n      tag_208\n      jump\t// in\n    tag_316:\n        /* \"#utility.yul\":5779:5947   */\n      pop\n        /* \"#utility.yul\":6034:6038   */\n      0xa0\n        /* \"#utility.yul\":6027:6032   */\n      dup4\n        /* \"#utility.yul\":6023:6039   */\n      add\n        /* \"#utility.yul\":6017:6040   */\n      mload\n        /* \"#utility.yul\":6053:6116   */\n      tag_317\n        /* \"#utility.yul\":6110:6114   */\n      0xa0\n        /* \"#utility.yul\":6105:6108   */\n      dup7\n        /* \"#utility.yul\":6101:6115   */\n      add\n        /* \"#utility.yul\":6087:6099   */\n      dup3\n        /* \"#utility.yul\":6053:6116   */\n      tag_208\n      jump\t// in\n    tag_317:\n        /* \"#utility.yul\":5957:6126   */\n      pop\n        /* \"#utility.yul\":6143:6147   */\n      dup1\n        /* \"#utility.yul\":6136:6147   */\n      swap2\n      pop\n        /* \"#utility.yul\":4962:6153   */\n      pop\n        /* \"#utility.yul\":4844:6153   */\n      swap3\n      swap2\n      pop\n      pop\n      jump\t// out\n        /* \"#utility.yul\":6159:6520   */\n    tag_35:\n        /* \"#utility.yul\":6296:6300   */\n      0x00\n        /* \"#utility.yul\":6334:6336   */\n      0x20\n        /* \"#utility.yul\":6323:6332   */\n      dup3\n        /* \"#utility.yul\":6319:6337   */\n      add\n        /* \"#utility.yul\":6311:6337   */\n      swap1\n      pop\n        /* \"#utility.yul\":6383:6392   */\n      dup2\n        /* \"#utility.yul\":6377:6381   */\n      dup2\n        /* \"#utility.yul\":6373:6393   */\n      sub\n        /* \"#utility.yul\":6369:6370   */\n      0x00\n        /* \"#utility.yul\":6358:6367   */\n      dup4\n        /* \"#utility.yul\":6354:6371   */\n      add\n        /* \"#utility.yul\":6347:6394   */\n      mstore\n        /* \"#utility.yul\":6411:6513   */\n      tag_319\n        /* \"#utility.yul\":6508:6512   */\n      dup2\n        /* \"#utility.yul\":6499:6505   */\n      dup5\n        /* \"#utility.yul\":6411:6513   */\n      tag_212\n      jump\t// in\n    tag_319:\n        /* \"#utility.yul\":6403:6513   */\n      swap1\n      pop\n        /* \"#utility.yul\":6159:6520   */\n      swap3\n      swap2\n      pop\n      pop\n      jump\t// out\n        /* \"#utility.yul\":6526:6748   */\n    tag_39:\n        /* \"#utility.yul\":6619:6623   */\n      0x00\n        /* \"#utility.yul\":6657:6659   */\n      0x20\n        /* \"#utility.yul\":6646:6655   */\n      dup3\n        /* \"#utility.yul\":6642:6660   */\n      add\n        /* \"#utility.yul\":6634:6660   */\n      swap1\n      pop\n        /* \"#utility.yul\":6670:6741   */\n      tag_321\n        /* \"#utility.yul\":6738:6739   */\n      0x00\n        /* \"#utility.yul\":6727:6736   */\n      dup4\n        /* \"#utility.yul\":6723:6740   */\n      add\n        /* \"#utility.yul\":6714:6720   */\n      dup5\n        /* \"#utility.yul\":6670:6741   */\n      tag_202\n      jump\t// in\n    tag_321:\n        /* \"#utility.yul\":6526:6748   */\n      swap3\n      swap2\n      pop\n      pop\n      jump\t// out\n        /* \"#utility.yul\":6754:7083   */\n    tag_42:\n        /* \"#utility.yul\":6813:6819   */\n      0x00\n        /* \"#utility.yul\":6862:6864   */\n      0x20\n        /* \"#utility.yul\":6850:6859   */\n      dup3\n        /* \"#utility.yul\":6841:6848   */\n      dup5\n        /* \"#utility.yul\":6837:6860   */\n      sub\n        /* \"#utility.yul\":6833:6865   */\n      slt\n        /* \"#utility.yul\":6830:6949   */\n      iszero\n      tag_323\n      jumpi\n        /* \"#utility.yul\":6868:6947   */\n      tag_324\n      tag_192\n      jump\t// in\n    tag_324:\n        /* \"#utility.yul\":6830:6949   */\n    tag_323:\n        /* \"#utility.yul\":6988:6989   */\n      0x00\n        /* \"#utility.yul\":7013:7066   */\n      tag_325\n        /* \"#utility.yul\":7058:7065   */\n      dup5\n        /* \"#utility.yul\":7049:7055   */\n      dup3\n        /* \"#utility.yul\":7038:7047   */\n      dup6\n        /* \"#utility.yul\":7034:7056   */\n      add\n        /* \"#utility.yul\":7013:7066   */\n      tag_197\n      jump\t// in\n    tag_325:\n        /* \"#utility.yul\":7003:7066   */\n      swap2\n      pop\n        /* \"#utility.yul\":6959:7076   */\n      pop\n        /* \"#utility.yul\":6754:7083   */\n      swap3\n      swap2\n      pop\n      pop\n      jump\t// out\n        /* \"#utility.yul\":7089:7225   */\n    tag_213:\n        /* \"#utility.yul\":7178:7184   */\n      0x00\n        /* \"#utility.yul\":7212:7217   */\n      dup2\n        /* \"#utility.yul\":7206:7218   */\n      mload\n        /* \"#utility.yul\":7196:7218   */\n      swap1\n      pop\n        /* \"#utility.yul\":7089:7225   */\n      swap2\n      swap1\n      pop\n      jump\t// out\n        /* \"#utility.yul\":7231:7437   */\n    tag_214:\n        /* \"#utility.yul\":7352:7363   */\n      0x00\n        /* \"#utility.yul\":7386:7392   */\n      dup3\n        /* \"#utility.yul\":7381:7384   */\n      dup3\n        /* \"#utility.yul\":7374:7393   */\n      mstore\n        /* \"#utility.yul\":7426:7430   */\n      0x20\n        /* \"#utility.yul\":7421:7424   */\n      dup3\n        /* \"#utility.yul\":7417:7431   */\n      add\n        /* \"#utility.yul\":7402:7431   */\n      swap1\n      pop\n        /* \"#utility.yul\":7231:7437   */\n      swap3\n      swap2\n      pop\n      pop\n      jump\t// out\n        /* \"#utility.yul\":7443:7597   */\n    tag_215:\n        /* \"#utility.yul\":7532:7536   */\n      0x00\n        /* \"#utility.yul\":7555:7558   */\n      dup2\n        /* \"#utility.yul\":7547:7558   */\n      swap1\n      pop\n        /* \"#utility.yul\":7585:7589   */\n      0x20\n        /* \"#utility.yul\":7580:7583   */\n      dup3\n        /* \"#utility.yul\":7576:7590   */\n      add\n        /* \"#utility.yul\":7568:7590   */\n      swap1\n      pop\n        /* \"#utility.yul\":7443:7597   */\n      swap2\n      swap1\n      pop\n      jump\t// out\n        /* \"#utility.yul\":7643:8942   */\n    tag_216:\n        /* \"#utility.yul\":7746:7749   */\n      0x00\n        /* \"#utility.yul\":7782:7786   */\n      0xc0\n        /* \"#utility.yul\":7777:7780   */\n      dup4\n        /* \"#utility.yul\":7773:7787   */\n      add\n        /* \"#utility.yul\":7867:7871   */\n      0x00\n        /* \"#utility.yul\":7860:7865   */\n      dup4\n        /* \"#utility.yul\":7856:7872   */\n      add\n        /* \"#utility.yul\":7850:7873   */\n      mload\n        /* \"#utility.yul\":7886:7949   */\n      tag_330\n        /* \"#utility.yul\":7943:7947   */\n      0x00\n        /* \"#utility.yul\":7938:7941   */\n      dup7\n        /* \"#utility.yul\":7934:7948   */\n      add\n        /* \"#utility.yul\":7920:7932   */\n      dup3\n        /* \"#utility.yul\":7886:7949   */\n      tag_208\n      jump\t// in\n    tag_330:\n        /* \"#utility.yul\":7797:7959   */\n      pop\n        /* \"#utility.yul\":8043:8047   */\n      0x20\n        /* \"#utility.yul\":8036:8041   */\n      dup4\n        /* \"#utility.yul\":8032:8048   */\n      add\n        /* \"#utility.yul\":8026:8049   */\n      mload\n        /* \"#utility.yul\":8062:8125   */\n      tag_331\n        /* \"#utility.yul\":8119:8123   */\n      0x20\n        /* \"#utility.yul\":8114:8117   */\n      dup7\n        /* \"#utility.yul\":8110:8124   */\n      add\n        /* \"#utility.yul\":8096:8108   */\n      dup3\n        /* \"#utility.yul\":8062:8125   */\n      tag_209\n      jump\t// in\n    tag_331:\n        /* \"#utility.yul\":7969:8135   */\n      pop\n        /* \"#utility.yul\":8220:8224   */\n      0x40\n        /* \"#utility.yul\":8213:8218   */\n      dup4\n        /* \"#utility.yul\":8209:8225   */\n      add\n        /* \"#utility.yul\":8203:8226   */\n      mload\n        /* \"#utility.yul\":8273:8276   */\n      dup5\n        /* \"#utility.yul\":8267:8271   */\n      dup3\n        /* \"#utility.yul\":8263:8277   */\n      sub\n        /* \"#utility.yul\":8256:8260   */\n      0x40\n        /* \"#utility.yul\":8251:8254   */\n      dup7\n        /* \"#utility.yul\":8247:8261   */\n      add\n        /* \"#utility.yul\":8240:8278   */\n      mstore\n        /* \"#utility.yul\":8299:8372   */\n      tag_332\n        /* \"#utility.yul\":8367:8371   */\n      dup3\n        /* \"#utility.yul\":8353:8365   */\n      dup3\n        /* \"#utility.yul\":8299:8372   */\n      tag_211\n      jump\t// in\n    tag_332:\n        /* \"#utility.yul\":8291:8372   */\n      swap2\n      pop\n        /* \"#utility.yul\":8145:8383   */\n      pop\n        /* \"#utility.yul\":8466:8470   */\n      0x60\n        /* \"#utility.yul\":8459:8464   */\n      dup4\n        /* \"#utility.yul\":8455:8471   */\n      add\n        /* \"#utility.yul\":8449:8472   */\n      mload\n        /* \"#utility.yul\":8485:8548   */\n      tag_333\n        /* \"#utility.yul\":8542:8546   */\n      0x60\n        /* \"#utility.yul\":8537:8540   */\n      dup7\n        /* \"#utility.yul\":8533:8547   */\n      add\n        /* \"#utility.yul\":8519:8531   */\n      dup3\n        /* \"#utility.yul\":8485:8548   */\n      tag_208\n      jump\t// in\n    tag_333:\n        /* \"#utility.yul\":8393:8558   */\n      pop\n        /* \"#utility.yul\":8644:8648   */\n      0x80\n        /* \"#utility.yul\":8637:8642   */\n      dup4\n        /* \"#utility.yul\":8633:8649   */\n      add\n        /* \"#utility.yul\":8627:8650   */\n      mload\n        /* \"#utility.yul\":8663:8726   */\n      tag_334\n        /* \"#utility.yul\":8720:8724   */\n      0x80\n        /* \"#utility.yul\":8715:8718   */\n      dup7\n        /* \"#utility.yul\":8711:8725   */\n      add\n        /* \"#utility.yul\":8697:8709   */\n      dup3\n        /* \"#utility.yul\":8663:8726   */\n      tag_208\n      jump\t// in\n    tag_334:\n        /* \"#utility.yul\":8568:8736   */\n      pop\n        /* \"#utility.yul\":8823:8827   */\n      0xa0\n        /* \"#utility.yul\":8816:8821   */\n      dup4\n        /* \"#utility.yul\":8812:8828   */\n      add\n        /* \"#utility.yul\":8806:8829   */\n      mload\n        /* \"#utility.yul\":8842:8905   */\n      tag_335\n        /* \"#utility.yul\":8899:8903   */\n      0xa0\n        /* \"#utility.yul\":8894:8897   */\n      dup7\n        /* \"#utility.yul\":8890:8904   */\n      add\n        /* \"#utility.yul\":8876:8888   */\n      dup3\n        /* \"#utility.yul\":8842:8905   */\n      tag_208\n      jump\t// in\n    tag_335:\n        /* \"#utility.yul\":8746:8915   */\n      pop\n        /* \"#utility.yul\":8932:8936   */\n      dup1\n        /* \"#utility.yul\":8925:8936   */\n      swap2\n      pop\n        /* \"#utility.yul\":7751:8942   */\n      pop\n        /* \"#utility.yul\":7643:8942   */\n      swap3\n      swap2\n      pop\n      pop\n      jump\t// out\n        /* \"#utility.yul\":8948:9192   */\n    tag_217:\n        /* \"#utility.yul\":9061:9071   */\n      0x00\n        /* \"#utility.yul\":9096:9186   */\n      tag_337\n        /* \"#utility.yul\":9182:9185   */\n      dup4\n        /* \"#utility.yul\":9174:9180   */\n      dup4\n        /* \"#utility.yul\":9096:9186   */\n      tag_216\n      jump\t// in\n    tag_337:\n        /* \"#utility.yul\":9082:9186   */\n      swap1\n      pop\n        /* \"#utility.yul\":8948:9192   */\n      swap3\n      swap2\n      pop\n      pop\n      jump\t// out\n        /* \"#utility.yul\":9198:9333   */\n    tag_218:\n        /* \"#utility.yul\":9290:9294   */\n      0x00\n        /* \"#utility.yul\":9322:9326   */\n      0x20\n        /* \"#utility.yul\":9317:9320   */\n      dup3\n        /* \"#utility.yul\":9313:9327   */\n      add\n        /* \"#utility.yul\":9305:9327   */\n      swap1\n      pop\n        /* \"#utility.yul\":9198:9333   */\n      swap2\n      swap1\n      pop\n      jump\t// out\n        /* \"#utility.yul\":9383:10470   */\n    tag_219:\n        /* \"#utility.yul\":9546:9549   */\n      0x00\n        /* \"#utility.yul\":9575:9651   */\n      tag_340\n        /* \"#utility.yul\":9645:9650   */\n      dup3\n        /* \"#utility.yul\":9575:9651   */\n      tag_213\n      jump\t// in\n    tag_340:\n        /* \"#utility.yul\":9667:9775   */\n      tag_341\n        /* \"#utility.yul\":9768:9774   */\n      dup2\n        /* \"#utility.yul\":9763:9766   */\n      dup6\n        /* \"#utility.yul\":9667:9775   */\n      tag_214\n      jump\t// in\n    tag_341:\n        /* \"#utility.yul\":9660:9775   */\n      swap4\n      pop\n        /* \"#utility.yul\":9801:9804   */\n      dup4\n        /* \"#utility.yul\":9846:9850   */\n      0x20\n        /* \"#utility.yul\":9838:9844   */\n      dup3\n        /* \"#utility.yul\":9834:9851   */\n      mul\n        /* \"#utility.yul\":9829:9832   */\n      dup6\n        /* \"#utility.yul\":9825:9852   */\n      add\n        /* \"#utility.yul\":9876:9954   */\n      tag_342\n        /* \"#utility.yul\":9948:9953   */\n      dup6\n        /* \"#utility.yul\":9876:9954   */\n      tag_215\n      jump\t// in\n    tag_342:\n        /* \"#utility.yul\":9977:9984   */\n      dup1\n        /* \"#utility.yul\":10008:10009   */\n      0x00\n        /* \"#utility.yul\":9993:10425   */\n    tag_343:\n        /* \"#utility.yul\":10018:10024   */\n      dup6\n        /* \"#utility.yul\":10015:10016   */\n      dup2\n        /* \"#utility.yul\":10012:10025   */\n      lt\n        /* \"#utility.yul\":9993:10425   */\n      iszero\n      tag_345\n      jumpi\n        /* \"#utility.yul\":10089:10098   */\n      dup5\n        /* \"#utility.yul\":10083:10087   */\n      dup5\n        /* \"#utility.yul\":10079:10099   */\n      sub\n        /* \"#utility.yul\":10074:10077   */\n      dup10\n        /* \"#utility.yul\":10067:10100   */\n      mstore\n        /* \"#utility.yul\":10140:10146   */\n      dup2\n        /* \"#utility.yul\":10134:10147   */\n      mload\n        /* \"#utility.yul\":10168:10276   */\n      tag_346\n        /* \"#utility.yul\":10271:10275   */\n      dup6\n        /* \"#utility.yul\":10256:10269   */\n      dup3\n        /* \"#utility.yul\":10168:10276   */\n      tag_217\n      jump\t// in\n    tag_346:\n        /* \"#utility.yul\":10160:10276   */\n      swap5\n      pop\n        /* \"#utility.yul\":10299:10381   */\n      tag_347\n        /* \"#utility.yul\":10374:10380   */\n      dup4\n        /* \"#utility.yul\":10299:10381   */\n      tag_218\n      jump\t// in\n    tag_347:\n        /* \"#utility.yul\":10289:10381   */\n      swap3\n      pop\n        /* \"#utility.yul\":10410:10414   */\n      0x20\n        /* \"#utility.yul\":10405:10408   */\n      dup11\n        /* \"#utility.yul\":10401:10415   */\n      add\n        /* \"#utility.yul\":10394:10415   */\n      swap10\n      pop\n        /* \"#utility.yul\":10053:10425   */\n      pop\n        /* \"#utility.yul\":10040:10041   */\n      0x01\n        /* \"#utility.yul\":10037:10038   */\n      dup2\n        /* \"#utility.yul\":10033:10042   */\n      add\n        /* \"#utility.yul\":10028:10042   */\n      swap1\n      pop\n        /* \"#utility.yul\":9993:10425   */\n      jump(tag_343)\n    tag_345:\n        /* \"#utility.yul\":9997:10011   */\n      pop\n        /* \"#utility.yul\":10441:10445   */\n      dup3\n        /* \"#utility.yul\":10434:10445   */\n      swap8\n      pop\n        /* \"#utility.yul\":10461:10464   */\n      dup8\n        /* \"#utility.yul\":10454:10464   */\n      swap6\n      pop\n        /* \"#utility.yul\":9551:10470   */\n      pop\n      pop\n      pop\n      pop\n      pop\n        /* \"#utility.yul\":9383:10470   */\n      swap3\n      swap2\n      pop\n      pop\n      jump\t// out\n        /* \"#utility.yul\":10476:10937   */\n    tag_45:\n        /* \"#utility.yul\":10663:10667   */\n      0x00\n        /* \"#utility.yul\":10701:10703   */\n      0x20\n        /* \"#utility.yul\":10690:10699   */\n      dup3\n        /* \"#utility.yul\":10686:10704   */\n      add\n        /* \"#utility.yul\":10678:10704   */\n      swap1\n      pop\n        /* \"#utility.yul\":10750:10759   */\n      dup2\n        /* \"#utility.yul\":10744:10748   */\n      dup2\n        /* \"#utility.yul\":10740:10760   */\n      sub\n        /* \"#utility.yul\":10736:10737   */\n      0x00\n        /* \"#utility.yul\":10725:10734   */\n      dup4\n        /* \"#utility.yul\":10721:10738   */\n      add\n        /* \"#utility.yul\":10714:10761   */\n      mstore\n        /* \"#utility.yul\":10778:10930   */\n      tag_349\n        /* \"#utility.yul\":10925:10929   */\n      dup2\n        /* \"#utility.yul\":10916:10922   */\n      dup5\n        /* \"#utility.yul\":10778:10930   */\n      tag_219\n      jump\t// in\n    tag_349:\n        /* \"#utility.yul\":10770:10930   */\n      swap1\n      pop\n        /* \"#utility.yul\":10476:10937   */\n      swap3\n      swap2\n      pop\n      pop\n      jump\t// out\n        /* \"#utility.yul\":10943:11165   */\n    tag_50:\n        /* \"#utility.yul\":11036:11040   */\n      0x00\n        /* \"#utility.yul\":11074:11076   */\n      0x20\n        /* \"#utility.yul\":11063:11072   */\n      dup3\n        /* \"#utility.yul\":11059:11077   */\n      add\n        /* \"#utility.yul\":11051:11077   */\n      swap1\n      pop\n        /* \"#utility.yul\":11087:11158   */\n      tag_351\n        /* \"#utility.yul\":11155:11156   */\n      0x00\n        /* \"#utility.yul\":11144:11153   */\n      dup4\n        /* \"#utility.yul\":11140:11157   */\n      add\n        /* \"#utility.yul\":11131:11137   */\n      dup5\n        /* \"#utility.yul\":11087:11158   */\n      tag_201\n      jump\t// in\n    tag_351:\n        /* \"#utility.yul\":10943:11165   */\n      swap3\n      swap2\n      pop\n      pop\n      jump\t// out\n        /* \"#utility.yul\":11171:11288   */\n    tag_220:\n        /* \"#utility.yul\":11280:11281   */\n      0x00\n        /* \"#utility.yul\":11277:11278   */\n      0x00\n        /* \"#utility.yul\":11270:11282   */\n      revert\n        /* \"#utility.yul\":11294:11411   */\n    tag_221:\n        /* \"#utility.yul\":11403:11404   */\n      0x00\n        /* \"#utility.yul\":11400:11401   */\n      0x00\n        /* \"#utility.yul\":11393:11405   */\n      revert\n        /* \"#utility.yul\":11417:11597   */\n    tag_222:\n        /* \"#utility.yul\":11465:11542   */\n      0x4e487b7100000000000000000000000000000000000000000000000000000000\n        /* \"#utility.yul\":11462:11463   */\n      0x00\n        /* \"#utility.yul\":11455:11543   */\n      mstore\n        /* \"#utility.yul\":11562:11566   */\n      0x41\n        /* \"#utility.yul\":11559:11560   */\n      0x04\n        /* \"#utility.yul\":11552:11567   */\n      mstore\n        /* \"#utility.yul\":11586:11590   */\n      0x24\n        /* \"#utility.yul\":11583:11584   */\n      0x00\n        /* \"#utility.yul\":11576:11591   */\n      revert\n        /* \"#utility.yul\":11603:11884   */\n    tag_223:\n        /* \"#utility.yul\":11686:11713   */\n      tag_356\n        /* \"#utility.yul\":11708:11712   */\n      dup3\n        /* \"#utility.yul\":11686:11713   */\n      tag_206\n      jump\t// in\n    tag_356:\n        /* \"#utility.yul\":11678:11684   */\n      dup2\n        /* \"#utility.yul\":11674:11714   */\n      add\n        /* \"#utility.yul\":11816:11822   */\n      dup2\n        /* \"#utility.yul\":11804:11814   */\n      dup2\n        /* \"#utility.yul\":11801:11823   */\n      lt\n        /* \"#utility.yul\":11780:11798   */\n      0xffffffffffffffff\n        /* \"#utility.yul\":11768:11778   */\n      dup3\n        /* \"#utility.yul\":11765:11799   */\n      gt\n        /* \"#utility.yul\":11762:11824   */\n      or\n        /* \"#utility.yul\":11759:11847   */\n      iszero\n      tag_357\n      jumpi\n        /* \"#utility.yul\":11827:11845   */\n      tag_358\n      tag_222\n      jump\t// in\n    tag_358:\n        /* \"#utility.yul\":11759:11847   */\n    tag_357:\n        /* \"#utility.yul\":11867:11877   */\n      dup1\n        /* \"#utility.yul\":11863:11865   */\n      0x40\n        /* \"#utility.yul\":11856:11878   */\n      mstore\n        /* \"#utility.yul\":11646:11884   */\n      pop\n        /* \"#utility.yul\":11603:11884   */\n      pop\n      pop\n      jump\t// out\n        /* \"#utility.yul\":11890:12019   */\n    tag_224:\n        /* \"#utility.yul\":11924:11930   */\n      0x00\n        /* \"#utility.yul\":11951:11971   */\n      tag_360\n      tag_191\n      jump\t// in\n    tag_360:\n        /* \"#utility.yul\":11941:11971   */\n      swap1\n      pop\n        /* \"#utility.yul\":11980:12013   */\n      tag_361\n        /* \"#utility.yul\":12008:12012   */\n      dup3\n        /* \"#utility.yul\":12000:12006   */\n      dup3\n        /* \"#utility.yul\":11980:12013   */\n      tag_223\n      jump\t// in\n    tag_361:\n        /* \"#utility.yul\":11890:12019   */\n      swap2\n      swap1\n      pop\n      jump\t// out\n        /* \"#utility.yul\":12025:12333   */\n    tag_225:\n        /* \"#utility.yul\":12087:12091   */\n      0x00\n        /* \"#utility.yul\":12177:12195   */\n      0xffffffffffffffff\n        /* \"#utility.yul\":12169:12175   */\n      dup3\n        /* \"#utility.yul\":12166:12196   */\n      gt\n        /* \"#utility.yul\":12163:12219   */\n      iszero\n      tag_363\n      jumpi\n        /* \"#utility.yul\":12199:12217   */\n      tag_364\n      tag_222\n      jump\t// in\n    tag_364:\n        /* \"#utility.yul\":12163:12219   */\n    tag_363:\n        /* \"#utility.yul\":12237:12266   */\n      tag_365\n        /* \"#utility.yul\":12259:12265   */\n      dup3\n        /* \"#utility.yul\":12237:12266   */\n      tag_206\n      jump\t// in\n    tag_365:\n        /* \"#utility.yul\":12229:12266   */\n      swap1\n      pop\n        /* \"#utility.yul\":12321:12325   */\n      0x20\n        /* \"#utility.yul\":12315:12319   */\n      dup2\n        /* \"#utility.yul\":12311:12326   */\n      add\n        /* \"#utility.yul\":12303:12326   */\n      swap1\n      pop\n        /* \"#utility.yul\":12025:12333   */\n      swap2\n      swap1\n      pop\n      jump\t// out\n        /* \"#utility.yul\":12339:12487   */\n    tag_226:\n        /* \"#utility.yul\":12437:12443   */\n      dup3\n        /* \"#utility.yul\":12432:12435   */\n      dup2\n        /* \"#utility.yul\":12427:12430   */\n      dup4\n        /* \"#utility.yul\":12414:12444   */\n      calldatacopy\n        /* \"#utility.yul\":12478:12479   */\n      0x00\n        /* \"#utility.yul\":12469:12475   */\n      dup4\n        /* \"#utility.yul\":12464:12467   */\n      dup4\n        /* \"#utility.yul\":12460:12476   */\n      add\n        /* \"#utility.yul\":12453:12480   */\n      mstore\n        /* \"#utility.yul\":12339:12487   */\n      pop\n      pop\n      pop\n      jump\t// out\n        /* \"#utility.yul\":12493:12918   */\n    tag_227:\n        /* \"#utility.yul\":12571:12576   */\n      0x00\n        /* \"#utility.yul\":12596:12662   */\n      tag_368\n        /* \"#utility.yul\":12612:12661   */\n      tag_369\n        /* \"#utility.yul\":12654:12660   */\n      dup5\n        /* \"#utility.yul\":12612:12661   */\n      tag_225\n      jump\t// in\n    tag_369:\n        /* \"#utility.yul\":12596:12662   */\n      tag_224\n      jump\t// in\n    tag_368:\n        /* \"#utility.yul\":12587:12662   */\n      swap1\n      pop\n        /* \"#utility.yul\":12685:12691   */\n      dup3\n        /* \"#utility.yul\":12678:12683   */\n      dup2\n        /* \"#utility.yul\":12671:12692   */\n      mstore\n        /* \"#utility.yul\":12723:12727   */\n      0x20\n        /* \"#utility.yul\":12716:12721   */\n      dup2\n        /* \"#utility.yul\":12712:12728   */\n      add\n        /* \"#utility.yul\":12761:12764   */\n      dup5\n        /* \"#utility.yul\":12752:12758   */\n      dup5\n        /* \"#utility.yul\":12747:12750   */\n      dup5\n        /* \"#utility.yul\":12743:12759   */\n      add\n        /* \"#utility.yul\":12740:12765   */\n      gt\n        /* \"#utility.yul\":12737:12849   */\n      iszero\n      tag_370\n      jumpi\n        /* \"#utility.yul\":12768:12847   */\n      tag_371\n      tag_221\n      jump\t// in\n    tag_371:\n        /* \"#utility.yul\":12737:12849   */\n    tag_370:\n        /* \"#utility.yul\":12858:12912   */\n      tag_372\n        /* \"#utility.yul\":12905:12911   */\n      dup5\n        /* \"#utility.yul\":12900:12903   */\n      dup3\n        /* \"#utility.yul\":12895:12898   */\n      dup6\n        /* \"#utility.yul\":12858:12912   */\n      tag_226\n      jump\t// in\n    tag_372:\n        /* \"#utility.yul\":12577:12918   */\n      pop\n        /* \"#utility.yul\":12493:12918   */\n      swap4\n      swap3\n      pop\n      pop\n      pop\n      jump\t// out\n        /* \"#utility.yul\":12938:13278   */\n    tag_228:\n        /* \"#utility.yul\":12994:12999   */\n      0x00\n        /* \"#utility.yul\":13043:13046   */\n      dup3\n        /* \"#utility.yul\":13036:13040   */\n      0x1f\n        /* \"#utility.yul\":13028:13034   */\n      dup4\n        /* \"#utility.yul\":13024:13041   */\n      add\n        /* \"#utility.yul\":13020:13047   */\n      slt\n        /* \"#utility.yul\":13010:13132   */\n      tag_374\n      jumpi\n        /* \"#utility.yul\":13051:13130   */\n      tag_375\n      tag_220\n      jump\t// in\n    tag_375:\n        /* \"#utility.yul\":13010:13132   */\n    tag_374:\n        /* \"#utility.yul\":13168:13174   */\n      dup2\n        /* \"#utility.yul\":13155:13175   */\n      calldataload\n        /* \"#utility.yul\":13193:13272   */\n      tag_376\n        /* \"#utility.yul\":13268:13271   */\n      dup5\n        /* \"#utility.yul\":13260:13266   */\n      dup3\n        /* \"#utility.yul\":13253:13257   */\n      0x20\n        /* \"#utility.yul\":13245:13251   */\n      dup7\n        /* \"#utility.yul\":13241:13258   */\n      add\n        /* \"#utility.yul\":13193:13272   */\n      tag_227\n      jump\t// in\n    tag_376:\n        /* \"#utility.yul\":13184:13272   */\n      swap2\n      pop\n        /* \"#utility.yul\":13000:13278   */\n      pop\n        /* \"#utility.yul\":12938:13278   */\n      swap3\n      swap2\n      pop\n      pop\n      jump\t// out\n        /* \"#utility.yul\":13284:13793   */\n    tag_56:\n        /* \"#utility.yul\":13353:13359   */\n      0x00\n        /* \"#utility.yul\":13402:13404   */\n      0x20\n        /* \"#utility.yul\":13390:13399   */\n      dup3\n        /* \"#utility.yul\":13381:13388   */\n      dup5\n        /* \"#utility.yul\":13377:13400   */\n      sub\n        /* \"#utility.yul\":13373:13405   */\n      slt\n        /* \"#utility.yul\":13370:13489   */\n      iszero\n      tag_378\n      jumpi\n        /* \"#utility.yul\":13408:13487   */\n      tag_379\n      tag_192\n      jump\t// in\n    tag_379:\n        /* \"#utility.yul\":13370:13489   */\n    tag_378:\n        /* \"#utility.yul\":13556:13557   */\n      0x00\n        /* \"#utility.yul\":13545:13554   */\n      dup3\n        /* \"#utility.yul\":13541:13558   */\n      add\n        /* \"#utility.yul\":13528:13559   */\n      calldataload\n        /* \"#utility.yul\":13586:13604   */\n      0xffffffffffffffff\n        /* \"#utility.yul\":13578:13584   */\n      dup2\n        /* \"#utility.yul\":13575:13605   */\n      gt\n        /* \"#utility.yul\":13572:13689   */\n      iszero\n      tag_380\n      jumpi\n        /* \"#utility.yul\":13608:13687   */\n      tag_381\n      tag_193\n      jump\t// in\n    tag_381:\n        /* \"#utility.yul\":13572:13689   */\n    tag_380:\n        /* \"#utility.yul\":13713:13776   */\n      tag_382\n        /* \"#utility.yul\":13768:13775   */\n      dup5\n        /* \"#utility.yul\":13759:13765   */\n      dup3\n        /* \"#utility.yul\":13748:13757   */\n      dup6\n        /* \"#utility.yul\":13744:13766   */\n      add\n        /* \"#utility.yul\":13713:13776   */\n      tag_228\n      jump\t// in\n    tag_382:\n        /* \"#utility.yul\":13703:13776   */\n      swap2\n      pop\n        /* \"#utility.yul\":13499:13786   */\n      pop\n        /* \"#utility.yul\":13284:13793   */\n      swap3\n      swap2\n      pop\n      pop\n      jump\t// out\n        /* \"#utility.yul\":13799:13979   */\n    tag_229:\n        /* \"#utility.yul\":13847:13924   */\n      0x4e487b7100000000000000000000000000000000000000000000000000000000\n        /* \"#utility.yul\":13844:13845   */\n      0x00\n        /* \"#utility.yul\":13837:13925   */\n      mstore\n        /* \"#utility.yul\":13944:13948   */\n      0x22\n        /* \"#utility.yul\":13941:13942   */\n      0x04\n        /* \"#utility.yul\":13934:13949   */\n      mstore\n        /* \"#utility.yul\":13968:13972   */\n      0x24\n        /* \"#utility.yul\":13965:13966   */\n      0x00\n        /* \"#utility.yul\":13958:13973   */\n      revert\n        /* \"#utility.yul\":13985:14305   */\n    tag_67:\n        /* \"#utility.yul\":14029:14035   */\n      0x00\n        /* \"#utility.yul\":14066:14067   */\n      0x02\n        /* \"#utility.yul\":14060:14064   */\n      dup3\n        /* \"#utility.yul\":14056:14068   */\n      div\n        /* \"#utility.yul\":14046:14068   */\n      swap1\n      pop\n        /* \"#utility.yul\":14113:14114   */\n      0x01\n        /* \"#utility.yul\":14107:14111   */\n      dup3\n        /* \"#utility.yul\":14103:14115   */\n      and\n        /* \"#utility.yul\":14134:14152   */\n      dup1\n        /* \"#utility.yul\":14124:14205   */\n      tag_385\n      jumpi\n        /* \"#utility.yul\":14190:14194   */\n      0x7f\n        /* \"#utility.yul\":14182:14188   */\n      dup3\n        /* \"#utility.yul\":14178:14195   */\n      and\n        /* \"#utility.yul\":14168:14195   */\n      swap2\n      pop\n        /* \"#utility.yul\":14124:14205   */\n    tag_385:\n        /* \"#utility.yul\":14252:14254   */\n      0x20\n        /* \"#utility.yul\":14244:14250   */\n      dup3\n        /* \"#utility.yul\":14241:14255   */\n      lt\n        /* \"#utility.yul\":14221:14239   */\n      dup2\n        /* \"#utility.yul\":14218:14256   */\n      sub\n        /* \"#utility.yul\":14215:14299   */\n      tag_386\n      jumpi\n        /* \"#utility.yul\":14271:14289   */\n      tag_387\n      tag_229\n      jump\t// in\n    tag_387:\n        /* \"#utility.yul\":14215:14299   */\n    tag_386:\n        /* \"#utility.yul\":14036:14305   */\n      pop\n        /* \"#utility.yul\":13985:14305   */\n      swap2\n      swap1\n      pop\n      jump\t// out\n        /* \"#utility.yul\":14311:14491   */\n    tag_75:\n        /* \"#utility.yul\":14359:14436   */\n      0x4e487b7100000000000000000000000000000000000000000000000000000000\n        /* \"#utility.yul\":14356:14357   */\n      0x00\n        /* \"#utility.yul\":14349:14437   */\n      mstore\n        /* \"#utility.yul\":14456:14460   */\n      0x32\n        /* \"#utility.yul\":14453:14454   */\n      0x04\n        /* \"#utility.yul\":14446:14461   */\n      mstore\n        /* \"#utility.yul\":14480:14484   */\n      0x24\n        /* \"#utility.yul\":14477:14478   */\n      0x00\n        /* \"#utility.yul\":14470:14485   */\n      revert\n        /* \"#utility.yul\":14497:14677   */\n    tag_230:\n        /* \"#utility.yul\":14545:14622   */\n      0x4e487b7100000000000000000000000000000000000000000000000000000000\n        /* \"#utility.yul\":14542:14543   */\n      0x00\n        /* \"#utility.yul\":14535:14623   */\n      mstore\n        /* \"#utility.yul\":14642:14646   */\n      0x11\n        /* \"#utility.yul\":14639:14640   */\n      0x04\n        /* \"#utility.yul\":14632:14647   */\n      mstore\n        /* \"#utility.yul\":14666:14670   */\n      0x24\n        /* \"#utility.yul\":14663:14664   */\n      0x00\n        /* \"#utility.yul\":14656:14671   */\n      revert\n        /* \"#utility.yul\":14683:14874   */\n    tag_121:\n        /* \"#utility.yul\":14723:14726   */\n      0x00\n        /* \"#utility.yul\":14742:14762   */\n      tag_391\n        /* \"#utility.yul\":14760:14761   */\n      dup3\n        /* \"#utility.yul\":14742:14762   */\n      tag_198\n      jump\t// in\n    tag_391:\n        /* \"#utility.yul\":14737:14762   */\n      swap2\n      pop\n        /* \"#utility.yul\":14776:14796   */\n      tag_392\n        /* \"#utility.yul\":14794:14795   */\n      dup4\n        /* \"#utility.yul\":14776:14796   */\n      tag_198\n      jump\t// in\n    tag_392:\n        /* \"#utility.yul\":14771:14796   */\n      swap3\n      pop\n        /* \"#utility.yul\":14819:14820   */\n      dup3\n        /* \"#utility.yul\":14816:14817   */\n      dup3\n        /* \"#utility.yul\":14812:14821   */\n      add\n        /* \"#utility.yul\":14805:14821   */\n      swap1\n      pop\n        /* \"#utility.yul\":14840:14843   */\n      dup1\n        /* \"#utility.yul\":14837:14838   */\n      dup3\n        /* \"#utility.yul\":14834:14844   */\n      gt\n        /* \"#utility.yul\":14831:14867   */\n      iszero\n      tag_393\n      jumpi\n        /* \"#utility.yul\":14847:14865   */\n      tag_394\n      tag_230\n      jump\t// in\n    tag_394:\n        /* \"#utility.yul\":14831:14867   */\n    tag_393:\n        /* \"#utility.yul\":14683:14874   */\n      swap3\n      swap2\n      pop\n      pop\n      jump\t// out\n        /* \"#utility.yul\":14880:15048   */\n    tag_231:\n        /* \"#utility.yul\":15020:15040   */\n      0x706f737420646f65736e6f7420666f756e640000000000000000000000000000\n        /* \"#utility.yul\":15016:15017   */\n      0x00\n        /* \"#utility.yul\":15008:15014   */\n      dup3\n        /* \"#utility.yul\":15004:15018   */\n      add\n        /* \"#utility.yul\":14997:15041   */\n      mstore\n        /* \"#utility.yul\":14880:15048   */\n      pop\n      jump\t// out\n        /* \"#utility.yul\":15054:15420   */\n    tag_232:\n        /* \"#utility.yul\":15196:15199   */\n      0x00\n        /* \"#utility.yul\":15217:15284   */\n      tag_397\n        /* \"#utility.yul\":15281:15283   */\n      0x12\n        /* \"#utility.yul\":15276:15279   */\n      dup4\n        /* \"#utility.yul\":15217:15284   */\n      tag_204\n      jump\t// in\n    tag_397:\n        /* \"#utility.yul\":15210:15284   */\n      swap2\n      pop\n        /* \"#utility.yul\":15293:15386   */\n      tag_398\n        /* \"#utility.yul\":15382:15385   */\n      dup3\n        /* \"#utility.yul\":15293:15386   */\n      tag_231\n      jump\t// in\n    tag_398:\n        /* \"#utility.yul\":15411:15413   */\n      0x20\n        /* \"#utility.yul\":15406:15409   */\n      dup3\n        /* \"#utility.yul\":15402:15414   */\n      add\n        /* \"#utility.yul\":15395:15414   */\n      swap1\n      pop\n        /* \"#utility.yul\":15054:15420   */\n      swap2\n      swap1\n      pop\n      jump\t// out\n        /* \"#utility.yul\":15426:15845   */\n    tag_128:\n        /* \"#utility.yul\":15592:15596   */\n      0x00\n        /* \"#utility.yul\":15630:15632   */\n      0x20\n        /* \"#utility.yul\":15619:15628   */\n      dup3\n        /* \"#utility.yul\":15615:15633   */\n      add\n        /* \"#utility.yul\":15607:15633   */\n      swap1\n      pop\n        /* \"#utility.yul\":15679:15688   */\n      dup2\n        /* \"#utility.yul\":15673:15677   */\n      dup2\n        /* \"#utility.yul\":15669:15689   */\n      sub\n        /* \"#utility.yul\":15665:15666   */\n      0x00\n        /* \"#utility.yul\":15654:15663   */\n      dup4\n        /* \"#utility.yul\":15650:15667   */\n      add\n        /* \"#utility.yul\":15643:15690   */\n      mstore\n        /* \"#utility.yul\":15707:15838   */\n      tag_400\n        /* \"#utility.yul\":15833:15837   */\n      dup2\n        /* \"#utility.yul\":15707:15838   */\n      tag_232\n      jump\t// in\n    tag_400:\n        /* \"#utility.yul\":15699:15838   */\n      swap1\n      pop\n        /* \"#utility.yul\":15426:15845   */\n      swap2\n      swap1\n      pop\n      jump\t// out\n        /* \"#utility.yul\":15851:16084   */\n    tag_133:\n        /* \"#utility.yul\":15890:15893   */\n      0x00\n        /* \"#utility.yul\":15913:15937   */\n      tag_402\n        /* \"#utility.yul\":15931:15936   */\n      dup3\n        /* \"#utility.yul\":15913:15937   */\n      tag_198\n      jump\t// in\n    tag_402:\n        /* \"#utility.yul\":15904:15937   */\n      swap2\n      pop\n        /* \"#utility.yul\":15959:16025   */\n      0xffffffffffffffffffffffffffffffffffffffffffffffffffffffffffffffff\n        /* \"#utility.yul\":15952:15957   */\n      dup3\n        /* \"#utility.yul\":15949:16026   */\n      sub\n        /* \"#utility.yul\":15946:16049   */\n      tag_403\n      jumpi\n        /* \"#utility.yul\":16029:16047   */\n      tag_404\n      tag_230\n      jump\t// in\n    tag_404:\n        /* \"#utility.yul\":15946:16049   */\n    tag_403:\n        /* \"#utility.yul\":16076:16077   */\n      0x01\n        /* \"#utility.yul\":16069:16074   */\n      dup3\n        /* \"#utility.yul\":16065:16078   */\n      add\n        /* \"#utility.yul\":16058:16078   */\n      swap1\n      pop\n        /* \"#utility.yul\":15851:16084   */\n      swap2\n      swap1\n      pop\n      jump\t// out\n        /* \"#utility.yul\":16090:16319   */\n    tag_233:\n        /* \"#utility.yul\":16230:16264   */\n      0x74776565742063616e6e6f74206265206c6f6e676572207468616e2032353620\n        /* \"#utility.yul\":16226:16227   */\n      0x00\n        /* \"#utility.yul\":16218:16224   */\n      dup3\n        /* \"#utility.yul\":16214:16228   */\n      add\n        /* \"#utility.yul\":16207:16265   */\n      mstore\n        /* \"#utility.yul\":16299:16311   */\n      0x6368617261637465727300000000000000000000000000000000000000000000\n        /* \"#utility.yul\":16294:16296   */\n      0x20\n        /* \"#utility.yul\":16286:16292   */\n      dup3\n        /* \"#utility.yul\":16282:16297   */\n      add\n        /* \"#utility.yul\":16275:16312   */\n      mstore\n        /* \"#utility.yul\":16090:16319   */\n      pop\n      jump\t// out\n        /* \"#utility.yul\":16325:16691   */\n    tag_234:\n        /* \"#utility.yul\":16467:16470   */\n      0x00\n        /* \"#utility.yul\":16488:16555   */\n      tag_407\n        /* \"#utility.yul\":16552:16554   */\n      0x2a\n        /* \"#utility.yul\":16547:16550   */\n      dup4\n        /* \"#utility.yul\":16488:16555   */\n      tag_204\n      jump\t// in\n    tag_407:\n        /* \"#utility.yul\":16481:16555   */\n      swap2\n      pop\n        /* \"#utility.yul\":16564:16657   */\n      tag_408\n        /* \"#utility.yul\":16653:16656   */\n      dup3\n        /* \"#utility.yul\":16564:16657   */\n      tag_233\n      jump\t// in\n    tag_408:\n        /* \"#utility.yul\":16682:16684   */\n      0x40\n        /* \"#utility.yul\":16677:16680   */\n      dup3\n        /* \"#utility.yul\":16673:16685   */\n      add\n        /* \"#utility.yul\":16666:16685   */\n      swap1\n      pop\n        /* \"#utility.yul\":16325:16691   */\n      swap2\n      swap1\n      pop\n      jump\t// out\n        /* \"#utility.yul\":16697:17116   */\n    tag_141:\n        /* \"#utility.yul\":16863:16867   */\n      0x00\n        /* \"#utility.yul\":16901:16903   */\n      0x20\n        /* \"#utility.yul\":16890:16899   */\n      dup3\n        /* \"#utility.yul\":16886:16904   */\n      add\n        /* \"#utility.yul\":16878:16904   */\n      swap1\n      pop\n        /* \"#utility.yul\":16950:16959   */\n      dup2\n        /* \"#utility.yul\":16944:16948   */\n      dup2\n        /* \"#utility.yul\":16940:16960   */\n      sub\n        /* \"#utility.yul\":16936:16937   */\n      0x00\n        /* \"#utility.yul\":16925:16934   */\n      dup4\n        /* \"#utility.yul\":16921:16938   */\n      add\n        /* \"#utility.yul\":16914:16961   */\n      mstore\n        /* \"#utility.yul\":16978:17109   */\n      tag_410\n        /* \"#utility.yul\":17104:17108   */\n      dup2\n        /* \"#utility.yul\":16978:17109   */\n      tag_234\n      jump\t// in\n    tag_410:\n        /* \"#utility.yul\":16970:17109   */\n      swap1\n      pop\n        /* \"#utility.yul\":16697:17116   */\n      swap2\n      swap1\n      pop\n      jump\t// out\n        /* \"#utility.yul\":17122:17263   */\n    tag_235:\n        /* \"#utility.yul\":17171:17175   */\n      0x00\n        /* \"#utility.yul\":17194:17197   */\n      dup2\n        /* \"#utility.yul\":17186:17197   */\n      swap1\n      pop\n        /* \"#utility.yul\":17217:17220   */\n      dup2\n        /* \"#utility.yul\":17214:17215   */\n      0x00\n        /* \"#utility.yul\":17207:17221   */\n      mstore\n        /* \"#utility.yul\":17251:17255   */\n      0x20\n        /* \"#utility.yul\":17248:17249   */\n      0x00\n        /* \"#utility.yul\":17238:17256   */\n      keccak256\n        /* \"#utility.yul\":17230:17256   */\n      swap1\n      pop\n        /* \"#utility.yul\":17122:17263   */\n      swap2\n      swap1\n      pop\n      jump\t// out\n        /* \"#utility.yul\":17269:17362   */\n    tag_236:\n        /* \"#utility.yul\":17306:17312   */\n      0x00\n        /* \"#utility.yul\":17353:17355   */\n      0x20\n        /* \"#utility.yul\":17348:17350   */\n      0x1f\n        /* \"#utility.yul\":17341:17346   */\n      dup4\n        /* \"#utility.yul\":17337:17351   */\n      add\n        /* \"#utility.yul\":17333:17356   */\n      div\n        /* \"#utility.yul\":17323:17356   */\n      swap1\n      pop\n        /* \"#utility.yul\":17269:17362   */\n      swap2\n      swap1\n      pop\n      jump\t// out\n        /* \"#utility.yul\":17368:17475   */\n    tag_237:\n        /* \"#utility.yul\":17412:17420   */\n      0x00\n        /* \"#utility.yul\":17462:17467   */\n      dup3\n        /* \"#utility.yul\":17456:17460   */\n      dup3\n        /* \"#utility.yul\":17452:17468   */\n      shl\n        /* \"#utility.yul\":17431:17468   */\n      swap1\n      pop\n        /* \"#utility.yul\":17368:17475   */\n      swap3\n      swap2\n      pop\n      pop\n      jump\t// out\n        /* \"#utility.yul\":17481:17874   */\n    tag_238:\n        /* \"#utility.yul\":17550:17556   */\n      0x00\n        /* \"#utility.yul\":17600:17601   */\n      0x08\n        /* \"#utility.yul\":17588:17598   */\n      dup4\n        /* \"#utility.yul\":17584:17602   */\n      mul\n        /* \"#utility.yul\":17623:17720   */\n      tag_415\n        /* \"#utility.yul\":17653:17719   */\n      0xffffffffffffffffffffffffffffffffffffffffffffffffffffffffffffffff\n        /* \"#utility.yul\":17642:17651   */\n      dup3\n        /* \"#utility.yul\":17623:17720   */\n      tag_237\n      jump\t// in\n    tag_415:\n        /* \"#utility.yul\":17741:17780   */\n      tag_416\n        /* \"#utility.yul\":17771:17779   */\n      dup7\n        /* \"#utility.yul\":17760:17769   */\n      dup4\n        /* \"#utility.yul\":17741:17780   */\n      tag_237\n      jump\t// in\n    tag_416:\n        /* \"#utility.yul\":17729:17780   */\n      swap6\n      pop\n        /* \"#utility.yul\":17813:17817   */\n      dup1\n        /* \"#utility.yul\":17809:17818   */\n      not\n        /* \"#utility.yul\":17802:17807   */\n      dup5\n        /* \"#utility.yul\":17798:17819   */\n      and\n        /* \"#utility.yul\":17789:17819   */\n      swap4\n      pop\n        /* \"#utility.yul\":17862:17866   */\n      dup1\n        /* \"#utility.yul\":17852:17860   */\n      dup7\n        /* \"#utility.yul\":17848:17867   */\n      and\n        /* \"#utility.yul\":17841:17846   */\n      dup5\n        /* \"#utility.yul\":17838:17868   */\n      or\n        /* \"#utility.yul\":17828:17868   */\n      swap3\n      pop\n        /* \"#utility.yul\":17557:17874   */\n      pop\n      pop\n        /* \"#utility.yul\":17481:17874   */\n      swap4\n      swap3\n      pop\n      pop\n      pop\n      jump\t// out\n        /* \"#utility.yul\":17880:17940   */\n    tag_239:\n        /* \"#utility.yul\":17908:17911   */\n      0x00\n        /* \"#utility.yul\":17929:17934   */\n      dup2\n        /* \"#utility.yul\":17922:17934   */\n      swap1\n      pop\n        /* \"#utility.yul\":17880:17940   */\n      swap2\n      swap1\n      pop\n      jump\t// out\n        /* \"#utility.yul\":17946:18088   */\n    tag_240:\n        /* \"#utility.yul\":17996:18005   */\n      0x00\n        /* \"#utility.yul\":18029:18082   */\n      tag_419\n        /* \"#utility.yul\":18047:18081   */\n      tag_420\n        /* \"#utility.yul\":18056:18080   */\n      tag_421\n        /* \"#utility.yul\":18074:18079   */\n      dup5\n        /* \"#utility.yul\":18056:18080   */\n      tag_198\n      jump\t// in\n    tag_421:\n        /* \"#utility.yul\":18047:18081   */\n      tag_239\n      jump\t// in\n    tag_420:\n        /* \"#utility.yul\":18029:18082   */\n      tag_198\n      jump\t// in\n    tag_419:\n        /* \"#utility.yul\":18016:18082   */\n      swap1\n      pop\n        /* \"#utility.yul\":17946:18088   */\n      swap2\n      swap1\n      pop\n      jump\t// out\n        /* \"#utility.yul\":18094:18169   */\n    tag_241:\n        /* \"#utility.yul\":18137:18140   */\n      0x00\n        /* \"#utility.yul\":18158:18163   */\n      dup2\n        /* \"#utility.yul\":18151:18163   */\n      swap1\n      pop\n        /* \"#utility.yul\":18094:18169   */\n      swap2\n      swap1\n      pop\n      jump\t// out\n        /* \"#utility.yul\":18175:18444   */\n    tag_242:\n        /* \"#utility.yul\":18285:18324   */\n      tag_424\n        /* \"#utility.yul\":18316:18323   */\n      dup4\n        /* \"#utility.yul\":18285:18324   */\n      tag_240\n      jump\t// in\n    tag_424:\n        /* \"#utility.yul\":18346:18437   */\n      tag_425\n        /* \"#utility.yul\":18395:18436   */\n      tag_426\n        /* \"#utility.yul\":18419:18435   */\n      dup3\n        /* \"#utility.yul\":18395:18436   */\n      tag_241\n      jump\t// in\n    tag_426:\n        /* \"#utility.yul\":18387:18393   */\n      dup5\n        /* \"#utility.yul\":18380:18384   */\n      dup5\n        /* \"#utility.yul\":18374:18385   */\n      sload\n        /* \"#utility.yul\":18346:18437   */\n      tag_238\n      jump\t// in\n    tag_425:\n        /* \"#utility.yul\":18340:18344   */\n      dup3\n        /* \"#utility.yul\":18333:18438   */\n      sstore\n        /* \"#utility.yul\":18251:18444   */\n      pop\n        /* \"#utility.yul\":18175:18444   */\n      pop\n      pop\n      pop\n      jump\t// out\n        /* \"#utility.yul\":18450:18523   */\n    tag_243:\n        /* \"#utility.yul\":18495:18498   */\n      0x00\n        /* \"#utility.yul\":18516:18517   */\n      0x00\n        /* \"#utility.yul\":18509:18517   */\n      swap1\n      pop\n        /* \"#utility.yul\":18450:18523   */\n      swap1\n      jump\t// out\n        /* \"#utility.yul\":18529:18718   */\n    tag_244:\n        /* \"#utility.yul\":18606:18638   */\n      tag_429\n      tag_243\n      jump\t// in\n    tag_429:\n        /* \"#utility.yul\":18647:18712   */\n      tag_430\n        /* \"#utility.yul\":18705:18711   */\n      dup2\n        /* \"#utility.yul\":18697:18703   */\n      dup5\n        /* \"#utility.yul\":18691:18695   */\n      dup5\n        /* \"#utility.yul\":18647:18712   */\n      tag_242\n      jump\t// in\n    tag_430:\n        /* \"#utility.yul\":18582:18718   */\n      pop\n        /* \"#utility.yul\":18529:18718   */\n      pop\n      pop\n      jump\t// out\n        /* \"#utility.yul\":18724:18910   */\n    tag_245:\n        /* \"#utility.yul\":18784:18904   */\n    tag_432:\n        /* \"#utility.yul\":18801:18804   */\n      dup2\n        /* \"#utility.yul\":18794:18799   */\n      dup2\n        /* \"#utility.yul\":18791:18805   */\n      lt\n        /* \"#utility.yul\":18784:18904   */\n      iszero\n      tag_434\n      jumpi\n        /* \"#utility.yul\":18855:18894   */\n      tag_435\n        /* \"#utility.yul\":18892:18893   */\n      0x00\n        /* \"#utility.yul\":18885:18890   */\n      dup3\n        /* \"#utility.yul\":18855:18894   */\n      tag_244\n      jump\t// in\n    tag_435:\n        /* \"#utility.yul\":18828:18829   */\n      0x01\n        /* \"#utility.yul\":18821:18826   */\n      dup2\n        /* \"#utility.yul\":18817:18830   */\n      add\n        /* \"#utility.yul\":18808:18830   */\n      swap1\n      pop\n        /* \"#utility.yul\":18784:18904   */\n      jump(tag_432)\n    tag_434:\n        /* \"#utility.yul\":18724:18910   */\n      pop\n      pop\n      jump\t// out\n        /* \"#utility.yul\":18916:19459   */\n    tag_246:\n        /* \"#utility.yul\":19017:19019   */\n      0x1f\n        /* \"#utility.yul\":19012:19015   */\n      dup3\n        /* \"#utility.yul\":19009:19020   */\n      gt\n        /* \"#utility.yul\":19006:19452   */\n      iszero\n      tag_437\n      jumpi\n        /* \"#utility.yul\":19051:19089   */\n      tag_438\n        /* \"#utility.yul\":19083:19088   */\n      dup2\n        /* \"#utility.yul\":19051:19089   */\n      tag_235\n      jump\t// in\n    tag_438:\n        /* \"#utility.yul\":19135:19164   */\n      tag_439\n        /* \"#utility.yul\":19153:19163   */\n      dup5\n        /* \"#utility.yul\":19135:19164   */\n      tag_236\n      jump\t// in\n    tag_439:\n        /* \"#utility.yul\":19125:19133   */\n      dup2\n        /* \"#utility.yul\":19121:19165   */\n      add\n        /* \"#utility.yul\":19318:19320   */\n      0x20\n        /* \"#utility.yul\":19306:19316   */\n      dup6\n        /* \"#utility.yul\":19303:19321   */\n      lt\n        /* \"#utility.yul\":19300:19349   */\n      iszero\n      tag_440\n      jumpi\n        /* \"#utility.yul\":19339:19347   */\n      dup2\n        /* \"#utility.yul\":19324:19347   */\n      swap1\n      pop\n        /* \"#utility.yul\":19300:19349   */\n    tag_440:\n        /* \"#utility.yul\":19362:19442   */\n      tag_441\n        /* \"#utility.yul\":19418:19440   */\n      tag_442\n        /* \"#utility.yul\":19436:19439   */\n      dup6\n        /* \"#utility.yul\":19418:19440   */\n      tag_236\n      jump\t// in\n    tag_442:\n        /* \"#utility.yul\":19408:19416   */\n      dup4\n        /* \"#utility.yul\":19404:19441   */\n      add\n        /* \"#utility.yul\":19391:19402   */\n      dup3\n        /* \"#utility.yul\":19362:19442   */\n      tag_245\n      jump\t// in\n    tag_441:\n        /* \"#utility.yul\":19021:19452   */\n      pop\n      pop\n        /* \"#utility.yul\":19006:19452   */\n    tag_437:\n        /* \"#utility.yul\":18916:19459   */\n      pop\n      pop\n      pop\n      jump\t// out\n        /* \"#utility.yul\":19465:19582   */\n    tag_247:\n        /* \"#utility.yul\":19519:19527   */\n      0x00\n        /* \"#utility.yul\":19569:19574   */\n      dup3\n        /* \"#utility.yul\":19563:19567   */\n      dup3\n        /* \"#utility.yul\":19559:19575   */\n      shr\n        /* \"#utility.yul\":19538:19575   */\n      swap1\n      pop\n        /* \"#utility.yul\":19465:19582   */\n      swap3\n      swap2\n      pop\n      pop\n      jump\t// out\n        /* \"#utility.yul\":19588:19757   */\n    tag_248:\n        /* \"#utility.yul\":19632:19638   */\n      0x00\n        /* \"#utility.yul\":19665:19716   */\n      tag_445\n        /* \"#utility.yul\":19713:19714   */\n      0x00\n        /* \"#utility.yul\":19709:19715   */\n      not\n        /* \"#utility.yul\":19701:19706   */\n      dup5\n        /* \"#utility.yul\":19698:19699   */\n      0x08\n        /* \"#utility.yul\":19694:19707   */\n      mul\n        /* \"#utility.yul\":19665:19716   */\n      tag_247\n      jump\t// in\n    tag_445:\n        /* \"#utility.yul\":19661:19717   */\n      not\n        /* \"#utility.yul\":19746:19750   */\n      dup1\n        /* \"#utility.yul\":19740:19744   */\n      dup4\n        /* \"#utility.yul\":19736:19751   */\n      and\n        /* \"#utility.yul\":19726:19751   */\n      swap2\n      pop\n        /* \"#utility.yul\":19639:19757   */\n      pop\n        /* \"#utility.yul\":19588:19757   */\n      swap3\n      swap2\n      pop\n      pop\n      jump\t// out\n        /* \"#utility.yul\":19762:20057   */\n    tag_249:\n        /* \"#utility.yul\":19838:19842   */\n      0x00\n        /* \"#utility.yul\":19984:20013   */\n      tag_447\n        /* \"#utility.yul\":20009:20012   */\n      dup4\n        /* \"#utility.yul\":20003:20007   */\n      dup4\n        /* \"#utility.yul\":19984:20013   */\n      tag_248\n      jump\t// in\n    tag_447:\n        /* \"#utility.yul\":19976:20013   */\n      swap2\n      pop\n        /* \"#utility.yul\":20046:20049   */\n      dup3\n        /* \"#utility.yul\":20043:20044   */\n      0x02\n        /* \"#utility.yul\":20039:20050   */\n      mul\n        /* \"#utility.yul\":20033:20037   */\n      dup3\n        /* \"#utility.yul\":20030:20051   */\n      or\n        /* \"#utility.yul\":20022:20051   */\n      swap1\n      pop\n        /* \"#utility.yul\":19762:20057   */\n      swap3\n      swap2\n      pop\n      pop\n      jump\t// out\n        /* \"#utility.yul\":20062:21457   */\n    tag_144:\n        /* \"#utility.yul\":20179:20216   */\n      tag_449\n        /* \"#utility.yul\":20212:20215   */\n      dup3\n        /* \"#utility.yul\":20179:20216   */\n      tag_203\n      jump\t// in\n    tag_449:\n        /* \"#utility.yul\":20281:20299   */\n      0xffffffffffffffff\n        /* \"#utility.yul\":20273:20279   */\n      dup2\n        /* \"#utility.yul\":20270:20300   */\n      gt\n        /* \"#utility.yul\":20267:20323   */\n      iszero\n      tag_450\n      jumpi\n        /* \"#utility.yul\":20303:20321   */\n      tag_451\n      tag_222\n      jump\t// in\n    tag_451:\n        /* \"#utility.yul\":20267:20323   */\n    tag_450:\n        /* \"#utility.yul\":20347:20385   */\n      tag_452\n        /* \"#utility.yul\":20379:20383   */\n      dup3\n        /* \"#utility.yul\":20373:20384   */\n      sload\n        /* \"#utility.yul\":20347:20385   */\n      tag_67\n      jump\t// in\n    tag_452:\n        /* \"#utility.yul\":20432:20499   */\n      tag_453\n        /* \"#utility.yul\":20492:20498   */\n      dup3\n        /* \"#utility.yul\":20484:20490   */\n      dup3\n        /* \"#utility.yul\":20478:20482   */\n      dup6\n        /* \"#utility.yul\":20432:20499   */\n      tag_246\n      jump\t// in\n    tag_453:\n        /* \"#utility.yul\":20526:20527   */\n      0x00\n        /* \"#utility.yul\":20550:20554   */\n      0x20\n        /* \"#utility.yul\":20537:20554   */\n      swap1\n      pop\n        /* \"#utility.yul\":20582:20584   */\n      0x1f\n        /* \"#utility.yul\":20574:20580   */\n      dup4\n        /* \"#utility.yul\":20571:20585   */\n      gt\n        /* \"#utility.yul\":20599:20600   */\n      0x01\n        /* \"#utility.yul\":20594:21212   */\n      dup2\n      eq\n      tag_455\n      jumpi\n        /* \"#utility.yul\":21256:21257   */\n      0x00\n        /* \"#utility.yul\":21273:21279   */\n      dup5\n        /* \"#utility.yul\":21270:21347   */\n      iszero\n      tag_456\n      jumpi\n        /* \"#utility.yul\":21322:21331   */\n      dup3\n        /* \"#utility.yul\":21317:21320   */\n      dup8\n        /* \"#utility.yul\":21313:21332   */\n      add\n        /* \"#utility.yul\":21307:21333   */\n      mload\n        /* \"#utility.yul\":21298:21333   */\n      swap1\n      pop\n        /* \"#utility.yul\":21270:21347   */\n    tag_456:\n        /* \"#utility.yul\":21373:21440   */\n      tag_457\n        /* \"#utility.yul\":21433:21439   */\n      dup6\n        /* \"#utility.yul\":21426:21431   */\n      dup3\n        /* \"#utility.yul\":21373:21440   */\n      tag_249\n      jump\t// in\n    tag_457:\n        /* \"#utility.yul\":21367:21371   */\n      dup7\n        /* \"#utility.yul\":21360:21441   */\n      sstore\n        /* \"#utility.yul\":21229:21451   */\n      pop\n        /* \"#utility.yul\":20564:21451   */\n      jump(tag_454)\n        /* \"#utility.yul\":20594:21212   */\n    tag_455:\n        /* \"#utility.yul\":20646:20650   */\n      0x1f\n        /* \"#utility.yul\":20642:20651   */\n      not\n        /* \"#utility.yul\":20634:20640   */\n      dup5\n        /* \"#utility.yul\":20630:20652   */\n      and\n        /* \"#utility.yul\":20680:20717   */\n      tag_458\n        /* \"#utility.yul\":20712:20716   */\n      dup7\n        /* \"#utility.yul\":20680:20717   */\n      tag_235\n      jump\t// in\n    tag_458:\n        /* \"#utility.yul\":20739:20740   */\n      0x00\n        /* \"#utility.yul\":20753:20961   */\n    tag_459:\n        /* \"#utility.yul\":20767:20774   */\n      dup3\n        /* \"#utility.yul\":20764:20765   */\n      dup2\n        /* \"#utility.yul\":20761:20775   */\n      lt\n        /* \"#utility.yul\":20753:20961   */\n      iszero\n      tag_461\n      jumpi\n        /* \"#utility.yul\":20846:20855   */\n      dup5\n        /* \"#utility.yul\":20841:20844   */\n      dup10\n        /* \"#utility.yul\":20837:20856   */\n      add\n        /* \"#utility.yul\":20831:20857   */\n      mload\n        /* \"#utility.yul\":20823:20829   */\n      dup3\n        /* \"#utility.yul\":20816:20858   */\n      sstore\n        /* \"#utility.yul\":20897:20898   */\n      0x01\n        /* \"#utility.yul\":20889:20895   */\n      dup3\n        /* \"#utility.yul\":20885:20899   */\n      add\n        /* \"#utility.yul\":20875:20899   */\n      swap2\n      pop\n        /* \"#utility.yul\":20944:20946   */\n      0x20\n        /* \"#utility.yul\":20933:20942   */\n      dup6\n        /* \"#utility.yul\":20929:20947   */\n      add\n        /* \"#utility.yul\":20916:20947   */\n      swap5\n      pop\n        /* \"#utility.yul\":20790:20794   */\n      0x20\n        /* \"#utility.yul\":20787:20788   */\n      dup2\n        /* \"#utility.yul\":20783:20795   */\n      add\n        /* \"#utility.yul\":20778:20795   */\n      swap1\n      pop\n        /* \"#utility.yul\":20753:20961   */\n      jump(tag_459)\n    tag_461:\n        /* \"#utility.yul\":20989:20995   */\n      dup7\n        /* \"#utility.yul\":20980:20987   */\n      dup4\n        /* \"#utility.yul\":20977:20996   */\n      lt\n        /* \"#utility.yul\":20974:21153   */\n      iszero\n      tag_462\n      jumpi\n        /* \"#utility.yul\":21047:21056   */\n      dup5\n        /* \"#utility.yul\":21042:21045   */\n      dup10\n        /* \"#utility.yul\":21038:21057   */\n      add\n        /* \"#utility.yul\":21032:21058   */\n      mload\n        /* \"#utility.yul\":21090:21138   */\n      tag_463\n        /* \"#utility.yul\":21132:21136   */\n      0x1f\n        /* \"#utility.yul\":21124:21130   */\n      dup10\n        /* \"#utility.yul\":21120:21137   */\n      and\n        /* \"#utility.yul\":21109:21118   */\n      dup3\n        /* \"#utility.yul\":21090:21138   */\n      tag_248\n      jump\t// in\n    tag_463:\n        /* \"#utility.yul\":21082:21088   */\n      dup4\n        /* \"#utility.yul\":21075:21139   */\n      sstore\n        /* \"#utility.yul\":20997:21153   */\n      pop\n        /* \"#utility.yul\":20974:21153   */\n    tag_462:\n        /* \"#utility.yul\":21199:21200   */\n      0x01\n        /* \"#utility.yul\":21195:21196   */\n      0x02\n        /* \"#utility.yul\":21187:21193   */\n      dup9\n        /* \"#utility.yul\":21183:21197   */\n      mul\n        /* \"#utility.yul\":21179:21201   */\n      add\n        /* \"#utility.yul\":21173:21177   */\n      dup9\n        /* \"#utility.yul\":21166:21202   */\n      sstore\n        /* \"#utility.yul\":20601:21212   */\n      pop\n      pop\n      pop\n        /* \"#utility.yul\":20564:21451   */\n    tag_454:\n      pop\n        /* \"#utility.yul\":20154:21457   */\n      pop\n      pop\n      pop\n        /* \"#utility.yul\":20062:21457   */\n      pop\n      pop\n      jump\t// out\n        /* \"#utility.yul\":21463:21776   */\n    tag_146:\n        /* \"#utility.yul\":21576:21580   */\n      0x00\n        /* \"#utility.yul\":21614:21616   */\n      0x20\n        /* \"#utility.yul\":21603:21612   */\n      dup3\n        /* \"#utility.yul\":21599:21617   */\n      add\n        /* \"#utility.yul\":21591:21617   */\n      swap1\n      pop\n        /* \"#utility.yul\":21663:21672   */\n      dup2\n        /* \"#utility.yul\":21657:21661   */\n      dup2\n        /* \"#utility.yul\":21653:21673   */\n      sub\n        /* \"#utility.yul\":21649:21650   */\n      0x00\n        /* \"#utility.yul\":21638:21647   */\n      dup4\n        /* \"#utility.yul\":21634:21651   */\n      add\n        /* \"#utility.yul\":21627:21674   */\n      mstore\n        /* \"#utility.yul\":21691:21769   */\n      tag_465\n        /* \"#utility.yul\":21764:21768   */\n      dup2\n        /* \"#utility.yul\":21755:21761   */\n      dup5\n        /* \"#utility.yul\":21691:21769   */\n      tag_207\n      jump\t// in\n    tag_465:\n        /* \"#utility.yul\":21683:21769   */\n      swap1\n      pop\n        /* \"#utility.yul\":21463:21776   */\n      swap3\n      swap2\n      pop\n      pop\n      jump\t// out\n        /* \"#utility.yul\":21782:21950   */\n    tag_250:\n        /* \"#utility.yul\":21922:21942   */\n      0x706f737420646f65736e6f742065786973740000000000000000000000000000\n        /* \"#utility.yul\":21918:21919   */\n      0x00\n        /* \"#utility.yul\":21910:21916   */\n      dup3\n        /* \"#utility.yul\":21906:21920   */\n      add\n        /* \"#utility.yul\":21899:21943   */\n      mstore\n        /* \"#utility.yul\":21782:21950   */\n      pop\n      jump\t// out\n        /* \"#utility.yul\":21956:22322   */\n    tag_251:\n        /* \"#utility.yul\":22098:22101   */\n      0x00\n        /* \"#utility.yul\":22119:22186   */\n      tag_468\n        /* \"#utility.yul\":22183:22185   */\n      0x12\n        /* \"#utility.yul\":22178:22181   */\n      dup4\n        /* \"#utility.yul\":22119:22186   */\n      tag_204\n      jump\t// in\n    tag_468:\n        /* \"#utility.yul\":22112:22186   */\n      swap2\n      pop\n        /* \"#utility.yul\":22195:22288   */\n      tag_469\n        /* \"#utility.yul\":22284:22287   */\n      dup3\n        /* \"#utility.yul\":22195:22288   */\n      tag_250\n      jump\t// in\n    tag_469:\n        /* \"#utility.yul\":22313:22315   */\n      0x20\n        /* \"#utility.yul\":22308:22311   */\n      dup3\n        /* \"#utility.yul\":22304:22316   */\n      add\n        /* \"#utility.yul\":22297:22316   */\n      swap1\n      pop\n        /* \"#utility.yul\":21956:22322   */\n      swap2\n      swap1\n      pop\n      jump\t// out\n        /* \"#utility.yul\":22328:22747   */\n    tag_153:\n        /* \"#utility.yul\":22494:22498   */\n      0x00\n        /* \"#utility.yul\":22532:22534   */\n      0x20\n        /* \"#utility.yul\":22521:22530   */\n      dup3\n        /* \"#utility.yul\":22517:22535   */\n      add\n        /* \"#utility.yul\":22509:22535   */\n      swap1\n      pop\n        /* \"#utility.yul\":22581:22590   */\n      dup2\n        /* \"#utility.yul\":22575:22579   */\n      dup2\n        /* \"#utility.yul\":22571:22591   */\n      sub\n        /* \"#utility.yul\":22567:22568   */\n      0x00\n        /* \"#utility.yul\":22556:22565   */\n      dup4\n        /* \"#utility.yul\":22552:22569   */\n      add\n        /* \"#utility.yul\":22545:22592   */\n      mstore\n        /* \"#utility.yul\":22609:22740   */\n      tag_471\n        /* \"#utility.yul\":22735:22739   */\n      dup2\n        /* \"#utility.yul\":22609:22740   */\n      tag_251\n      jump\t// in\n    tag_471:\n        /* \"#utility.yul\":22601:22740   */\n      swap1\n      pop\n        /* \"#utility.yul\":22328:22747   */\n      swap2\n      swap1\n      pop\n      jump\t// out\n        /* \"#utility.yul\":22753:22924   */\n    tag_252:\n        /* \"#utility.yul\":22893:22916   */\n      0x6c696b657320636f756e74206973206a75737420300000000000000000000000\n        /* \"#utility.yul\":22889:22890   */\n      0x00\n        /* \"#utility.yul\":22881:22887   */\n      dup3\n        /* \"#utility.yul\":22877:22891   */\n      add\n        /* \"#utility.yul\":22870:22917   */\n      mstore\n        /* \"#utility.yul\":22753:22924   */\n      pop\n      jump\t// out\n        /* \"#utility.yul\":22930:23296   */\n    tag_253:\n        /* \"#utility.yul\":23072:23075   */\n      0x00\n        /* \"#utility.yul\":23093:23160   */\n      tag_474\n        /* \"#utility.yul\":23157:23159   */\n      0x15\n        /* \"#utility.yul\":23152:23155   */\n      dup4\n        /* \"#utility.yul\":23093:23160   */\n      tag_204\n      jump\t// in\n    tag_474:\n        /* \"#utility.yul\":23086:23160   */\n      swap2\n      pop\n        /* \"#utility.yul\":23169:23262   */\n      tag_475\n        /* \"#utility.yul\":23258:23261   */\n      dup3\n        /* \"#utility.yul\":23169:23262   */\n      tag_252\n      jump\t// in\n    tag_475:\n        /* \"#utility.yul\":23287:23289   */\n      0x20\n        /* \"#utility.yul\":23282:23285   */\n      dup3\n        /* \"#utility.yul\":23278:23290   */\n      add\n        /* \"#utility.yul\":23271:23290   */\n      swap1\n      pop\n        /* \"#utility.yul\":22930:23296   */\n      swap2\n      swap1\n      pop\n      jump\t// out\n        /* \"#utility.yul\":23302:23721   */\n    tag_159:\n        /* \"#utility.yul\":23468:23472   */\n      0x00\n        /* \"#utility.yul\":23506:23508   */\n      0x20\n        /* \"#utility.yul\":23495:23504   */\n      dup3\n        /* \"#utility.yul\":23491:23509   */\n      add\n        /* \"#utility.yul\":23483:23509   */\n      swap1\n      pop\n        /* \"#utility.yul\":23555:23564   */\n      dup2\n        /* \"#utility.yul\":23549:23553   */\n      dup2\n        /* \"#utility.yul\":23545:23565   */\n      sub\n        /* \"#utility.yul\":23541:23542   */\n      0x00\n        /* \"#utility.yul\":23530:23539   */\n      dup4\n        /* \"#utility.yul\":23526:23543   */\n      add\n        /* \"#utility.yul\":23519:23566   */\n      mstore\n        /* \"#utility.yul\":23583:23714   */\n      tag_477\n        /* \"#utility.yul\":23709:23713   */\n      dup2\n        /* \"#utility.yul\":23583:23714   */\n      tag_253\n      jump\t// in\n    tag_477:\n        /* \"#utility.yul\":23575:23714   */\n      swap1\n      pop\n        /* \"#utility.yul\":23302:23721   */\n      swap2\n      swap1\n      pop\n      jump\t// out\n        /* \"#utility.yul\":23727:23898   */\n    tag_164:\n        /* \"#utility.yul\":23766:23769   */\n      0x00\n        /* \"#utility.yul\":23789:23813   */\n      tag_479\n        /* \"#utility.yul\":23807:23812   */\n      dup3\n        /* \"#utility.yul\":23789:23813   */\n      tag_198\n      jump\t// in\n    tag_479:\n        /* \"#utility.yul\":23780:23813   */\n      swap2\n      pop\n        /* \"#utility.yul\":23835:23839   */\n      0x00\n        /* \"#utility.yul\":23828:23833   */\n      dup3\n        /* \"#utility.yul\":23825:23840   */\n      sub\n        /* \"#utility.yul\":23822:23863   */\n      tag_480\n      jumpi\n        /* \"#utility.yul\":23843:23861   */\n      tag_481\n      tag_230\n      jump\t// in\n    tag_481:\n        /* \"#utility.yul\":23822:23863   */\n    tag_480:\n        /* \"#utility.yul\":23890:23891   */\n      0x01\n        /* \"#utility.yul\":23883:23888   */\n      dup3\n        /* \"#utility.yul\":23879:23892   */\n      sub\n        /* \"#utility.yul\":23872:23892   */\n      swap1\n      pop\n        /* \"#utility.yul\":23727:23898   */\n      swap2\n      swap1\n      pop\n      jump\t// out\n\n    auxdata: 0xa264697066735822122093702c7ef473dd53e1b660953bd9def2b24dd2a8deb9218b138f03fae61bfba964736f6c634300081e0033\n}\n",
				"bytecode": {
					"linkReferences": {},
					"object": "6080604052610100600355348015610015575f5ffd5b5060405161205e38038061205e8339818101604052810190610037919061021d565b805f73ffffffffffffffffffffffffffffffffffffffff168173ffffffffffffffffffffffffffffffffffffffff16036100a8575f6040517f1e4fbdf700000000000000000000000000000000000000000000000000000000815260040161009f9190610257565b60405180910390fd5b6100b7816100fe60201b60201c565b508060015f6101000a81548173ffffffffffffffffffffffffffffffffffffffff021916908373ffffffffffffffffffffffffffffffffffffffff16021790555050610270565b5f5f5f9054906101000a900473ffffffffffffffffffffffffffffffffffffffff169050815f5f6101000a81548173ffffffffffffffffffffffffffffffffffffffff021916908373ffffffffffffffffffffffffffffffffffffffff1602179055508173ffffffffffffffffffffffffffffffffffffffff168173ffffffffffffffffffffffffffffffffffffffff167f8be0079c531659141344cd1fd0a4f28419497f9722a3daafe3b4186f6b6457e060405160405180910390a35050565b5f5ffd5b5f73ffffffffffffffffffffffffffffffffffffffff82169050919050565b5f6101ec826101c3565b9050919050565b6101fc816101e2565b8114610206575f5ffd5b50565b5f81519050610217816101f3565b92915050565b5f60208284031215610232576102316101bf565b5b5f61023f84828501610209565b91505092915050565b610251816101e2565b82525050565b5f60208201905061026a5f830184610248565b92915050565b611de18061027d5f395ff3fe608060405234801561000f575f5ffd5b50600436106100b2575f3560e01c806393f726851161006f57806393f726851461017b578063b8f35cd7146101ab578063bb44480e146101db578063d29557fe146101f7578063f060380f14610213578063f2fde38b1461022f576100b2565b806305a1b4a9146100b65780630956848d146100eb5780633b6893a014610107578063715018a6146101235780637ecff1191461012d5780638da5cb5b1461015d575b5f5ffd5b6100d060048036038101906100cb9190611264565b61024b565b6040516100e296959493929190611330565b60405180910390f35b61010560048036038101906101009190611264565b610342565b005b610121600480360381019061011c9190611396565b6103f4565b005b61012b610406565b005b61014760048036038101906101429190611264565b610419565b60405161015491906114ad565b60405180910390f35b61016561059b565b60405161017291906114cd565b60405180910390f35b610195600480360381019061019091906114e6565b6105c2565b6040516101a29190611652565b60405180910390f35b6101c560048036038101906101c091906114e6565b610767565b6040516101d29190611672565b60405180910390f35b6101f560048036038101906101f09190611264565b6108ea565b005b610211600480360381019061020c91906117b7565b610ac4565b005b61022d60048036038101906102289190611264565b610cda565b005b610249600480360381019061024491906114e6565b610f54565b005b6002602052815f5260405f208181548110610264575f80fd5b905f5260205f2090600602015f9150915050805f015490806001015f9054906101000a900473ffffffffffffffffffffffffffffffffffffffff16908060020180546102af9061182b565b80601f01602080910402602001604051908101604052809291908181526020018280546102db9061182b565b80156103265780601f106102fd57610100808354040283529160200191610326565b820191905f5260205f20905b81548152906001019060200180831161030957829003601f168201915b5050505050908060030154908060040154908060050154905086565b60025f8373ffffffffffffffffffffffffffffffffffffffff1673ffffffffffffffffffffffffffffffffffffffff1681526020019081526020015f2081815481106103915761039061185b565b5b905f5260205f2090600602015f5f82015f9055600182015f6101000a81549073ffffffffffffffffffffffffffffffffffffffff0219169055600282015f6103d99190611127565b600382015f9055600482015f9055600582015f905550505050565b6103fc610fd8565b8060038190555050565b61040e610fd8565b6104175f61105f565b565b610421611164565b60025f8473ffffffffffffffffffffffffffffffffffffffff1673ffffffffffffffffffffffffffffffffffffffff1681526020019081526020015f2082815481106104705761046f61185b565b5b905f5260205f2090600602016040518060c00160405290815f8201548152602001600182015f9054906101000a900473ffffffffffffffffffffffffffffffffffffffff1673ffffffffffffffffffffffffffffffffffffffff1673ffffffffffffffffffffffffffffffffffffffff1681526020016002820180546104f59061182b565b80601f01602080910402602001604051908101604052809291908181526020018280546105219061182b565b801561056c5780601f106105435761010080835404028352916020019161056c565b820191905f5260205f20905b81548152906001019060200180831161054f57829003601f168201915b505050505081526020016003820154815260200160048201548152602001600582015481525050905092915050565b5f5f5f9054906101000a900473ffffffffffffffffffffffffffffffffffffffff16905090565b606060025f8373ffffffffffffffffffffffffffffffffffffffff1673ffffffffffffffffffffffffffffffffffffffff1681526020019081526020015f20805480602002602001604051908101604052809291908181526020015f905b8282101561075c578382905f5260205f2090600602016040518060c00160405290815f8201548152602001600182015f9054906101000a900473ffffffffffffffffffffffffffffffffffffffff1673ffffffffffffffffffffffffffffffffffffffff1673ffffffffffffffffffffffffffffffffffffffff1681526020016002820180546106af9061182b565b80601f01602080910402602001604051908101604052809291908181526020018280546106db9061182b565b80156107265780601f106106fd57610100808354040283529160200191610726565b820191905f5260205f20905b81548152906001019060200180831161070957829003601f168201915b50505050508152602001600382015481526020016004820154815260200160058201548152505081526020019060010190610620565b505050509050919050565b5f5f5f90505f5b60025f8573ffffffffffffffffffffffffffffffffffffffff1673ffffffffffffffffffffffffffffffffffffffff1681526020019081526020015f20805490508110156108e0578373ffffffffffffffffffffffffffffffffffffffff1660025f8673ffffffffffffffffffffffffffffffffffffffff1673ffffffffffffffffffffffffffffffffffffffff1681526020019081526020015f20828154811061081c5761081b61185b565b5b905f5260205f2090600602016001015f9054906101000a900473ffffffffffffffffffffffffffffffffffffffff1673ffffffffffffffffffffffffffffffffffffffff16036108d35760025f8573ffffffffffffffffffffffffffffffffffffffff1673ffffffffffffffffffffffffffffffffffffffff1681526020019081526020015f2081815481106108b5576108b461185b565b5b905f5260205f20906006020160030154826108d091906118b5565b91505b808060010191505061076e565b5080915050919050565b8060025f8473ffffffffffffffffffffffffffffffffffffffff1673ffffffffffffffffffffffffffffffffffffffff1681526020019081526020015f20828154811061093a5761093961185b565b5b905f5260205f2090600602015f015414610989576040517f08c379a000000000000000000000000000000000000000000000000000000000815260040161098090611932565b60405180910390fd5b60025f8373ffffffffffffffffffffffffffffffffffffffff1673ffffffffffffffffffffffffffffffffffffffff1681526020019081526020015f2081815481106109d8576109d761185b565b5b905f5260205f2090600602016003015f8154809291906109f790611950565b91905055503373ffffffffffffffffffffffffffffffffffffffff168273ffffffffffffffffffffffffffffffffffffffff16827fcca9faa0aac4013472c2978cdba3c8cb68cb71da4cb35324dc984c8f02abf65a60025f8773ffffffffffffffffffffffffffffffffffffffff1673ffffffffffffffffffffffffffffffffffffffff1681526020019081526020015f208581548110610a9b57610a9a61185b565b5b905f5260205f20906006020160030154604051610ab89190611672565b60405180910390a45050565b610100815110610b09576040517f08c379a0000000000000000000000000000000000000000000000000000000008152600401610b0090611a07565b60405180910390fd5b5f6040518060c0016040528060025f3373ffffffffffffffffffffffffffffffffffffffff1673ffffffffffffffffffffffffffffffffffffffff1681526020019081526020015f208054905081526020013373ffffffffffffffffffffffffffffffffffffffff1681526020018381526020015f81526020015f815260200142815250905060025f3373ffffffffffffffffffffffffffffffffffffffff1673ffffffffffffffffffffffffffffffffffffffff1681526020019081526020015f2081908060018154018082558091505060019003905f5260205f2090600602015f909190919091505f820151815f01556020820151816001015f6101000a81548173ffffffffffffffffffffffffffffffffffffffff021916908373ffffffffffffffffffffffffffffffffffffffff1602179055506040820151816002019081610c569190611bc5565b50606082015181600301556080820151816004015560a0820151816005015550508060a00151816020015173ffffffffffffffffffffffffffffffffffffffff16825f01517f16fd3c13e9d46923e0a8bce11c7b473ec508a72e6c96cd2404b29ce972afc29e8460400151604051610cce9190611c94565b60405180910390a45050565b8060025f8473ffffffffffffffffffffffffffffffffffffffff1673ffffffffffffffffffffffffffffffffffffffff1681526020019081526020015f208281548110610d2a57610d2961185b565b5b905f5260205f2090600602015f015414610d79576040517f08c379a0000000000000000000000000000000000000000000000000000000008152600401610d7090611cfe565b60405180910390fd5b5f60025f8473ffffffffffffffffffffffffffffffffffffffff1673ffffffffffffffffffffffffffffffffffffffff1681526020019081526020015f208281548110610dc957610dc861185b565b5b905f5260205f2090600602016003015411610e19576040517f08c379a0000000000000000000000000000000000000000000000000000000008152600401610e1090611d66565b60405180910390fd5b60025f8373ffffffffffffffffffffffffffffffffffffffff1673ffffffffffffffffffffffffffffffffffffffff1681526020019081526020015f208181548110610e6857610e6761185b565b5b905f5260205f2090600602016003015f815480929190610e8790611d84565b91905055503373ffffffffffffffffffffffffffffffffffffffff168273ffffffffffffffffffffffffffffffffffffffff16827fef73a432a91b235ba7b844392a00d62c6e9916ca8ce0df7bfea3b3454a2b5a9160025f8773ffffffffffffffffffffffffffffffffffffffff1673ffffffffffffffffffffffffffffffffffffffff1681526020019081526020015f208581548110610f2b57610f2a61185b565b5b905f5260205f20906006020160030154604051610f489190611672565b60405180910390a45050565b610f5c610fd8565b5f73ffffffffffffffffffffffffffffffffffffffff168173ffffffffffffffffffffffffffffffffffffffff1603610fcc575f6040517f1e4fbdf7000000000000000000000000000000000000000000000000000000008152600401610fc391906114cd565b60405180910390fd5b610fd58161105f565b50565b610fe0611120565b73ffffffffffffffffffffffffffffffffffffffff16610ffe61059b565b73ffffffffffffffffffffffffffffffffffffffff161461105d57611021611120565b6040517f118cdaa700000000000000000000000000000000000000000000000000000000815260040161105491906114cd565b60405180910390fd5b565b5f5f5f9054906101000a900473ffffffffffffffffffffffffffffffffffffffff169050815f5f6101000a81548173ffffffffffffffffffffffffffffffffffffffff021916908373ffffffffffffffffffffffffffffffffffffffff1602179055508173ffffffffffffffffffffffffffffffffffffffff168173ffffffffffffffffffffffffffffffffffffffff167f8be0079c531659141344cd1fd0a4f28419497f9722a3daafe3b4186f6b6457e060405160405180910390a35050565b5f33905090565b5080546111339061182b565b5f825580601f106111445750611161565b601f0160209004905f5260205f209081019061116091906111ab565b5b50565b6040518060c001604052805f81526020015f73ffffffffffffffffffffffffffffffffffffffff168152602001606081526020015f81526020015f81526020015f81525090565b5b808211156111c2575f815f9055506001016111ac565b5090565b5f604051905090565b5f5ffd5b5f5ffd5b5f73ffffffffffffffffffffffffffffffffffffffff82169050919050565b5f611200826111d7565b9050919050565b611210816111f6565b811461121a575f5ffd5b50565b5f8135905061122b81611207565b92915050565b5f819050919050565b61124381611231565b811461124d575f5ffd5b50565b5f8135905061125e8161123a565b92915050565b5f5f6040838503121561127a576112796111cf565b5b5f6112878582860161121d565b925050602061129885828601611250565b9150509250929050565b6112ab81611231565b82525050565b6112ba816111f6565b82525050565b5f81519050919050565b5f82825260208201905092915050565b8281835e5f83830152505050565b5f601f19601f8301169050919050565b5f611302826112c0565b61130c81856112ca565b935061131c8185602086016112da565b611325816112e8565b840191505092915050565b5f60c0820190506113435f8301896112a2565b61135060208301886112b1565b818103604083015261136281876112f8565b905061137160608301866112a2565b61137e60808301856112a2565b61138b60a08301846112a2565b979650505050505050565b5f602082840312156113ab576113aa6111cf565b5b5f6113b884828501611250565b91505092915050565b6113ca81611231565b82525050565b6113d9816111f6565b82525050565b5f82825260208201905092915050565b5f6113f9826112c0565b61140381856113df565b93506114138185602086016112da565b61141c816112e8565b840191505092915050565b5f60c083015f83015161143c5f8601826113c1565b50602083015161144f60208601826113d0565b506040830151848203604086015261146782826113ef565b915050606083015161147c60608601826113c1565b50608083015161148f60808601826113c1565b5060a08301516114a260a08601826113c1565b508091505092915050565b5f6020820190508181035f8301526114c58184611427565b905092915050565b5f6020820190506114e05f8301846112b1565b92915050565b5f602082840312156114fb576114fa6111cf565b5b5f6115088482850161121d565b91505092915050565b5f81519050919050565b5f82825260208201905092915050565b5f819050602082019050919050565b5f60c083015f83015161154f5f8601826113c1565b50602083015161156260208601826113d0565b506040830151848203604086015261157a82826113ef565b915050606083015161158f60608601826113c1565b5060808301516115a260808601826113c1565b5060a08301516115b560a08601826113c1565b508091505092915050565b5f6115cb838361153a565b905092915050565b5f602082019050919050565b5f6115e982611511565b6115f3818561151b565b9350836020820285016116058561152b565b805f5b85811015611640578484038952815161162185826115c0565b945061162c836115d3565b925060208a01995050600181019050611608565b50829750879550505050505092915050565b5f6020820190508181035f83015261166a81846115df565b905092915050565b5f6020820190506116855f8301846112a2565b92915050565b5f5ffd5b5f5ffd5b7f4e487b71000000000000000000000000000000000000000000000000000000005f52604160045260245ffd5b6116c9826112e8565b810181811067ffffffffffffffff821117156116e8576116e7611693565b5b80604052505050565b5f6116fa6111c6565b905061170682826116c0565b919050565b5f67ffffffffffffffff82111561172557611724611693565b5b61172e826112e8565b9050602081019050919050565b828183375f83830152505050565b5f61175b6117568461170b565b6116f1565b9050828152602081018484840111156117775761177661168f565b5b61178284828561173b565b509392505050565b5f82601f83011261179e5761179d61168b565b5b81356117ae848260208601611749565b91505092915050565b5f602082840312156117cc576117cb6111cf565b5b5f82013567ffffffffffffffff8111156117e9576117e86111d3565b5b6117f58482850161178a565b91505092915050565b7f4e487b71000000000000000000000000000000000000000000000000000000005f52602260045260245ffd5b5f600282049050600182168061184257607f821691505b602082108103611855576118546117fe565b5b50919050565b7f4e487b71000000000000000000000000000000000000000000000000000000005f52603260045260245ffd5b7f4e487b71000000000000000000000000000000000000000000000000000000005f52601160045260245ffd5b5f6118bf82611231565b91506118ca83611231565b92508282019050808211156118e2576118e1611888565b5b92915050565b7f706f737420646f65736e6f7420666f756e6400000000000000000000000000005f82015250565b5f61191c6012836112ca565b9150611927826118e8565b602082019050919050565b5f6020820190508181035f83015261194981611910565b9050919050565b5f61195a82611231565b91507fffffffffffffffffffffffffffffffffffffffffffffffffffffffffffffffff820361198c5761198b611888565b5b600182019050919050565b7f74776565742063616e6e6f74206265206c6f6e676572207468616e20323536205f8201527f6368617261637465727300000000000000000000000000000000000000000000602082015250565b5f6119f1602a836112ca565b91506119fc82611997565b604082019050919050565b5f6020820190508181035f830152611a1e816119e5565b9050919050565b5f819050815f5260205f209050919050565b5f6020601f8301049050919050565b5f82821b905092915050565b5f60088302611a817fffffffffffffffffffffffffffffffffffffffffffffffffffffffffffffffff82611a46565b611a8b8683611a46565b95508019841693508086168417925050509392505050565b5f819050919050565b5f611ac6611ac1611abc84611231565b611aa3565b611231565b9050919050565b5f819050919050565b611adf83611aac565b611af3611aeb82611acd565b848454611a52565b825550505050565b5f5f905090565b611b0a611afb565b611b15818484611ad6565b505050565b5b81811015611b3857611b2d5f82611b02565b600181019050611b1b565b5050565b601f821115611b7d57611b4e81611a25565b611b5784611a37565b81016020851015611b66578190505b611b7a611b7285611a37565b830182611b1a565b50505b505050565b5f82821c905092915050565b5f611b9d5f1984600802611b82565b1980831691505092915050565b5f611bb58383611b8e565b9150826002028217905092915050565b611bce826112c0565b67ffffffffffffffff811115611be757611be6611693565b5b611bf1825461182b565b611bfc828285611b3c565b5f60209050601f831160018114611c2d575f8415611c1b578287015190505b611c258582611baa565b865550611c8c565b601f198416611c3b86611a25565b5f5b82811015611c6257848901518255600182019150602085019450602081019050611c3d565b86831015611c7f5784890151611c7b601f891682611b8e565b8355505b6001600288020188555050505b505050505050565b5f6020820190508181035f830152611cac81846112f8565b905092915050565b7f706f737420646f65736e6f7420657869737400000000000000000000000000005f82015250565b5f611ce86012836112ca565b9150611cf382611cb4565b602082019050919050565b5f6020820190508181035f830152611d1581611cdc565b9050919050565b7f6c696b657320636f756e74206973206a757374203000000000000000000000005f82015250565b5f611d506015836112ca565b9150611d5b82611d1c565b602082019050919050565b5f6020820190508181035f830152611d7d81611d44565b9050919050565b5f611d8e82611231565b91505f8203611da057611d9f611888565b5b60018203905091905056fea264697066735822122093702c7ef473dd53e1b660953bd9def2b24dd2a8deb9218b138f03fae61bfba964736f6c634300081e0033",
					"opcodes": "PUSH1 0x80 PUSH1 0x40 MSTORE PUSH2 0x100 PUSH1 0x3 SSTORE CALLVALUE DUP1 ISZERO PUSH2 0x15 JUMPI PUSH0 PUSH0 REVERT JUMPDEST POP PUSH1 0x40 MLOAD PUSH2 0x205E CODESIZE SUB DUP1 PUSH2 0x205E DUP4 CODECOPY DUP2 DUP2 ADD PUSH1 0x40 MSTORE DUP2 ADD SWAP1 PUSH2 0x37 SWAP2 SWAP1 PUSH2 0x21D JUMP JUMPDEST DUP1 PUSH0 PUSH20 0xFFFFFFFFFFFFFFFFFFFFFFFFFFFFFFFFFFFFFFFF AND DUP2 PUSH20 0xFFFFFFFFFFFFFFFFFFFFFFFFFFFFFFFFFFFFFFFF AND SUB PUSH2 0xA8 JUMPI PUSH0 PUSH1 0x40 MLOAD PUSH32 0x1E4FBDF700000000000000000000000000000000000000000000000000000000 DUP2 MSTORE PUSH1 0x4 ADD PUSH2 0x9F SWAP2 SWAP1 PUSH2 0x257 JUMP JUMPDEST PUSH1 0x40 MLOAD DUP1 SWAP2 SUB SWAP1 REVERT JUMPDEST PUSH2 0xB7 DUP2 PUSH2 0xFE PUSH1 0x20 SHL PUSH1 0x20 SHR JUMP JUMPDEST POP DUP1 PUSH1 0x1 PUSH0 PUSH2 0x100 EXP DUP2 SLOAD DUP2 PUSH20 0xFFFFFFFFFFFFFFFFFFFFFFFFFFFFFFFFFFFFFFFF MUL NOT AND SWAP1 DUP4 PUSH20 0xFFFFFFFFFFFFFFFFFFFFFFFFFFFFFFFFFFFFFFFF AND MUL OR SWAP1 SSTORE POP POP PUSH2 0x270 JUMP JUMPDEST PUSH0 PUSH0 PUSH0 SWAP1 SLOAD SWAP1 PUSH2 0x100 EXP SWAP1 DIV PUSH20 0xFFFFFFFFFFFFFFFFFFFFFFFFFFFFFFFFFFFFFFFF AND SWAP1 POP DUP2 PUSH0 PUSH0 PUSH2 0x100 EXP DUP2 SLOAD DUP2 PUSH20 0xFFFFFFFFFFFFFFFFFFFFFFFFFFFFFFFFFFFFFFFF MUL NOT AND SWAP1 DUP4 PUSH20 0xFFFFFFFFFFFFFFFFFFFFFFFFFFFFFFFFFFFFFFFF AND MUL OR SWAP1 SSTORE POP DUP2 PUSH20 0xFFFFFFFFFFFFFFFFFFFFFFFFFFFFFFFFFFFFFFFF AND DUP2 PUSH20 0xFFFFFFFFFFFFFFFFFFFFFFFFFFFFFFFFFFFFFFFF AND PUSH32 0x8BE0079C531659141344CD1FD0A4F28419497F9722A3DAAFE3B4186F6B6457E0 PUSH1 0x40 MLOAD PUSH1 0x40 MLOAD DUP1 SWAP2 SUB SWAP1 LOG3 POP POP JUMP JUMPDEST PUSH0 PUSH0 REVERT JUMPDEST PUSH0 PUSH20 0xFFFFFFFFFFFFFFFFFFFFFFFFFFFFFFFFFFFFFFFF DUP3 AND SWAP1 POP SWAP2 SWAP1 POP JUMP JUMPDEST PUSH0 PUSH2 0x1EC DUP3 PUSH2 0x1C3 JUMP JUMPDEST SWAP1 POP SWAP2 SWAP1 POP JUMP JUMPDEST PUSH2 0x1FC DUP2 PUSH2 0x1E2 JUMP JUMPDEST DUP2 EQ PUSH2 0x206 JUMPI PUSH0 PUSH0 REVERT JUMPDEST POP JUMP JUMPDEST PUSH0 DUP2 MLOAD SWAP1 POP PUSH2 0x217 DUP2 PUSH2 0x1F3 JUMP JUMPDEST SWAP3 SWAP2 POP POP JUMP JUMPDEST PUSH0 PUSH1 0x20 DUP3 DUP5 SUB SLT ISZERO PUSH2 0x232 JUMPI PUSH2 0x231 PUSH2 0x1BF JUMP JUMPDEST JUMPDEST PUSH0 PUSH2 0x23F DUP5 DUP3 DUP6 ADD PUSH2 0x209 JUMP JUMPDEST SWAP2 POP POP SWAP3 SWAP2 POP POP JUMP JUMPDEST PUSH2 0x251 DUP2 PUSH2 0x1E2 JUMP JUMPDEST DUP3 MSTORE POP POP JUMP JUMPDEST PUSH0 PUSH1 0x20 DUP3 ADD SWAP1 POP PUSH2 0x26A PUSH0 DUP4 ADD DUP5 PUSH2 0x248 JUMP JUMPDEST SWAP3 SWAP2 POP POP JUMP JUMPDEST PUSH2 0x1DE1 DUP1 PUSH2 0x27D PUSH0 CODECOPY PUSH0 RETURN INVALID PUSH1 0x80 PUSH1 0x40 MSTORE CALLVALUE DUP1 ISZERO PUSH2 0xF JUMPI PUSH0 PUSH0 REVERT JUMPDEST POP PUSH1 0x4 CALLDATASIZE LT PUSH2 0xB2 JUMPI PUSH0 CALLDATALOAD PUSH1 0xE0 SHR DUP1 PUSH4 0x93F72685 GT PUSH2 0x6F JUMPI DUP1 PUSH4 0x93F72685 EQ PUSH2 0x17B JUMPI DUP1 PUSH4 0xB8F35CD7 EQ PUSH2 0x1AB JUMPI DUP1 PUSH4 0xBB44480E EQ PUSH2 0x1DB JUMPI DUP1 PUSH4 0xD29557FE EQ PUSH2 0x1F7 JUMPI DUP1 PUSH4 0xF060380F EQ PUSH2 0x213 JUMPI DUP1 PUSH4 0xF2FDE38B EQ PUSH2 0x22F JUMPI PUSH2 0xB2 JUMP JUMPDEST DUP1 PUSH4 0x5A1B4A9 EQ PUSH2 0xB6 JUMPI DUP1 PUSH4 0x956848D EQ PUSH2 0xEB JUMPI DUP1 PUSH4 0x3B6893A0 EQ PUSH2 0x107 JUMPI DUP1 PUSH4 0x715018A6 EQ PUSH2 0x123 JUMPI DUP1 PUSH4 0x7ECFF119 EQ PUSH2 0x12D JUMPI DUP1 PUSH4 0x8DA5CB5B EQ PUSH2 0x15D JUMPI JUMPDEST PUSH0 PUSH0 REVERT JUMPDEST PUSH2 0xD0 PUSH1 0x4 DUP1 CALLDATASIZE SUB DUP2 ADD SWAP1 PUSH2 0xCB SWAP2 SWAP1 PUSH2 0x1264 JUMP JUMPDEST PUSH2 0x24B JUMP JUMPDEST PUSH1 0x40 MLOAD PUSH2 0xE2 SWAP7 SWAP6 SWAP5 SWAP4 SWAP3 SWAP2 SWAP1 PUSH2 0x1330 JUMP JUMPDEST PUSH1 0x40 MLOAD DUP1 SWAP2 SUB SWAP1 RETURN JUMPDEST PUSH2 0x105 PUSH1 0x4 DUP1 CALLDATASIZE SUB DUP2 ADD SWAP1 PUSH2 0x100 SWAP2 SWAP1 PUSH2 0x1264 JUMP JUMPDEST PUSH2 0x342 JUMP JUMPDEST STOP JUMPDEST PUSH2 0x121 PUSH1 0x4 DUP1 CALLDATASIZE SUB DUP2 ADD SWAP1 PUSH2 0x11C SWAP2 SWAP1 PUSH2 0x1396 JUMP JUMPDEST PUSH2 0x3F4 JUMP JUMPDEST STOP JUMPDEST PUSH2 0x12B PUSH2 0x406 JUMP JUMPDEST STOP JUMPDEST PUSH2 0x147 PUSH1 0x4 DUP1 CALLDATASIZE SUB DUP2 ADD SWAP1 PUSH2 0x142 SWAP2 SWAP1 PUSH2 0x1264 JUMP JUMPDEST PUSH2 0x419 JUMP JUMPDEST PUSH1 0x40 MLOAD PUSH2 0x154 SWAP2 SWAP1 PUSH2 0x14AD JUMP JUMPDEST PUSH1 0x40 MLOAD DUP1 SWAP2 SUB SWAP1 RETURN JUMPDEST PUSH2 0x165 PUSH2 0x59B JUMP JUMPDEST PUSH1 0x40 MLOAD PUSH2 0x172 SWAP2 SWAP1 PUSH2 0x14CD JUMP JUMPDEST PUSH1 0x40 MLOAD DUP1 SWAP2 SUB SWAP1 RETURN JUMPDEST PUSH2 0x195 PUSH1 0x4 DUP1 CALLDATASIZE SUB DUP2 ADD SWAP1 PUSH2 0x190 SWAP2 SWAP1 PUSH2 0x14E6 JUMP JUMPDEST PUSH2 0x5C2 JUMP JUMPDEST PUSH1 0x40 MLOAD PUSH2 0x1A2 SWAP2 SWAP1 PUSH2 0x1652 JUMP JUMPDEST PUSH1 0x40 MLOAD DUP1 SWAP2 SUB SWAP1 RETURN JUMPDEST PUSH2 0x1C5 PUSH1 0x4 DUP1 CALLDATASIZE SUB DUP2 ADD SWAP1 PUSH2 0x1C0 SWAP2 SWAP1 PUSH2 0x14E6 JUMP JUMPDEST PUSH2 0x767 JUMP JUMPDEST PUSH1 0x40 MLOAD PUSH2 0x1D2 SWAP2 SWAP1 PUSH2 0x1672 JUMP JUMPDEST PUSH1 0x40 MLOAD DUP1 SWAP2 SUB SWAP1 RETURN JUMPDEST PUSH2 0x1F5 PUSH1 0x4 DUP1 CALLDATASIZE SUB DUP2 ADD SWAP1 PUSH2 0x1F0 SWAP2 SWAP1 PUSH2 0x1264 JUMP JUMPDEST PUSH2 0x8EA JUMP JUMPDEST STOP JUMPDEST PUSH2 0x211 PUSH1 0x4 DUP1 CALLDATASIZE SUB DUP2 ADD SWAP1 PUSH2 0x20C SWAP2 SWAP1 PUSH2 0x17B7 JUMP JUMPDEST PUSH2 0xAC4 JUMP JUMPDEST STOP JUMPDEST PUSH2 0x22D PUSH1 0x4 DUP1 CALLDATASIZE SUB DUP2 ADD SWAP1 PUSH2 0x228 SWAP2 SWAP1 PUSH2 0x1264 JUMP JUMPDEST PUSH2 0xCDA JUMP JUMPDEST STOP JUMPDEST PUSH2 0x249 PUSH1 0x4 DUP1 CALLDATASIZE SUB DUP2 ADD SWAP1 PUSH2 0x244 SWAP2 SWAP1 PUSH2 0x14E6 JUMP JUMPDEST PUSH2 0xF54 JUMP JUMPDEST STOP JUMPDEST PUSH1 0x2 PUSH1 0x20 MSTORE DUP2 PUSH0 MSTORE PUSH1 0x40 PUSH0 KECCAK256 DUP2 DUP2 SLOAD DUP2 LT PUSH2 0x264 JUMPI PUSH0 DUP1 REVERT JUMPDEST SWAP1 PUSH0 MSTORE PUSH1 0x20 PUSH0 KECCAK256 SWAP1 PUSH1 0x6 MUL ADD PUSH0 SWAP2 POP SWAP2 POP POP DUP1 PUSH0 ADD SLOAD SWAP1 DUP1 PUSH1 0x1 ADD PUSH0 SWAP1 SLOAD SWAP1 PUSH2 0x100 EXP SWAP1 DIV PUSH20 0xFFFFFFFFFFFFFFFFFFFFFFFFFFFFFFFFFFFFFFFF AND SWAP1 DUP1 PUSH1 0x2 ADD DUP1 SLOAD PUSH2 0x2AF SWAP1 PUSH2 0x182B JUMP JUMPDEST DUP1 PUSH1 0x1F ADD PUSH1 0x20 DUP1 SWAP2 DIV MUL PUSH1 0x20 ADD PUSH1 0x40 MLOAD SWAP1 DUP2 ADD PUSH1 0x40 MSTORE DUP1 SWAP3 SWAP2 SWAP1 DUP2 DUP2 MSTORE PUSH1 0x20 ADD DUP3 DUP1 SLOAD PUSH2 0x2DB SWAP1 PUSH2 0x182B JUMP JUMPDEST DUP1 ISZERO PUSH2 0x326 JUMPI DUP1 PUSH1 0x1F LT PUSH2 0x2FD JUMPI PUSH2 0x100 DUP1 DUP4 SLOAD DIV MUL DUP4 MSTORE SWAP2 PUSH1 0x20 ADD SWAP2 PUSH2 0x326 JUMP JUMPDEST DUP3 ADD SWAP2 SWAP1 PUSH0 MSTORE PUSH1 0x20 PUSH0 KECCAK256 SWAP1 JUMPDEST DUP2 SLOAD DUP2 MSTORE SWAP1 PUSH1 0x1 ADD SWAP1 PUSH1 0x20 ADD DUP1 DUP4 GT PUSH2 0x309 JUMPI DUP3 SWAP1 SUB PUSH1 0x1F AND DUP3 ADD SWAP2 JUMPDEST POP POP POP POP POP SWAP1 DUP1 PUSH1 0x3 ADD SLOAD SWAP1 DUP1 PUSH1 0x4 ADD SLOAD SWAP1 DUP1 PUSH1 0x5 ADD SLOAD SWAP1 POP DUP7 JUMP JUMPDEST PUSH1 0x2 PUSH0 DUP4 PUSH20 0xFFFFFFFFFFFFFFFFFFFFFFFFFFFFFFFFFFFFFFFF AND PUSH20 0xFFFFFFFFFFFFFFFFFFFFFFFFFFFFFFFFFFFFFFFF AND DUP2 MSTORE PUSH1 0x20 ADD SWAP1 DUP2 MSTORE PUSH1 0x20 ADD PUSH0 KECCAK256 DUP2 DUP2 SLOAD DUP2 LT PUSH2 0x391 JUMPI PUSH2 0x390 PUSH2 0x185B JUMP JUMPDEST JUMPDEST SWAP1 PUSH0 MSTORE PUSH1 0x20 PUSH0 KECCAK256 SWAP1 PUSH1 0x6 MUL ADD PUSH0 PUSH0 DUP3 ADD PUSH0 SWAP1 SSTORE PUSH1 0x1 DUP3 ADD PUSH0 PUSH2 0x100 EXP DUP2 SLOAD SWAP1 PUSH20 0xFFFFFFFFFFFFFFFFFFFFFFFFFFFFFFFFFFFFFFFF MUL NOT AND SWAP1 SSTORE PUSH1 0x2 DUP3 ADD PUSH0 PUSH2 0x3D9 SWAP2 SWAP1 PUSH2 0x1127 JUMP JUMPDEST PUSH1 0x3 DUP3 ADD PUSH0 SWAP1 SSTORE PUSH1 0x4 DUP3 ADD PUSH0 SWAP1 SSTORE PUSH1 0x5 DUP3 ADD PUSH0 SWAP1 SSTORE POP POP POP POP JUMP JUMPDEST PUSH2 0x3FC PUSH2 0xFD8 JUMP JUMPDEST DUP1 PUSH1 0x3 DUP2 SWAP1 SSTORE POP POP JUMP JUMPDEST PUSH2 0x40E PUSH2 0xFD8 JUMP JUMPDEST PUSH2 0x417 PUSH0 PUSH2 0x105F JUMP JUMPDEST JUMP JUMPDEST PUSH2 0x421 PUSH2 0x1164 JUMP JUMPDEST PUSH1 0x2 PUSH0 DUP5 PUSH20 0xFFFFFFFFFFFFFFFFFFFFFFFFFFFFFFFFFFFFFFFF AND PUSH20 0xFFFFFFFFFFFFFFFFFFFFFFFFFFFFFFFFFFFFFFFF AND DUP2 MSTORE PUSH1 0x20 ADD SWAP1 DUP2 MSTORE PUSH1 0x20 ADD PUSH0 KECCAK256 DUP3 DUP2 SLOAD DUP2 LT PUSH2 0x470 JUMPI PUSH2 0x46F PUSH2 0x185B JUMP JUMPDEST JUMPDEST SWAP1 PUSH0 MSTORE PUSH1 0x20 PUSH0 KECCAK256 SWAP1 PUSH1 0x6 MUL ADD PUSH1 0x40 MLOAD DUP1 PUSH1 0xC0 ADD PUSH1 0x40 MSTORE SWAP1 DUP2 PUSH0 DUP3 ADD SLOAD DUP2 MSTORE PUSH1 0x20 ADD PUSH1 0x1 DUP3 ADD PUSH0 SWAP1 SLOAD SWAP1 PUSH2 0x100 EXP SWAP1 DIV PUSH20 0xFFFFFFFFFFFFFFFFFFFFFFFFFFFFFFFFFFFFFFFF AND PUSH20 0xFFFFFFFFFFFFFFFFFFFFFFFFFFFFFFFFFFFFFFFF AND PUSH20 0xFFFFFFFFFFFFFFFFFFFFFFFFFFFFFFFFFFFFFFFF AND DUP2 MSTORE PUSH1 0x20 ADD PUSH1 0x2 DUP3 ADD DUP1 SLOAD PUSH2 0x4F5 SWAP1 PUSH2 0x182B JUMP JUMPDEST DUP1 PUSH1 0x1F ADD PUSH1 0x20 DUP1 SWAP2 DIV MUL PUSH1 0x20 ADD PUSH1 0x40 MLOAD SWAP1 DUP2 ADD PUSH1 0x40 MSTORE DUP1 SWAP3 SWAP2 SWAP1 DUP2 DUP2 MSTORE PUSH1 0x20 ADD DUP3 DUP1 SLOAD PUSH2 0x521 SWAP1 PUSH2 0x182B JUMP JUMPDEST DUP1 ISZERO PUSH2 0x56C JUMPI DUP1 PUSH1 0x1F LT PUSH2 0x543 JUMPI PUSH2 0x100 DUP1 DUP4 SLOAD DIV MUL DUP4 MSTORE SWAP2 PUSH1 0x20 ADD SWAP2 PUSH2 0x56C JUMP JUMPDEST DUP3 ADD SWAP2 SWAP1 PUSH0 MSTORE PUSH1 0x20 PUSH0 KECCAK256 SWAP1 JUMPDEST DUP2 SLOAD DUP2 MSTORE SWAP1 PUSH1 0x1 ADD SWAP1 PUSH1 0x20 ADD DUP1 DUP4 GT PUSH2 0x54F JUMPI DUP3 SWAP1 SUB PUSH1 0x1F AND DUP3 ADD SWAP2 JUMPDEST POP POP POP POP POP DUP2 MSTORE PUSH1 0x20 ADD PUSH1 0x3 DUP3 ADD SLOAD DUP2 MSTORE PUSH1 0x20 ADD PUSH1 0x4 DUP3 ADD SLOAD DUP2 MSTORE PUSH1 0x20 ADD PUSH1 0x5 DUP3 ADD SLOAD DUP2 MSTORE POP POP SWAP1 POP SWAP3 SWAP2 POP POP JUMP JUMPDEST PUSH0 PUSH0 PUSH0 SWAP1 SLOAD SWAP1 PUSH2 0x100 EXP SWAP1 DIV PUSH20 0xFFFFFFFFFFFFFFFFFFFFFFFFFFFFFFFFFFFFFFFF AND SWAP1 POP SWAP1 JUMP JUMPDEST PUSH1 0x60 PUSH1 0x2 PUSH0 DUP4 PUSH20 0xFFFFFFFFFFFFFFFFFFFFFFFFFFFFFFFFFFFFFFFF AND PUSH20 0xFFFFFFFFFFFFFFFFFFFFFFFFFFFFFFFFFFFFFFFF AND DUP2 MSTORE PUSH1 0x20 ADD SWAP1 DUP2 MSTORE PUSH1 0x20 ADD PUSH0 KECCAK256 DUP1 SLOAD DUP1 PUSH1 0x20 MUL PUSH1 0x20 ADD PUSH1 0x40 MLOAD SWAP1 DUP2 ADD PUSH1 0x40 MSTORE DUP1 SWAP3 SWAP2 SWAP1 DUP2 DUP2 MSTORE PUSH1 0x20 ADD PUSH0 SWAP1 JUMPDEST DUP3 DUP3 LT ISZERO PUSH2 0x75C JUMPI DUP4 DUP3 SWAP1 PUSH0 MSTORE PUSH1 0x20 PUSH0 KECCAK256 SWAP1 PUSH1 0x6 MUL ADD PUSH1 0x40 MLOAD DUP1 PUSH1 0xC0 ADD PUSH1 0x40 MSTORE SWAP1 DUP2 PUSH0 DUP3 ADD SLOAD DUP2 MSTORE PUSH1 0x20 ADD PUSH1 0x1 DUP3 ADD PUSH0 SWAP1 SLOAD SWAP1 PUSH2 0x100 EXP SWAP1 DIV PUSH20 0xFFFFFFFFFFFFFFFFFFFFFFFFFFFFFFFFFFFFFFFF AND PUSH20 0xFFFFFFFFFFFFFFFFFFFFFFFFFFFFFFFFFFFFFFFF AND PUSH20 0xFFFFFFFFFFFFFFFFFFFFFFFFFFFFFFFFFFFFFFFF AND DUP2 MSTORE PUSH1 0x20 ADD PUSH1 0x2 DUP3 ADD DUP1 SLOAD PUSH2 0x6AF SWAP1 PUSH2 0x182B JUMP JUMPDEST DUP1 PUSH1 0x1F ADD PUSH1 0x20 DUP1 SWAP2 DIV MUL PUSH1 0x20 ADD PUSH1 0x40 MLOAD SWAP1 DUP2 ADD PUSH1 0x40 MSTORE DUP1 SWAP3 SWAP2 SWAP1 DUP2 DUP2 MSTORE PUSH1 0x20 ADD DUP3 DUP1 SLOAD PUSH2 0x6DB SWAP1 PUSH2 0x182B JUMP JUMPDEST DUP1 ISZERO PUSH2 0x726 JUMPI DUP1 PUSH1 0x1F LT PUSH2 0x6FD JUMPI PUSH2 0x100 DUP1 DUP4 SLOAD DIV MUL DUP4 MSTORE SWAP2 PUSH1 0x20 ADD SWAP2 PUSH2 0x726 JUMP JUMPDEST DUP3 ADD SWAP2 SWAP1 PUSH0 MSTORE PUSH1 0x20 PUSH0 KECCAK256 SWAP1 JUMPDEST DUP2 SLOAD DUP2 MSTORE SWAP1 PUSH1 0x1 ADD SWAP1 PUSH1 0x20 ADD DUP1 DUP4 GT PUSH2 0x709 JUMPI DUP3 SWAP1 SUB PUSH1 0x1F AND DUP3 ADD SWAP2 JUMPDEST POP POP POP POP POP DUP2 MSTORE PUSH1 0x20 ADD PUSH1 0x3 DUP3 ADD SLOAD DUP2 MSTORE PUSH1 0x20 ADD PUSH1 0x4 DUP3 ADD SLOAD DUP2 MSTORE PUSH1 0x20 ADD PUSH1 0x5 DUP3 ADD SLOAD DUP2 MSTORE POP POP DUP2 MSTORE PUSH1 0x20 ADD SWAP1 PUSH1 0x1 ADD SWAP1 PUSH2 0x620 JUMP JUMPDEST POP POP POP POP SWAP1 POP SWAP2 SWAP1 POP JUMP JUMPDEST PUSH0 PUSH0 PUSH0 SWAP1 POP PUSH0 JUMPDEST PUSH1 0x2 PUSH0 DUP6 PUSH20 0xFFFFFFFFFFFFFFFFFFFFFFFFFFFFFFFFFFFFFFFF AND PUSH20 0xFFFFFFFFFFFFFFFFFFFFFFFFFFFFFFFFFFFFFFFF AND DUP2 MSTORE PUSH1 0x20 ADD SWAP1 DUP2 MSTORE PUSH1 0x20 ADD PUSH0 KECCAK256 DUP1 SLOAD SWAP1 POP DUP2 LT ISZERO PUSH2 0x8E0 JUMPI DUP4 PUSH20 0xFFFFFFFFFFFFFFFFFFFFFFFFFFFFFFFFFFFFFFFF AND PUSH1 0x2 PUSH0 DUP7 PUSH20 0xFFFFFFFFFFFFFFFFFFFFFFFFFFFFFFFFFFFFFFFF AND PUSH20 0xFFFFFFFFFFFFFFFFFFFFFFFFFFFFFFFFFFFFFFFF AND DUP2 MSTORE PUSH1 0x20 ADD SWAP1 DUP2 MSTORE PUSH1 0x20 ADD PUSH0 KECCAK256 DUP3 DUP2 SLOAD DUP2 LT PUSH2 0x81C JUMPI PUSH2 0x81B PUSH2 0x185B JUMP JUMPDEST JUMPDEST SWAP1 PUSH0 MSTORE PUSH1 0x20 PUSH0 KECCAK256 SWAP1 PUSH1 0x6 MUL ADD PUSH1 0x1 ADD PUSH0 SWAP1 SLOAD SWAP1 PUSH2 0x100 EXP SWAP1 DIV PUSH20 0xFFFFFFFFFFFFFFFFFFFFFFFFFFFFFFFFFFFFFFFF AND PUSH20 0xFFFFFFFFFFFFFFFFFFFFFFFFFFFFFFFFFFFFFFFF AND SUB PUSH2 0x8D3 JUMPI PUSH1 0x2 PUSH0 DUP6 PUSH20 0xFFFFFFFFFFFFFFFFFFFFFFFFFFFFFFFFFFFFFFFF AND PUSH20 0xFFFFFFFFFFFFFFFFFFFFFFFFFFFFFFFFFFFFFFFF AND DUP2 MSTORE PUSH1 0x20 ADD SWAP1 DUP2 MSTORE PUSH1 0x20 ADD PUSH0 KECCAK256 DUP2 DUP2 SLOAD DUP2 LT PUSH2 0x8B5 JUMPI PUSH2 0x8B4 PUSH2 0x185B JUMP JUMPDEST JUMPDEST SWAP1 PUSH0 MSTORE PUSH1 0x20 PUSH0 KECCAK256 SWAP1 PUSH1 0x6 MUL ADD PUSH1 0x3 ADD SLOAD DUP3 PUSH2 0x8D0 SWAP2 SWAP1 PUSH2 0x18B5 JUMP JUMPDEST SWAP2 POP JUMPDEST DUP1 DUP1 PUSH1 0x1 ADD SWAP2 POP POP PUSH2 0x76E JUMP JUMPDEST POP DUP1 SWAP2 POP POP SWAP2 SWAP1 POP JUMP JUMPDEST DUP1 PUSH1 0x2 PUSH0 DUP5 PUSH20 0xFFFFFFFFFFFFFFFFFFFFFFFFFFFFFFFFFFFFFFFF AND PUSH20 0xFFFFFFFFFFFFFFFFFFFFFFFFFFFFFFFFFFFFFFFF AND DUP2 MSTORE PUSH1 0x20 ADD SWAP1 DUP2 MSTORE PUSH1 0x20 ADD PUSH0 KECCAK256 DUP3 DUP2 SLOAD DUP2 LT PUSH2 0x93A JUMPI PUSH2 0x939 PUSH2 0x185B JUMP JUMPDEST JUMPDEST SWAP1 PUSH0 MSTORE PUSH1 0x20 PUSH0 KECCAK256 SWAP1 PUSH1 0x6 MUL ADD PUSH0 ADD SLOAD EQ PUSH2 0x989 JUMPI PUSH1 0x40 MLOAD PUSH32 0x8C379A000000000000000000000000000000000000000000000000000000000 DUP2 MSTORE PUSH1 0x4 ADD PUSH2 0x980 SWAP1 PUSH2 0x1932 JUMP JUMPDEST PUSH1 0x40 MLOAD DUP1 SWAP2 SUB SWAP1 REVERT JUMPDEST PUSH1 0x2 PUSH0 DUP4 PUSH20 0xFFFFFFFFFFFFFFFFFFFFFFFFFFFFFFFFFFFFFFFF AND PUSH20 0xFFFFFFFFFFFFFFFFFFFFFFFFFFFFFFFFFFFFFFFF AND DUP2 MSTORE PUSH1 0x20 ADD SWAP1 DUP2 MSTORE PUSH1 0x20 ADD PUSH0 KECCAK256 DUP2 DUP2 SLOAD DUP2 LT PUSH2 0x9D8 JUMPI PUSH2 0x9D7 PUSH2 0x185B JUMP JUMPDEST JUMPDEST SWAP1 PUSH0 MSTORE PUSH1 0x20 PUSH0 KECCAK256 SWAP1 PUSH1 0x6 MUL ADD PUSH1 0x3 ADD PUSH0 DUP2 SLOAD DUP1 SWAP3 SWAP2 SWAP1 PUSH2 0x9F7 SWAP1 PUSH2 0x1950 JUMP JUMPDEST SWAP2 SWAP1 POP SSTORE POP CALLER PUSH20 0xFFFFFFFFFFFFFFFFFFFFFFFFFFFFFFFFFFFFFFFF AND DUP3 PUSH20 0xFFFFFFFFFFFFFFFFFFFFFFFFFFFFFFFFFFFFFFFF AND DUP3 PUSH32 0xCCA9FAA0AAC4013472C2978CDBA3C8CB68CB71DA4CB35324DC984C8F02ABF65A PUSH1 0x2 PUSH0 DUP8 PUSH20 0xFFFFFFFFFFFFFFFFFFFFFFFFFFFFFFFFFFFFFFFF AND PUSH20 0xFFFFFFFFFFFFFFFFFFFFFFFFFFFFFFFFFFFFFFFF AND DUP2 MSTORE PUSH1 0x20 ADD SWAP1 DUP2 MSTORE PUSH1 0x20 ADD PUSH0 KECCAK256 DUP6 DUP2 SLOAD DUP2 LT PUSH2 0xA9B JUMPI PUSH2 0xA9A PUSH2 0x185B JUMP JUMPDEST JUMPDEST SWAP1 PUSH0 MSTORE PUSH1 0x20 PUSH0 KECCAK256 SWAP1 PUSH1 0x6 MUL ADD PUSH1 0x3 ADD SLOAD PUSH1 0x40 MLOAD PUSH2 0xAB8 SWAP2 SWAP1 PUSH2 0x1672 JUMP JUMPDEST PUSH1 0x40 MLOAD DUP1 SWAP2 SUB SWAP1 LOG4 POP POP JUMP JUMPDEST PUSH2 0x100 DUP2 MLOAD LT PUSH2 0xB09 JUMPI PUSH1 0x40 MLOAD PUSH32 0x8C379A000000000000000000000000000000000000000000000000000000000 DUP2 MSTORE PUSH1 0x4 ADD PUSH2 0xB00 SWAP1 PUSH2 0x1A07 JUMP JUMPDEST PUSH1 0x40 MLOAD DUP1 SWAP2 SUB SWAP1 REVERT JUMPDEST PUSH0 PUSH1 0x40 MLOAD DUP1 PUSH1 0xC0 ADD PUSH1 0x40 MSTORE DUP1 PUSH1 0x2 PUSH0 CALLER PUSH20 0xFFFFFFFFFFFFFFFFFFFFFFFFFFFFFFFFFFFFFFFF AND PUSH20 0xFFFFFFFFFFFFFFFFFFFFFFFFFFFFFFFFFFFFFFFF AND DUP2 MSTORE PUSH1 0x20 ADD SWAP1 DUP2 MSTORE PUSH1 0x20 ADD PUSH0 KECCAK256 DUP1 SLOAD SWAP1 POP DUP2 MSTORE PUSH1 0x20 ADD CALLER PUSH20 0xFFFFFFFFFFFFFFFFFFFFFFFFFFFFFFFFFFFFFFFF AND DUP2 MSTORE PUSH1 0x20 ADD DUP4 DUP2 MSTORE PUSH1 0x20 ADD PUSH0 DUP2 MSTORE PUSH1 0x20 ADD PUSH0 DUP2 MSTORE PUSH1 0x20 ADD TIMESTAMP DUP2 MSTORE POP SWAP1 POP PUSH1 0x2 PUSH0 CALLER PUSH20 0xFFFFFFFFFFFFFFFFFFFFFFFFFFFFFFFFFFFFFFFF AND PUSH20 0xFFFFFFFFFFFFFFFFFFFFFFFFFFFFFFFFFFFFFFFF AND DUP2 MSTORE PUSH1 0x20 ADD SWAP1 DUP2 MSTORE PUSH1 0x20 ADD PUSH0 KECCAK256 DUP2 SWAP1 DUP1 PUSH1 0x1 DUP2 SLOAD ADD DUP1 DUP3 SSTORE DUP1 SWAP2 POP POP PUSH1 0x1 SWAP1 SUB SWAP1 PUSH0 MSTORE PUSH1 0x20 PUSH0 KECCAK256 SWAP1 PUSH1 0x6 MUL ADD PUSH0 SWAP1 SWAP2 SWAP1 SWAP2 SWAP1 SWAP2 POP PUSH0 DUP3 ADD MLOAD DUP2 PUSH0 ADD SSTORE PUSH1 0x20 DUP3 ADD MLOAD DUP2 PUSH1 0x1 ADD PUSH0 PUSH2 0x100 EXP DUP2 SLOAD DUP2 PUSH20 0xFFFFFFFFFFFFFFFFFFFFFFFFFFFFFFFFFFFFFFFF MUL NOT AND SWAP1 DUP4 PUSH20 0xFFFFFFFFFFFFFFFFFFFFFFFFFFFFFFFFFFFFFFFF AND MUL OR SWAP1 SSTORE POP PUSH1 0x40 DUP3 ADD MLOAD DUP2 PUSH1 0x2 ADD SWAP1 DUP2 PUSH2 0xC56 SWAP2 SWAP1 PUSH2 0x1BC5 JUMP JUMPDEST POP PUSH1 0x60 DUP3 ADD MLOAD DUP2 PUSH1 0x3 ADD SSTORE PUSH1 0x80 DUP3 ADD MLOAD DUP2 PUSH1 0x4 ADD SSTORE PUSH1 0xA0 DUP3 ADD MLOAD DUP2 PUSH1 0x5 ADD SSTORE POP POP DUP1 PUSH1 0xA0 ADD MLOAD DUP2 PUSH1 0x20 ADD MLOAD PUSH20 0xFFFFFFFFFFFFFFFFFFFFFFFFFFFFFFFFFFFFFFFF AND DUP3 PUSH0 ADD MLOAD PUSH32 0x16FD3C13E9D46923E0A8BCE11C7B473EC508A72E6C96CD2404B29CE972AFC29E DUP5 PUSH1 0x40 ADD MLOAD PUSH1 0x40 MLOAD PUSH2 0xCCE SWAP2 SWAP1 PUSH2 0x1C94 JUMP JUMPDEST PUSH1 0x40 MLOAD DUP1 SWAP2 SUB SWAP1 LOG4 POP POP JUMP JUMPDEST DUP1 PUSH1 0x2 PUSH0 DUP5 PUSH20 0xFFFFFFFFFFFFFFFFFFFFFFFFFFFFFFFFFFFFFFFF AND PUSH20 0xFFFFFFFFFFFFFFFFFFFFFFFFFFFFFFFFFFFFFFFF AND DUP2 MSTORE PUSH1 0x20 ADD SWAP1 DUP2 MSTORE PUSH1 0x20 ADD PUSH0 KECCAK256 DUP3 DUP2 SLOAD DUP2 LT PUSH2 0xD2A JUMPI PUSH2 0xD29 PUSH2 0x185B JUMP JUMPDEST JUMPDEST SWAP1 PUSH0 MSTORE PUSH1 0x20 PUSH0 KECCAK256 SWAP1 PUSH1 0x6 MUL ADD PUSH0 ADD SLOAD EQ PUSH2 0xD79 JUMPI PUSH1 0x40 MLOAD PUSH32 0x8C379A000000000000000000000000000000000000000000000000000000000 DUP2 MSTORE PUSH1 0x4 ADD PUSH2 0xD70 SWAP1 PUSH2 0x1CFE JUMP JUMPDEST PUSH1 0x40 MLOAD DUP1 SWAP2 SUB SWAP1 REVERT JUMPDEST PUSH0 PUSH1 0x2 PUSH0 DUP5 PUSH20 0xFFFFFFFFFFFFFFFFFFFFFFFFFFFFFFFFFFFFFFFF AND PUSH20 0xFFFFFFFFFFFFFFFFFFFFFFFFFFFFFFFFFFFFFFFF AND DUP2 MSTORE PUSH1 0x20 ADD SWAP1 DUP2 MSTORE PUSH1 0x20 ADD PUSH0 KECCAK256 DUP3 DUP2 SLOAD DUP2 LT PUSH2 0xDC9 JUMPI PUSH2 0xDC8 PUSH2 0x185B JUMP JUMPDEST JUMPDEST SWAP1 PUSH0 MSTORE PUSH1 0x20 PUSH0 KECCAK256 SWAP1 PUSH1 0x6 MUL ADD PUSH1 0x3 ADD SLOAD GT PUSH2 0xE19 JUMPI PUSH1 0x40 MLOAD PUSH32 0x8C379A000000000000000000000000000000000000000000000000000000000 DUP2 MSTORE PUSH1 0x4 ADD PUSH2 0xE10 SWAP1 PUSH2 0x1D66 JUMP JUMPDEST PUSH1 0x40 MLOAD DUP1 SWAP2 SUB SWAP1 REVERT JUMPDEST PUSH1 0x2 PUSH0 DUP4 PUSH20 0xFFFFFFFFFFFFFFFFFFFFFFFFFFFFFFFFFFFFFFFF AND PUSH20 0xFFFFFFFFFFFFFFFFFFFFFFFFFFFFFFFFFFFFFFFF AND DUP2 MSTORE PUSH1 0x20 ADD SWAP1 DUP2 MSTORE PUSH1 0x20 ADD PUSH0 KECCAK256 DUP2 DUP2 SLOAD DUP2 LT PUSH2 0xE68 JUMPI PUSH2 0xE67 PUSH2 0x185B JUMP JUMPDEST JUMPDEST SWAP1 PUSH0 MSTORE PUSH1 0x20 PUSH0 KECCAK256 SWAP1 PUSH1 0x6 MUL ADD PUSH1 0x3 ADD PUSH0 DUP2 SLOAD DUP1 SWAP3 SWAP2 SWAP1 PUSH2 0xE87 SWAP1 PUSH2 0x1D84 JUMP JUMPDEST SWAP2 SWAP1 POP SSTORE POP CALLER PUSH20 0xFFFFFFFFFFFFFFFFFFFFFFFFFFFFFFFFFFFFFFFF AND DUP3 PUSH20 0xFFFFFFFFFFFFFFFFFFFFFFFFFFFFFFFFFFFFFFFF AND DUP3 PUSH32 0xEF73A432A91B235BA7B844392A00D62C6E9916CA8CE0DF7BFEA3B3454A2B5A91 PUSH1 0x2 PUSH0 DUP8 PUSH20 0xFFFFFFFFFFFFFFFFFFFFFFFFFFFFFFFFFFFFFFFF AND PUSH20 0xFFFFFFFFFFFFFFFFFFFFFFFFFFFFFFFFFFFFFFFF AND DUP2 MSTORE PUSH1 0x20 ADD SWAP1 DUP2 MSTORE PUSH1 0x20 ADD PUSH0 KECCAK256 DUP6 DUP2 SLOAD DUP2 LT PUSH2 0xF2B JUMPI PUSH2 0xF2A PUSH2 0x185B JUMP JUMPDEST JUMPDEST SWAP1 PUSH0 MSTORE PUSH1 0x20 PUSH0 KECCAK256 SWAP1 PUSH1 0x6 MUL ADD PUSH1 0x3 ADD SLOAD PUSH1 0x40 MLOAD PUSH2 0xF48 SWAP2 SWAP1 PUSH2 0x1672 JUMP JUMPDEST PUSH1 0x40 MLOAD DUP1 SWAP2 SUB SWAP1 LOG4 POP POP JUMP JUMPDEST PUSH2 0xF5C PUSH2 0xFD8 JUMP JUMPDEST PUSH0 PUSH20 0xFFFFFFFFFFFFFFFFFFFFFFFFFFFFFFFFFFFFFFFF AND DUP2 PUSH20 0xFFFFFFFFFFFFFFFFFFFFFFFFFFFFFFFFFFFFFFFF AND SUB PUSH2 0xFCC JUMPI PUSH0 PUSH1 0x40 MLOAD PUSH32 0x1E4FBDF700000000000000000000000000000000000000000000000000000000 DUP2 MSTORE PUSH1 0x4 ADD PUSH2 0xFC3 SWAP2 SWAP1 PUSH2 0x14CD JUMP JUMPDEST PUSH1 0x40 MLOAD DUP1 SWAP2 SUB SWAP1 REVERT JUMPDEST PUSH2 0xFD5 DUP2 PUSH2 0x105F JUMP JUMPDEST POP JUMP JUMPDEST PUSH2 0xFE0 PUSH2 0x1120 JUMP JUMPDEST PUSH20 0xFFFFFFFFFFFFFFFFFFFFFFFFFFFFFFFFFFFFFFFF AND PUSH2 0xFFE PUSH2 0x59B JUMP JUMPDEST PUSH20 0xFFFFFFFFFFFFFFFFFFFFFFFFFFFFFFFFFFFFFFFF AND EQ PUSH2 0x105D JUMPI PUSH2 0x1021 PUSH2 0x1120 JUMP JUMPDEST PUSH1 0x40 MLOAD PUSH32 0x118CDAA700000000000000000000000000000000000000000000000000000000 DUP2 MSTORE PUSH1 0x4 ADD PUSH2 0x1054 SWAP2 SWAP1 PUSH2 0x14CD JUMP JUMPDEST PUSH1 0x40 MLOAD DUP1 SWAP2 SUB SWAP1 REVERT JUMPDEST JUMP JUMPDEST PUSH0 PUSH0 PUSH0 SWAP1 SLOAD SWAP1 PUSH2 0x100 EXP SWAP1 DIV PUSH20 0xFFFFFFFFFFFFFFFFFFFFFFFFFFFFFFFFFFFFFFFF AND SWAP1 POP DUP2 PUSH0 PUSH0 PUSH2 0x100 EXP DUP2 SLOAD DUP2 PUSH20 0xFFFFFFFFFFFFFFFFFFFFFFFFFFFFFFFFFFFFFFFF MUL NOT AND SWAP1 DUP4 PUSH20 0xFFFFFFFFFFFFFFFFFFFFFFFFFFFFFFFFFFFFFFFF AND MUL OR SWAP1 SSTORE POP DUP2 PUSH20 0xFFFFFFFFFFFFFFFFFFFFFFFFFFFFFFFFFFFFFFFF AND DUP2 PUSH20 0xFFFFFFFFFFFFFFFFFFFFFFFFFFFFFFFFFFFFFFFF AND PUSH32 0x8BE0079C531659141344CD1FD0A4F28419497F9722A3DAAFE3B4186F6B6457E0 PUSH1 0x40 MLOAD PUSH1 0x40 MLOAD DUP1 SWAP2 SUB SWAP1 LOG3 POP POP JUMP JUMPDEST PUSH0 CALLER SWAP1 POP SWAP1 JUMP JUMPDEST POP DUP1 SLOAD PUSH2 0x1133 SWAP1 PUSH2 0x182B JUMP JUMPDEST PUSH0 DUP3 SSTORE DUP1 PUSH1 0x1F LT PUSH2 0x1144 JUMPI POP PUSH2 0x1161 JUMP JUMPDEST PUSH1 0x1F ADD PUSH1 0x20 SWAP1 DIV SWAP1 PUSH0 MSTORE PUSH1 0x20 PUSH0 KECCAK256 SWAP1 DUP2 ADD SWAP1 PUSH2 0x1160 SWAP2 SWAP1 PUSH2 0x11AB JUMP JUMPDEST JUMPDEST POP JUMP JUMPDEST PUSH1 0x40 MLOAD DUP1 PUSH1 0xC0 ADD PUSH1 0x40 MSTORE DUP1 PUSH0 DUP2 MSTORE PUSH1 0x20 ADD PUSH0 PUSH20 0xFFFFFFFFFFFFFFFFFFFFFFFFFFFFFFFFFFFFFFFF AND DUP2 MSTORE PUSH1 0x20 ADD PUSH1 0x60 DUP2 MSTORE PUSH1 0x20 ADD PUSH0 DUP2 MSTORE PUSH1 0x20 ADD PUSH0 DUP2 MSTORE PUSH1 0x20 ADD PUSH0 DUP2 MSTORE POP SWAP1 JUMP JUMPDEST JUMPDEST DUP1 DUP3 GT ISZERO PUSH2 0x11C2 JUMPI PUSH0 DUP2 PUSH0 SWAP1 SSTORE POP PUSH1 0x1 ADD PUSH2 0x11AC JUMP JUMPDEST POP SWAP1 JUMP JUMPDEST PUSH0 PUSH1 0x40 MLOAD SWAP1 POP SWAP1 JUMP JUMPDEST PUSH0 PUSH0 REVERT JUMPDEST PUSH0 PUSH0 REVERT JUMPDEST PUSH0 PUSH20 0xFFFFFFFFFFFFFFFFFFFFFFFFFFFFFFFFFFFFFFFF DUP3 AND SWAP1 POP SWAP2 SWAP1 POP JUMP JUMPDEST PUSH0 PUSH2 0x1200 DUP3 PUSH2 0x11D7 JUMP JUMPDEST SWAP1 POP SWAP2 SWAP1 POP JUMP JUMPDEST PUSH2 0x1210 DUP2 PUSH2 0x11F6 JUMP JUMPDEST DUP2 EQ PUSH2 0x121A JUMPI PUSH0 PUSH0 REVERT JUMPDEST POP JUMP JUMPDEST PUSH0 DUP2 CALLDATALOAD SWAP1 POP PUSH2 0x122B DUP2 PUSH2 0x1207 JUMP JUMPDEST SWAP3 SWAP2 POP POP JUMP JUMPDEST PUSH0 DUP2 SWAP1 POP SWAP2 SWAP1 POP JUMP JUMPDEST PUSH2 0x1243 DUP2 PUSH2 0x1231 JUMP JUMPDEST DUP2 EQ PUSH2 0x124D JUMPI PUSH0 PUSH0 REVERT JUMPDEST POP JUMP JUMPDEST PUSH0 DUP2 CALLDATALOAD SWAP1 POP PUSH2 0x125E DUP2 PUSH2 0x123A JUMP JUMPDEST SWAP3 SWAP2 POP POP JUMP JUMPDEST PUSH0 PUSH0 PUSH1 0x40 DUP4 DUP6 SUB SLT ISZERO PUSH2 0x127A JUMPI PUSH2 0x1279 PUSH2 0x11CF JUMP JUMPDEST JUMPDEST PUSH0 PUSH2 0x1287 DUP6 DUP3 DUP7 ADD PUSH2 0x121D JUMP JUMPDEST SWAP3 POP POP PUSH1 0x20 PUSH2 0x1298 DUP6 DUP3 DUP7 ADD PUSH2 0x1250 JUMP JUMPDEST SWAP2 POP POP SWAP3 POP SWAP3 SWAP1 POP JUMP JUMPDEST PUSH2 0x12AB DUP2 PUSH2 0x1231 JUMP JUMPDEST DUP3 MSTORE POP POP JUMP JUMPDEST PUSH2 0x12BA DUP2 PUSH2 0x11F6 JUMP JUMPDEST DUP3 MSTORE POP POP JUMP JUMPDEST PUSH0 DUP2 MLOAD SWAP1 POP SWAP2 SWAP1 POP JUMP JUMPDEST PUSH0 DUP3 DUP3 MSTORE PUSH1 0x20 DUP3 ADD SWAP1 POP SWAP3 SWAP2 POP POP JUMP JUMPDEST DUP3 DUP2 DUP4 MCOPY PUSH0 DUP4 DUP4 ADD MSTORE POP POP POP JUMP JUMPDEST PUSH0 PUSH1 0x1F NOT PUSH1 0x1F DUP4 ADD AND SWAP1 POP SWAP2 SWAP1 POP JUMP JUMPDEST PUSH0 PUSH2 0x1302 DUP3 PUSH2 0x12C0 JUMP JUMPDEST PUSH2 0x130C DUP2 DUP6 PUSH2 0x12CA JUMP JUMPDEST SWAP4 POP PUSH2 0x131C DUP2 DUP6 PUSH1 0x20 DUP7 ADD PUSH2 0x12DA JUMP JUMPDEST PUSH2 0x1325 DUP2 PUSH2 0x12E8 JUMP JUMPDEST DUP5 ADD SWAP2 POP POP SWAP3 SWAP2 POP POP JUMP JUMPDEST PUSH0 PUSH1 0xC0 DUP3 ADD SWAP1 POP PUSH2 0x1343 PUSH0 DUP4 ADD DUP10 PUSH2 0x12A2 JUMP JUMPDEST PUSH2 0x1350 PUSH1 0x20 DUP4 ADD DUP9 PUSH2 0x12B1 JUMP JUMPDEST DUP2 DUP2 SUB PUSH1 0x40 DUP4 ADD MSTORE PUSH2 0x1362 DUP2 DUP8 PUSH2 0x12F8 JUMP JUMPDEST SWAP1 POP PUSH2 0x1371 PUSH1 0x60 DUP4 ADD DUP7 PUSH2 0x12A2 JUMP JUMPDEST PUSH2 0x137E PUSH1 0x80 DUP4 ADD DUP6 PUSH2 0x12A2 JUMP JUMPDEST PUSH2 0x138B PUSH1 0xA0 DUP4 ADD DUP5 PUSH2 0x12A2 JUMP JUMPDEST SWAP8 SWAP7 POP POP POP POP POP POP POP JUMP JUMPDEST PUSH0 PUSH1 0x20 DUP3 DUP5 SUB SLT ISZERO PUSH2 0x13AB JUMPI PUSH2 0x13AA PUSH2 0x11CF JUMP JUMPDEST JUMPDEST PUSH0 PUSH2 0x13B8 DUP5 DUP3 DUP6 ADD PUSH2 0x1250 JUMP JUMPDEST SWAP2 POP POP SWAP3 SWAP2 POP POP JUMP JUMPDEST PUSH2 0x13CA DUP2 PUSH2 0x1231 JUMP JUMPDEST DUP3 MSTORE POP POP JUMP JUMPDEST PUSH2 0x13D9 DUP2 PUSH2 0x11F6 JUMP JUMPDEST DUP3 MSTORE POP POP JUMP JUMPDEST PUSH0 DUP3 DUP3 MSTORE PUSH1 0x20 DUP3 ADD SWAP1 POP SWAP3 SWAP2 POP POP JUMP JUMPDEST PUSH0 PUSH2 0x13F9 DUP3 PUSH2 0x12C0 JUMP JUMPDEST PUSH2 0x1403 DUP2 DUP6 PUSH2 0x13DF JUMP JUMPDEST SWAP4 POP PUSH2 0x1413 DUP2 DUP6 PUSH1 0x20 DUP7 ADD PUSH2 0x12DA JUMP JUMPDEST PUSH2 0x141C DUP2 PUSH2 0x12E8 JUMP JUMPDEST DUP5 ADD SWAP2 POP POP SWAP3 SWAP2 POP POP JUMP JUMPDEST PUSH0 PUSH1 0xC0 DUP4 ADD PUSH0 DUP4 ADD MLOAD PUSH2 0x143C PUSH0 DUP7 ADD DUP3 PUSH2 0x13C1 JUMP JUMPDEST POP PUSH1 0x20 DUP4 ADD MLOAD PUSH2 0x144F PUSH1 0x20 DUP7 ADD DUP3 PUSH2 0x13D0 JUMP JUMPDEST POP PUSH1 0x40 DUP4 ADD MLOAD DUP5 DUP3 SUB PUSH1 0x40 DUP7 ADD MSTORE PUSH2 0x1467 DUP3 DUP3 PUSH2 0x13EF JUMP JUMPDEST SWAP2 POP POP PUSH1 0x60 DUP4 ADD MLOAD PUSH2 0x147C PUSH1 0x60 DUP7 ADD DUP3 PUSH2 0x13C1 JUMP JUMPDEST POP PUSH1 0x80 DUP4 ADD MLOAD PUSH2 0x148F PUSH1 0x80 DUP7 ADD DUP3 PUSH2 0x13C1 JUMP JUMPDEST POP PUSH1 0xA0 DUP4 ADD MLOAD PUSH2 0x14A2 PUSH1 0xA0 DUP7 ADD DUP3 PUSH2 0x13C1 JUMP JUMPDEST POP DUP1 SWAP2 POP POP SWAP3 SWAP2 POP POP JUMP JUMPDEST PUSH0 PUSH1 0x20 DUP3 ADD SWAP1 POP DUP2 DUP2 SUB PUSH0 DUP4 ADD MSTORE PUSH2 0x14C5 DUP2 DUP5 PUSH2 0x1427 JUMP JUMPDEST SWAP1 POP SWAP3 SWAP2 POP POP JUMP JUMPDEST PUSH0 PUSH1 0x20 DUP3 ADD SWAP1 POP PUSH2 0x14E0 PUSH0 DUP4 ADD DUP5 PUSH2 0x12B1 JUMP JUMPDEST SWAP3 SWAP2 POP POP JUMP JUMPDEST PUSH0 PUSH1 0x20 DUP3 DUP5 SUB SLT ISZERO PUSH2 0x14FB JUMPI PUSH2 0x14FA PUSH2 0x11CF JUMP JUMPDEST JUMPDEST PUSH0 PUSH2 0x1508 DUP5 DUP3 DUP6 ADD PUSH2 0x121D JUMP JUMPDEST SWAP2 POP POP SWAP3 SWAP2 POP POP JUMP JUMPDEST PUSH0 DUP2 MLOAD SWAP1 POP SWAP2 SWAP1 POP JUMP JUMPDEST PUSH0 DUP3 DUP3 MSTORE PUSH1 0x20 DUP3 ADD SWAP1 POP SWAP3 SWAP2 POP POP JUMP JUMPDEST PUSH0 DUP2 SWAP1 POP PUSH1 0x20 DUP3 ADD SWAP1 POP SWAP2 SWAP1 POP JUMP JUMPDEST PUSH0 PUSH1 0xC0 DUP4 ADD PUSH0 DUP4 ADD MLOAD PUSH2 0x154F PUSH0 DUP7 ADD DUP3 PUSH2 0x13C1 JUMP JUMPDEST POP PUSH1 0x20 DUP4 ADD MLOAD PUSH2 0x1562 PUSH1 0x20 DUP7 ADD DUP3 PUSH2 0x13D0 JUMP JUMPDEST POP PUSH1 0x40 DUP4 ADD MLOAD DUP5 DUP3 SUB PUSH1 0x40 DUP7 ADD MSTORE PUSH2 0x157A DUP3 DUP3 PUSH2 0x13EF JUMP JUMPDEST SWAP2 POP POP PUSH1 0x60 DUP4 ADD MLOAD PUSH2 0x158F PUSH1 0x60 DUP7 ADD DUP3 PUSH2 0x13C1 JUMP JUMPDEST POP PUSH1 0x80 DUP4 ADD MLOAD PUSH2 0x15A2 PUSH1 0x80 DUP7 ADD DUP3 PUSH2 0x13C1 JUMP JUMPDEST POP PUSH1 0xA0 DUP4 ADD MLOAD PUSH2 0x15B5 PUSH1 0xA0 DUP7 ADD DUP3 PUSH2 0x13C1 JUMP JUMPDEST POP DUP1 SWAP2 POP POP SWAP3 SWAP2 POP POP JUMP JUMPDEST PUSH0 PUSH2 0x15CB DUP4 DUP4 PUSH2 0x153A JUMP JUMPDEST SWAP1 POP SWAP3 SWAP2 POP POP JUMP JUMPDEST PUSH0 PUSH1 0x20 DUP3 ADD SWAP1 POP SWAP2 SWAP1 POP JUMP JUMPDEST PUSH0 PUSH2 0x15E9 DUP3 PUSH2 0x1511 JUMP JUMPDEST PUSH2 0x15F3 DUP2 DUP6 PUSH2 0x151B JUMP JUMPDEST SWAP4 POP DUP4 PUSH1 0x20 DUP3 MUL DUP6 ADD PUSH2 0x1605 DUP6 PUSH2 0x152B JUMP JUMPDEST DUP1 PUSH0 JUMPDEST DUP6 DUP2 LT ISZERO PUSH2 0x1640 JUMPI DUP5 DUP5 SUB DUP10 MSTORE DUP2 MLOAD PUSH2 0x1621 DUP6 DUP3 PUSH2 0x15C0 JUMP JUMPDEST SWAP5 POP PUSH2 0x162C DUP4 PUSH2 0x15D3 JUMP JUMPDEST SWAP3 POP PUSH1 0x20 DUP11 ADD SWAP10 POP POP PUSH1 0x1 DUP2 ADD SWAP1 POP PUSH2 0x1608 JUMP JUMPDEST POP DUP3 SWAP8 POP DUP8 SWAP6 POP POP POP POP POP POP SWAP3 SWAP2 POP POP JUMP JUMPDEST PUSH0 PUSH1 0x20 DUP3 ADD SWAP1 POP DUP2 DUP2 SUB PUSH0 DUP4 ADD MSTORE PUSH2 0x166A DUP2 DUP5 PUSH2 0x15DF JUMP JUMPDEST SWAP1 POP SWAP3 SWAP2 POP POP JUMP JUMPDEST PUSH0 PUSH1 0x20 DUP3 ADD SWAP1 POP PUSH2 0x1685 PUSH0 DUP4 ADD DUP5 PUSH2 0x12A2 JUMP JUMPDEST SWAP3 SWAP2 POP POP JUMP JUMPDEST PUSH0 PUSH0 REVERT JUMPDEST PUSH0 PUSH0 REVERT JUMPDEST PUSH32 0x4E487B7100000000000000000000000000000000000000000000000000000000 PUSH0 MSTORE PUSH1 0x41 PUSH1 0x4 MSTORE PUSH1 0x24 PUSH0 REVERT JUMPDEST PUSH2 0x16C9 DUP3 PUSH2 0x12E8 JUMP JUMPDEST DUP2 ADD DUP2 DUP2 LT PUSH8 0xFFFFFFFFFFFFFFFF DUP3 GT OR ISZERO PUSH2 0x16E8 JUMPI PUSH2 0x16E7 PUSH2 0x1693 JUMP JUMPDEST JUMPDEST DUP1 PUSH1 0x40 MSTORE POP POP POP JUMP JUMPDEST PUSH0 PUSH2 0x16FA PUSH2 0x11C6 JUMP JUMPDEST SWAP1 POP PUSH2 0x1706 DUP3 DUP3 PUSH2 0x16C0 JUMP JUMPDEST SWAP2 SWAP1 POP JUMP JUMPDEST PUSH0 PUSH8 0xFFFFFFFFFFFFFFFF DUP3 GT ISZERO PUSH2 0x1725 JUMPI PUSH2 0x1724 PUSH2 0x1693 JUMP JUMPDEST JUMPDEST PUSH2 0x172E DUP3 PUSH2 0x12E8 JUMP JUMPDEST SWAP1 POP PUSH1 0x20 DUP2 ADD SWAP1 POP SWAP2 SWAP1 POP JUMP JUMPDEST DUP3 DUP2 DUP4 CALLDATACOPY PUSH0 DUP4 DUP4 ADD MSTORE POP POP POP JUMP JUMPDEST PUSH0 PUSH2 0x175B PUSH2 0x1756 DUP5 PUSH2 0x170B JUMP JUMPDEST PUSH2 0x16F1 JUMP JUMPDEST SWAP1 POP DUP3 DUP2 MSTORE PUSH1 0x20 DUP2 ADD DUP5 DUP5 DUP5 ADD GT ISZERO PUSH2 0x1777 JUMPI PUSH2 0x1776 PUSH2 0x168F JUMP JUMPDEST JUMPDEST PUSH2 0x1782 DUP5 DUP3 DUP6 PUSH2 0x173B JUMP JUMPDEST POP SWAP4 SWAP3 POP POP POP JUMP JUMPDEST PUSH0 DUP3 PUSH1 0x1F DUP4 ADD SLT PUSH2 0x179E JUMPI PUSH2 0x179D PUSH2 0x168B JUMP JUMPDEST JUMPDEST DUP2 CALLDATALOAD PUSH2 0x17AE DUP5 DUP3 PUSH1 0x20 DUP7 ADD PUSH2 0x1749 JUMP JUMPDEST SWAP2 POP POP SWAP3 SWAP2 POP POP JUMP JUMPDEST PUSH0 PUSH1 0x20 DUP3 DUP5 SUB SLT ISZERO PUSH2 0x17CC JUMPI PUSH2 0x17CB PUSH2 0x11CF JUMP JUMPDEST JUMPDEST PUSH0 DUP3 ADD CALLDATALOAD PUSH8 0xFFFFFFFFFFFFFFFF DUP2 GT ISZERO PUSH2 0x17E9 JUMPI PUSH2 0x17E8 PUSH2 0x11D3 JUMP JUMPDEST JUMPDEST PUSH2 0x17F5 DUP5 DUP3 DUP6 ADD PUSH2 0x178A JUMP JUMPDEST SWAP2 POP POP SWAP3 SWAP2 POP POP JUMP JUMPDEST PUSH32 0x4E487B7100000000000000000000000000000000000000000000000000000000 PUSH0 MSTORE PUSH1 0x22 PUSH1 0x4 MSTORE PUSH1 0x24 PUSH0 REVERT JUMPDEST PUSH0 PUSH1 0x2 DUP3 DIV SWAP1 POP PUSH1 0x1 DUP3 AND DUP1 PUSH2 0x1842 JUMPI PUSH1 0x7F DUP3 AND SWAP2 POP JUMPDEST PUSH1 0x20 DUP3 LT DUP2 SUB PUSH2 0x1855 JUMPI PUSH2 0x1854 PUSH2 0x17FE JUMP JUMPDEST JUMPDEST POP SWAP2 SWAP1 POP JUMP JUMPDEST PUSH32 0x4E487B7100000000000000000000000000000000000000000000000000000000 PUSH0 MSTORE PUSH1 0x32 PUSH1 0x4 MSTORE PUSH1 0x24 PUSH0 REVERT JUMPDEST PUSH32 0x4E487B7100000000000000000000000000000000000000000000000000000000 PUSH0 MSTORE PUSH1 0x11 PUSH1 0x4 MSTORE PUSH1 0x24 PUSH0 REVERT JUMPDEST PUSH0 PUSH2 0x18BF DUP3 PUSH2 0x1231 JUMP JUMPDEST SWAP2 POP PUSH2 0x18CA DUP4 PUSH2 0x1231 JUMP JUMPDEST SWAP3 POP DUP3 DUP3 ADD SWAP1 POP DUP1 DUP3 GT ISZERO PUSH2 0x18E2 JUMPI PUSH2 0x18E1 PUSH2 0x1888 JUMP JUMPDEST JUMPDEST SWAP3 SWAP2 POP POP JUMP JUMPDEST PUSH32 0x706F737420646F65736E6F7420666F756E640000000000000000000000000000 PUSH0 DUP3 ADD MSTORE POP JUMP JUMPDEST PUSH0 PUSH2 0x191C PUSH1 0x12 DUP4 PUSH2 0x12CA JUMP JUMPDEST SWAP2 POP PUSH2 0x1927 DUP3 PUSH2 0x18E8 JUMP JUMPDEST PUSH1 0x20 DUP3 ADD SWAP1 POP SWAP2 SWAP1 POP JUMP JUMPDEST PUSH0 PUSH1 0x20 DUP3 ADD SWAP1 POP DUP2 DUP2 SUB PUSH0 DUP4 ADD MSTORE PUSH2 0x1949 DUP2 PUSH2 0x1910 JUMP JUMPDEST SWAP1 POP SWAP2 SWAP1 POP JUMP JUMPDEST PUSH0 PUSH2 0x195A DUP3 PUSH2 0x1231 JUMP JUMPDEST SWAP2 POP PUSH32 0xFFFFFFFFFFFFFFFFFFFFFFFFFFFFFFFFFFFFFFFFFFFFFFFFFFFFFFFFFFFFFFFF DUP3 SUB PUSH2 0x198C JUMPI PUSH2 0x198B PUSH2 0x1888 JUMP JUMPDEST JUMPDEST PUSH1 0x1 DUP3 ADD SWAP1 POP SWAP2 SWAP1 POP JUMP JUMPDEST PUSH32 0x74776565742063616E6E6F74206265206C6F6E676572207468616E2032353620 PUSH0 DUP3 ADD MSTORE PUSH32 0x6368617261637465727300000000000000000000000000000000000000000000 PUSH1 0x20 DUP3 ADD MSTORE POP JUMP JUMPDEST PUSH0 PUSH2 0x19F1 PUSH1 0x2A DUP4 PUSH2 0x12CA JUMP JUMPDEST SWAP2 POP PUSH2 0x19FC DUP3 PUSH2 0x1997 JUMP JUMPDEST PUSH1 0x40 DUP3 ADD SWAP1 POP SWAP2 SWAP1 POP JUMP JUMPDEST PUSH0 PUSH1 0x20 DUP3 ADD SWAP1 POP DUP2 DUP2 SUB PUSH0 DUP4 ADD MSTORE PUSH2 0x1A1E DUP2 PUSH2 0x19E5 JUMP JUMPDEST SWAP1 POP SWAP2 SWAP1 POP JUMP JUMPDEST PUSH0 DUP2 SWAP1 POP DUP2 PUSH0 MSTORE PUSH1 0x20 PUSH0 KECCAK256 SWAP1 POP SWAP2 SWAP1 POP JUMP JUMPDEST PUSH0 PUSH1 0x20 PUSH1 0x1F DUP4 ADD DIV SWAP1 POP SWAP2 SWAP1 POP JUMP JUMPDEST PUSH0 DUP3 DUP3 SHL SWAP1 POP SWAP3 SWAP2 POP POP JUMP JUMPDEST PUSH0 PUSH1 0x8 DUP4 MUL PUSH2 0x1A81 PUSH32 0xFFFFFFFFFFFFFFFFFFFFFFFFFFFFFFFFFFFFFFFFFFFFFFFFFFFFFFFFFFFFFFFF DUP3 PUSH2 0x1A46 JUMP JUMPDEST PUSH2 0x1A8B DUP7 DUP4 PUSH2 0x1A46 JUMP JUMPDEST SWAP6 POP DUP1 NOT DUP5 AND SWAP4 POP DUP1 DUP7 AND DUP5 OR SWAP3 POP POP POP SWAP4 SWAP3 POP POP POP JUMP JUMPDEST PUSH0 DUP2 SWAP1 POP SWAP2 SWAP1 POP JUMP JUMPDEST PUSH0 PUSH2 0x1AC6 PUSH2 0x1AC1 PUSH2 0x1ABC DUP5 PUSH2 0x1231 JUMP JUMPDEST PUSH2 0x1AA3 JUMP JUMPDEST PUSH2 0x1231 JUMP JUMPDEST SWAP1 POP SWAP2 SWAP1 POP JUMP JUMPDEST PUSH0 DUP2 SWAP1 POP SWAP2 SWAP1 POP JUMP JUMPDEST PUSH2 0x1ADF DUP4 PUSH2 0x1AAC JUMP JUMPDEST PUSH2 0x1AF3 PUSH2 0x1AEB DUP3 PUSH2 0x1ACD JUMP JUMPDEST DUP5 DUP5 SLOAD PUSH2 0x1A52 JUMP JUMPDEST DUP3 SSTORE POP POP POP POP JUMP JUMPDEST PUSH0 PUSH0 SWAP1 POP SWAP1 JUMP JUMPDEST PUSH2 0x1B0A PUSH2 0x1AFB JUMP JUMPDEST PUSH2 0x1B15 DUP2 DUP5 DUP5 PUSH2 0x1AD6 JUMP JUMPDEST POP POP POP JUMP JUMPDEST JUMPDEST DUP2 DUP2 LT ISZERO PUSH2 0x1B38 JUMPI PUSH2 0x1B2D PUSH0 DUP3 PUSH2 0x1B02 JUMP JUMPDEST PUSH1 0x1 DUP2 ADD SWAP1 POP PUSH2 0x1B1B JUMP JUMPDEST POP POP JUMP JUMPDEST PUSH1 0x1F DUP3 GT ISZERO PUSH2 0x1B7D JUMPI PUSH2 0x1B4E DUP2 PUSH2 0x1A25 JUMP JUMPDEST PUSH2 0x1B57 DUP5 PUSH2 0x1A37 JUMP JUMPDEST DUP2 ADD PUSH1 0x20 DUP6 LT ISZERO PUSH2 0x1B66 JUMPI DUP2 SWAP1 POP JUMPDEST PUSH2 0x1B7A PUSH2 0x1B72 DUP6 PUSH2 0x1A37 JUMP JUMPDEST DUP4 ADD DUP3 PUSH2 0x1B1A JUMP JUMPDEST POP POP JUMPDEST POP POP POP JUMP JUMPDEST PUSH0 DUP3 DUP3 SHR SWAP1 POP SWAP3 SWAP2 POP POP JUMP JUMPDEST PUSH0 PUSH2 0x1B9D PUSH0 NOT DUP5 PUSH1 0x8 MUL PUSH2 0x1B82 JUMP JUMPDEST NOT DUP1 DUP4 AND SWAP2 POP POP SWAP3 SWAP2 POP POP JUMP JUMPDEST PUSH0 PUSH2 0x1BB5 DUP4 DUP4 PUSH2 0x1B8E JUMP JUMPDEST SWAP2 POP DUP3 PUSH1 0x2 MUL DUP3 OR SWAP1 POP SWAP3 SWAP2 POP POP JUMP JUMPDEST PUSH2 0x1BCE DUP3 PUSH2 0x12C0 JUMP JUMPDEST PUSH8 0xFFFFFFFFFFFFFFFF DUP2 GT ISZERO PUSH2 0x1BE7 JUMPI PUSH2 0x1BE6 PUSH2 0x1693 JUMP JUMPDEST JUMPDEST PUSH2 0x1BF1 DUP3 SLOAD PUSH2 0x182B JUMP JUMPDEST PUSH2 0x1BFC DUP3 DUP3 DUP6 PUSH2 0x1B3C JUMP JUMPDEST PUSH0 PUSH1 0x20 SWAP1 POP PUSH1 0x1F DUP4 GT PUSH1 0x1 DUP2 EQ PUSH2 0x1C2D JUMPI PUSH0 DUP5 ISZERO PUSH2 0x1C1B JUMPI DUP3 DUP8 ADD MLOAD SWAP1 POP JUMPDEST PUSH2 0x1C25 DUP6 DUP3 PUSH2 0x1BAA JUMP JUMPDEST DUP7 SSTORE POP PUSH2 0x1C8C JUMP JUMPDEST PUSH1 0x1F NOT DUP5 AND PUSH2 0x1C3B DUP7 PUSH2 0x1A25 JUMP JUMPDEST PUSH0 JUMPDEST DUP3 DUP2 LT ISZERO PUSH2 0x1C62 JUMPI DUP5 DUP10 ADD MLOAD DUP3 SSTORE PUSH1 0x1 DUP3 ADD SWAP2 POP PUSH1 0x20 DUP6 ADD SWAP5 POP PUSH1 0x20 DUP2 ADD SWAP1 POP PUSH2 0x1C3D JUMP JUMPDEST DUP7 DUP4 LT ISZERO PUSH2 0x1C7F JUMPI DUP5 DUP10 ADD MLOAD PUSH2 0x1C7B PUSH1 0x1F DUP10 AND DUP3 PUSH2 0x1B8E JUMP JUMPDEST DUP4 SSTORE POP JUMPDEST PUSH1 0x1 PUSH1 0x2 DUP9 MUL ADD DUP9 SSTORE POP POP POP JUMPDEST POP POP POP POP POP POP JUMP JUMPDEST PUSH0 PUSH1 0x20 DUP3 ADD SWAP1 POP DUP2 DUP2 SUB PUSH0 DUP4 ADD MSTORE PUSH2 0x1CAC DUP2 DUP5 PUSH2 0x12F8 JUMP JUMPDEST SWAP1 POP SWAP3 SWAP2 POP POP JUMP JUMPDEST PUSH32 0x706F737420646F65736E6F742065786973740000000000000000000000000000 PUSH0 DUP3 ADD MSTORE POP JUMP JUMPDEST PUSH0 PUSH2 0x1CE8 PUSH1 0x12 DUP4 PUSH2 0x12CA JUMP JUMPDEST SWAP2 POP PUSH2 0x1CF3 DUP3 PUSH2 0x1CB4 JUMP JUMPDEST PUSH1 0x20 DUP3 ADD SWAP1 POP SWAP2 SWAP1 POP JUMP JUMPDEST PUSH0 PUSH1 0x20 DUP3 ADD SWAP1 POP DUP2 DUP2 SUB PUSH0 DUP4 ADD MSTORE PUSH2 0x1D15 DUP2 PUSH2 0x1CDC JUMP JUMPDEST SWAP1 POP SWAP2 SWAP1 POP JUMP JUMPDEST PUSH32 0x6C696B657320636F756E74206973206A75737420300000000000000000000000 PUSH0 DUP3 ADD MSTORE POP JUMP JUMPDEST PUSH0 PUSH2 0x1D50 PUSH1 0x15 DUP4 PUSH2 0x12CA JUMP JUMPDEST SWAP2 POP PUSH2 0x1D5B DUP3 PUSH2 0x1D1C JUMP JUMPDEST PUSH1 0x20 DUP3 ADD SWAP1 POP SWAP2 SWAP1 POP JUMP JUMPDEST PUSH0 PUSH1 0x20 DUP3 ADD SWAP1 POP DUP2 DUP2 SUB PUSH0 DUP4 ADD MSTORE PUSH2 0x1D7D DUP2 PUSH2 0x1D44 JUMP JUMPDEST SWAP1 POP SWAP2 SWAP1 POP JUMP JUMPDEST PUSH0 PUSH2 0x1D8E DUP3 PUSH2 0x1231 JUMP JUMPDEST SWAP2 POP PUSH0 DUP3 SUB PUSH2 0x1DA0 JUMPI PUSH2 0x1D9F PUSH2 0x1888 JUMP JUMPDEST JUMPDEST PUSH1 0x1 DUP3 SUB SWAP1 POP SWAP2 SWAP1 POP JUMP INVALID LOG2 PUSH5 0x6970667358 0x22 SLT KECCAK256 SWAP4 PUSH17 0x2C7EF473DD53E1B660953BD9DEF2B24DD2 0xA8 0xDE 0xB9 0x21 DUP12 SGT DUP16 SUB STATICCALL DUPN 0x1B EXTSTATICCALL 0xA9 PUSH5 0x736F6C6343 STOP ADDMOD 0x1E STOP CALLER "
				},
				"gasEstimates": {
					"creation": {
						"codeDepositCost": "1529800",
						"executionCost": "infinite",
						"totalCost": "infinite"
					},
					"external": {
						"Post(string)": "infinite",
						"deletePost(address,uint256)": "infinite",
						"dislikepost(address,uint256)": "infinite",
						"getAllPost(address)": "infinite",
						"getPost(address,uint256)": "infinite",
						"getalllikes(address)": "infinite",
						"increaseTweetLengthfx(uint256)": "infinite",
						"likepost(address,uint256)": "infinite",
						"owner()": "2625",
						"renounceOwnership()": "infinite",
						"transferOwnership(address)": "infinite",
						"tweets(address,uint256)": "infinite"
					}
				},
				"methodIdentifiers": {
					"Post(string)": "d29557fe",
					"deletePost(address,uint256)": "0956848d",
					"dislikepost(address,uint256)": "f060380f",
					"getAllPost(address)": "93f72685",
					"getPost(address,uint256)": "7ecff119",
					"getalllikes(address)": "b8f35cd7",
					"increaseTweetLengthfx(uint256)": "3b6893a0",
					"likepost(address,uint256)": "bb44480e",
					"owner()": "8da5cb5b",
					"renounceOwnership()": "715018a6",
					"transferOwnership(address)": "f2fde38b",
					"tweets(address,uint256)": "05a1b4a9"
				}
			},
			"storageLayout": {
				"storage": [
					{
						"astId": 8,
						"contract": "contracts/_X.sol:X",
						"label": "_owner",
						"offset": 0,
						"slot": "0",
						"type": "t_address"
					},
					{
						"astId": 184,
						"contract": "contracts/_X.sol:X",
						"label": "tweetowner",
						"offset": 0,
						"slot": "1",
						"type": "t_address"
					},
					{
						"astId": 216,
						"contract": "contracts/_X.sol:X",
						"label": "tweets",
						"offset": 0,
						"slot": "2",
						"type": "t_mapping(t_address,t_array(t_struct(tweet)210_storage)dyn_storage)"
					},
					{
						"astId": 249,
						"contract": "contracts/_X.sol:X",
						"label": "MAX_TWEET_LENGTH",
						"offset": 0,
						"slot": "3",
						"type": "t_uint256"
					}
				],
				"types": {
					"t_address": {
						"encoding": "inplace",
						"label": "address",
						"numberOfBytes": "20"
					},
					"t_array(t_struct(tweet)210_storage)dyn_storage": {
						"base": "t_struct(tweet)210_storage",
						"encoding": "dynamic_array",
						"label": "struct X.tweet[]",
						"numberOfBytes": "32"
					},
					"t_mapping(t_address,t_array(t_struct(tweet)210_storage)dyn_storage)": {
						"encoding": "mapping",
						"key": "t_address",
						"label": "mapping(address => struct X.tweet[])",
						"numberOfBytes": "32",
						"value": "t_array(t_struct(tweet)210_storage)dyn_storage"
					},
					"t_string_storage": {
						"encoding": "bytes",
						"label": "string",
						"numberOfBytes": "32"
					},
					"t_struct(tweet)210_storage": {
						"encoding": "inplace",
						"label": "struct X.tweet",
						"members": [
							{
								"astId": 199,
								"contract": "contracts/_X.sol:X",
								"label": "id",
								"offset": 0,
								"slot": "0",
								"type": "t_uint256"
							},
							{
								"astId": 201,
								"contract": "contracts/_X.sol:X",
								"label": "author",
								"offset": 0,
								"slot": "1",
								"type": "t_address"
							},
							{
								"astId": 203,
								"contract": "contracts/_X.sol:X",
								"label": "content",
								"offset": 0,
								"slot": "2",
								"type": "t_string_storage"
							},
							{
								"astId": 205,
								"contract": "contracts/_X.sol:X",
								"label": "likes",
								"offset": 0,
								"slot": "3",
								"type": "t_uint256"
							},
							{
								"astId": 207,
								"contract": "contracts/_X.sol:X",
								"label": "dislikes",
								"offset": 0,
								"slot": "4",
								"type": "t_uint256"
							},
							{
								"astId": 209,
								"contract": "contracts/_X.sol:X",
								"label": "timestamp",
								"offset": 0,
								"slot": "5",
								"type": "t_uint256"
							}
						],
						"numberOfBytes": "192"
					},
					"t_uint256": {
						"encoding": "inplace",
						"label": "uint256",
						"numberOfBytes": "32"
					}
				}
			},
			"userdoc": {
				"kind": "user",
				"methods": {},
				"version": 1
			}
		}
	}
}